:100000006CC100008AC1000088C1000086C10000E8
:1000100084C1000082C1000080C100007EC10000D8
:100020007CC10000F3C4000078C1000076C100006C
:1000300074C1000072C1000070C100006EC10000F8
:100040006CC1000064C7000068C1000066C1000008
:1000500064C100000C94290960C100005EC1000069
:100060005CC100005AC100000C94A20B56C10000F4
:1000700054C1000052C1000050C100004EC1000038
:100080004CC100004AC1000048C1000060C500002A
:10009000EBC300000C94EB0B40C10000ACC10000AE
:1000A0003CC100003AC1000038C1000036C1000068
:1000B00034C1000032C1000030C100002EC1000078
:1000C0002CC100002AC1000028C100000C94340C8F
:1000D0000C94930C22C100000C94DC0C0C943B0D8E
:1000E0001CC100001A02D502D502D502D502D502E4
:1000F000D502D5021A02D502D502D502D502D50203
:10010000D502D5021C02D502D502D502D502D502F0
:10011000D502D5023902D502D502D502D502D502C3
:10012000D502D5021C02D502D502D502D502D502D0
:10013000D502D5023902D502D502D502D502D502A3
:10014000D502D502D102D502D502D502D502D502FB
:10015000D502D5024D02D502D502D502D502D5026F
:10016000D502D5027002D502D502D502D502D5023C
:10017000D502D5024102D502D502D502D502D5025B
:10018000D502D5025F02D502D502D502D502D5022D
:10019000D502D502A702D502D502D502D502D502D5
:1001A000D502D502A702D502D502D502D502D502C5
:1001B000D502D502A202D502D502D502D502D502BA
:1001C000D502D502A202D502D502D502D502D502AA
:1001D000D502D502B202D502D502D502D502D5028A
:1001E000D502D502C702D502D502D502D502D50265
:1001F000D502D502B202D502D502D502D502D5026A
:10020000D502D502C702D502D502D502D502D50244
:10021000D502D502CB02D502D502D502D502D50230
:10022000D502D5027802D502D502D502D502D50273
:10023000D502D5027802D502D502D502D502D50263
:10024000D502D5027A02D502D502D502D502D50251
:10025000D502D5028A02D502D502D502D502D50231
:10026000D502D5029E020CEC12E00F2EF4EFEF2E19
:10027000F2E0FF2EF02D26C00E94370FD801CC915E
:100280000E94F70FCC23F1F00FB6F8940F92D8012B
:100290001596ED91FC911697C681D781CE010296F5
:1002A000FED18091C10281508093C1028091CB0226
:1002B00081508093CB020F900FBE8F89988D5CD0B8
:1002C000CE015AD08091CB028111D6CFF701808127
:1002D000823008F0E6D65FD0F5CF11241FBECFEFF5
:1002E000D1E2DEBFCDBF00E00CBF12E0A0E0B2E083
:1002F000E4E1FBE200E00BBF02C007900D92AC38D6
:10030000B107D9F724E0ACE8B2E001C01D92A33CEC
:10031000B207E1F7A9D40C94881572CE8F938FB7EA
:100320008F93F8948091BF048F5F8093BF04809176
:10033000C0048F4F8093C0048091C1048F4F80937D
:10034000C1048091C2048F4F8093C2048F918FBFEC
:100350008F910895CF93DF93EC010E94370FCE0168
:100360000E942414EC010E94F70F209709F42CD06E
:10037000CE01DF91CF910895CF93DF93009741F0A5
:10038000EC010E94370FCE010E94BC140E94F70FAF
:10039000DF91CF9108958FEF80937E0080937D0051
:1003A00080B7877F80BF80B7806880BF83B7817F39
:1003B00083BF0FB6F8940F9283B7816083BF0F900D
:1003C0000FBE889513BE0895279A2F9A83ED90E368
:1003D0000197F1F700C000001F9AF8CF279A2F9AD3
:1003E0002FE78AE196E0215080409040E1F700C07D
:1003F00000001F9AF5CF1F920F920FB60F92112493
:100400000BB60F922F933F938F939F93AF93BF930E
:10041000EF93FF93E091B9008E2F90E0FC013897A5
:10042000E13CF10508F0C1C08827EE58FF4F8F4F1F
:100430000C94031410928C02E0918C0280918F0234
:10044000E81770F481E08E0F80938C02F0E0E057A3
:10045000FD4F80818093BB0085E88093BC00ACC0D9
:1004600080918D02816080938D0284E98093BC002D
:10047000A3C08091B9008093060285EE8093BC00F2
:100480009BC0E0918C0281E08E0F80938C02809162
:10049000BB00F0E0E057FD4F808320918C0230E0FC
:1004A00080918F0290E001972817390724F485EC9A
:1004B0008093BC0081C085E88093BC007DC08091A2
:1004C000BB00E0918C02F0E0E057FD4F808380910B
:1004D0008D02816080938D0284ED8093BC006CC09E
:1004E0008091B9008093060285ED8093BC0064C0C2
:1004F00010928C02E0918C0281E08E0F80938C022E
:10050000F0E0E057FD4F80818093BB0085EC809345
:10051000BC0052C090918C0280918F02981306C04B
:1005200080918D02816080938D0204C08091B9001A
:100530008093060284E08093BC003EC085EC8093EB
:10054000BC003AC080918D02846080938D028091BE
:100550008D02826080938D0210928C0285EC8093D4
:10056000BC002AC0E0918C0281E08E0F80938C0247
:100570008091BB00F0E0E057FD4F808380918D02B9
:10058000816080938D0285EC8093BC0015C085E866
:100590008093BC0011C084E080938E028093BC00E5
:1005A0000BC085EE8093BC0007C08091B90080939A
:1005B000060285ED8093BC00FF91EF91BF91AF9152
:1005C0009F918F913F912F910F900BBE0F900FBE77
:1005D0000F901F901895FC010396928381832FEF53
:1005E0003FEF3483238396838583908787831082AC
:1005F0000895FC01118610860895CF93DF939C0126
:10060000FB01DC011196CD91DC911297D383C2835B
:100610008C819D81958384838C819D81DC011396DF
:100620007C936E9312977D836C8331872087F901C9
:1006300080818F5F8083DF91CF910895CF93DF9387
:10064000EB01488159814F3F2FEF520721F4FC0104
:10065000A781B0850DC0DC01139601C0DF011296A1
:10066000ED91FC9113972081318142175307B0F728
:100670001296ED91FC911397FB83EA83D583C48393
:10068000BD83AC831396DC93CE93129799878887AA
:10069000FC0120812F5F2083DF91CF910895CF93BC
:1006A000DF93FC01A085B185C281D38184819581CE
:1006B0009D838C83C481D581828193819B838A832E
:1006C00011968D919C911297E817F90731F4848166
:1006D000958112969C938E931197118610868C911A
:1006E00081508C93DF91CF91089588EC90E00E9427
:1006F000741080911E0390911F03892BB1F3809198
:10070000280490912904892B81F3809122049091EF
:100710002304892B51F3A89510921F0310921E03F6
:10072000109229041092280410922304109222049B
:10073000DCCFCF93DF931F921F92CDB7DEB70F2E82
:10074000FAE8CF2ED12CF02DA12CB12CEE24E3947D
:10075000F12C00E010E01A830983C80199279C015D
:10076000220F331F220F331F220F331F821B930BC5
:10077000955BF6019183808320E04A2D5B2DBE01BD
:100780006F5F7F4F80911A0390911B0396D684E68A
:1007900090E00E947410F0922904E0922804055E13
:1007A0001F4F083D1105B9F6D4CF40E062E08AE062
:1007B00058D69093210480932004892B41F440E083
:1007C00062E08AE04ED6909321048093200440E0BA
:1007D00062E08AE046D690931B0380931A03892B2C
:1007E00041F440E062E08AE03CD690931B038093A2
:1007F0001A0340E062E08AE034D690932C048093A0
:100800002B04892B41F440E062E08AE02AD69093E1
:100810002C0480932B0440E062E08AE022D690937F
:100820002E0480932D04892B41F440E062E08AE09D
:1008300018D690932E0480932D0408951092CD0025
:1008400087E68093CC001092C80086E08093CA00AF
:1008500088E18093C9000895E8ECF0E0908195FF6D
:10086000FDCF8093CE0008951F920F920FB60F9286
:1008700011240BB60F922F933F934F935F936F9377
:100880007F938F939F93AF93BF93EF93FF93809149
:10089000CE0080932A04E0DF81E090E09093B302E1
:1008A0008093B202FF91EF91BF91AF919F918F9191
:1008B0007F916F915F914F913F912F910F900BBE60
:1008C0000F900FBE0F901F901895CF93DF93EC0100
:1008D0008881882329F02196BFDF89918111FCCF7F
:1008E000DF91CF910895CF93DF93CDB7DEB76197B6
:1008F0000FB6F894DEBF0FBECDBFDC01CB014AE0DE
:10090000BE016F5F7F4F0E945515CE010196DDDF5E
:1009100061960FB6F894DEBF0FBECDBFDF91CF91C9
:100920000895CF93DF93CDB7DEB728970FB6F8942D
:10093000DEBF0FBECDBF20E040E050E0BE016D5FE6
:100940007F4F809120049091210449D6813099F7FE
:1009500020E040E050E0BE016F5F7F4F80911A03BE
:1009600090911B033CD6813031F720E040E050E00D
:10097000BE016B5F7F4F80912B0490912C042FD68A
:100980008130C9F620E040E050E0BE01695F7F4F52
:1009900080912D0490912E0422D6813061F687E05B
:1009A00092E093DF69817A81072E000C880B990B06
:1009B0009ADF8EE092E089DF6B817C81072E000C4C
:1009C000880B990B90DF89E192E07FDF6D817E815A
:1009D000072E000C880B990B86DF88E292E075DF0A
:1009E0006F817885072E000C880B990B7CDF8EE3D6
:1009F00092E06BDFA0CFE8E6F0E080818160808349
:100A0000EBE6F0E080818260808308951F920F9270
:100A10000FB60F9211240BB60F922F933F934F9363
:100A20005F936F937F938F939F93AF93BF93EF9356
:100A3000FF938091B1028823D1F18091B00281119E
:100A400010C081E08093B0021092AC021092AD020F
:100A50001092AE021092AF02109295001092940084
:100A600026C01092B0022091AC023091AD024091AC
:100A7000AE025091AF02E0919400F0919500AFEF7B
:100A8000BFEF0E941A146E0F7F1F811D911D24E776
:100A900030E040E050E00E94E1132093A802309340
:100AA000A9024093AA025093AB021092B102FF91A7
:100AB000EF91BF91AF919F918F917F916F915F91D6
:100AC0004F913F912F910F900BBE0F900FBE0F9043
:100AD0001F901895289885E08A95F1F70000289ACC
:100AE00081E08093B10285E38A95F1F700002898B0
:100AF0000895C1E0D0E08091B102811114C02FEFC0
:100B000080E792E0215080409040E1F700C0000073
:100B1000E1DF20E040E050E068EA72E080912004EC
:100B200090912104CAD4D0931F03C0931E03E3CF36
:100B3000E1E9F0E08081826080831092950010925C
:100B40009400E1E7F0E080818160808308951F9246
:100B50000F920FB60F9211240BB60F922F933F9363
:100B60004F935F936F937F938F939F93AF93BF93B5
:100B7000EF93FF938091B0028823E9F18091AC025A
:100B80009091AD02A091AE02B091AF020196A11D6D
:100B9000B11D8093AC029093AD02A093AE02B093CE
:100BA000AF022091AC023091AD024091AE02509163
:100BB000AF02E0919400F0919500AFEFBFEF0E947B
:100BC0001A14DC01CB018E0F9F1FA11DB11D8130B6
:100BD000944DA043B10578F01092B0021092B1028A
:100BE0008FEF9FEFDC018093A8029093A902A0935E
:100BF000AA02B093AB02FF91EF91BF91AF919F9189
:100C00008F917F916F915F914F913F912F910F90B5
:100C10000BBE0F900FBE0F901F901895269A82E37F
:100C20008093800082E18093810080E29EE4909333
:100C3000870080938600109285001092840080E0E7
:100C40009BE490938B0080938A00EFE6F0E0808134
:100C50008260808308951092B90088E48093B80080
:100C600084E08093BC000895EF92FF920F9343E0DD
:100C700060E081E0F6D390931D0380931C0320E095
:100C800040E050E060E070E018D48AB183608AB937
:100C9000209AD4DDB0DE4CDFC1DF789486DDDBDF67
:100CA00010921F0310921E03109229041092280420
:100CB000109223041092220498E288E10FB6F8946F
:100CC000A895809360000FBE9093600084E392E04B
:100CD000FCDDE12CF12C01E020E030E040E051E0CF
:100CE00061E472E089E795E086D720E030E040E0FB
:100CF00051E06EE472E089E993E07DD720E030E0D6
:100D000040E051E06AE572E086E197E074D720E0C8
:100D100030E040E051E06DE672E081E994E06BD7AD
:100D200002E020E030E040E051E068E772E085E773
:100D300093E061D70E940F0F80E090E00F91FF9049
:100D4000EF900895EF92FF920F931F93CF93DF934D
:100D5000ECEBF0E090819062908390819923ECF726
:100D60009091B900880F8F5F8093BB0084E88093D7
:100D7000BC00ECEBF0E080818823ECF78091B900B7
:100D80008091BB00DB018C9390E050E04150510911
:100D9000ECEBF0E00F2EF4ECFF2EF02D0F2EF4E82C
:100DA000EF2EF02D09EB10E0CBEBD0E0292F30E057
:100DB0002417350711F4E08201C0F0828081882376
:100DC000ECF7D8018C912881DB01A90FB11D2C9380
:100DD0009F5F803559F384E98093BC00DF91CF9108
:100DE0001F910F91FF90EF900895ECEBF0E0908150
:100DF0009062908390819923ECF7880F8093BB00D9
:100E000084E88093BC00ECEBF0E080818823ECF771
:100E10006093BB0084E88093BC00ECEBF0E0808141
:100E20008823ECF784E98093BC000895CF93DF9387
:100E300000D000D0CDB7DEB701E010E063EE80E473
:100E4000D4DF42E0BE016F5F7F4F80E47BDF6981CA
:100E500070E0762F66278A81682B80E090E00E9400
:100E6000F01222E538EB4FE253E40E947E1320E0BB
:100E700030E040E857E30E947E1326E636E64BE377
:100E800052E40E945A120E94BF127E836D8320E0BA
:100E900040E050E0BE016B5F7F4F80912B0490914A
:100EA0002C040BD365EE80E4A0DF42E0BE016F5F4F
:100EB0007F4F80E447DF298130E0322F22278A816B
:100EC000282BADE7B0E00E940B140E94F01220E046
:100ED00030E040E857E30E947E1320E030E040EC31
:100EE00050E40E945A120E94BF127C836B8320E060
:100EF00040E050E0BE016D5F7F4F80912D049091E6
:100F00002E04DBD2109323040093220497CF1F9268
:100F10000F920FB60F9211248F939F9395B180E497
:100F2000892785B99F918F910F900FBE0F901F90C9
:100F3000189531E1FC013083319722E2208331970B
:100F4000A3E3A08331976083319770833197108238
:100F500031971082319760E8608331971082319722
:100F6000108231971082319762E06083319763E09D
:100F70006083319764E06083319765E060833197E7
:100F800066E06083319767E06083319768E0608353
:100F9000319769E06083319760E1608331973083F6
:100FA000319732E13083319733E13083319734E147
:100FB0003083319735E13083319736E13083319793
:100FC00037E13083319738E13083319739E130832D
:100FD000319730E23083319731E23083319720838B
:100FE000319723E2208331974083319750833197A3
:100FF00026E22083319727E22083319728E220835D
:10100000319729E22083319720E32083319721E330
:1010100020838997089588EC90E090933004809322
:101020002F0490933204809331048DE487BD82E0D5
:1010300084BD85E085BDEEE6F0E08081826080833E
:10104000A0911803B0911903CD91CDBFDD91DEBF02
:10105000FF91EF91DF91CF91BF91AF919F918F91D0
:101060007F916F915F914F913F912F911F910F91C0
:10107000FF90EF90DF90CF90BF90AF909F908F90B8
:101080007F906F905F904F903F902F901F900F90A8
:101090000CBE0F900BBE0F900FBE0F90089581E015
:1010A00008950F920FB6F8940F920BB60F920CB6EC
:1010B0000F921F9211242F923F924F925F926F9244
:1010C0007F928F929F92AF92BF92CF92DF92EF92D8
:1010D000FF920F931F932F933F934F935F936F93C1
:1010E0007F938F939F93AF93BF93CF93DF93EF93B0
:1010F000FF93A0911803B09119030DB60D920EB68F
:101100000D920E948510A0911803B0911903CD9102
:10111000CDBFDD91DEBFFF91EF91DF91CF91BF9108
:10112000AF919F918F917F916F915F914F913F917F
:101130002F911F910F91FF90EF90DF90CF90BF9074
:10114000AF909F908F907F906F905F904F903F9067
:101150002F901F900F900CBE0F900BBE0F900FBEE4
:101160000F9008950F920FB6F8940F920BB60F924E
:101170000CB60F921F9211242F923F924F925F92C2
:101180006F927F928F929F92AF92BF92CF92DF9297
:10119000EF92FF920F931F932F933F934F935F9381
:1011A0006F937F938F939F93AF93BF93CF93DF936F
:1011B000EF93FF93A0911803B09119030DB60D9210
:1011C0000EB60D9213BE80913104909132040197B6
:1011D0009093320480933104892B49F49FD88091F5
:1011E0002F0490913004909332048093310445D6BB
:1011F00081118BD7A0911803B0911903CD91CDBF68
:10120000DD91DEBFFF91EF91DF91CF91BF91AF9163
:101210009F918F917F916F915F914F913F912F910E
:101220001F910F91FF90EF90DF90CF90BF90AF9004
:101230009F908F907F906F905F904F903F902F90F6
:101240001F900F900CBE0F900BBE0F900FBE0F9013
:10125000089588DF18950FB6F8940F92FC01928DCF
:101260000F900FBE81E0911180E008950F931F93BE
:10127000CF93DF93EC01042F1A8D4C8D41110CC0DC
:1012800088819981892B09F042C08A819B810E94C3
:1012900008121B821A8242C0011117C050E08C81D3
:1012A0009D810E9445152C8D8C819D81820F911D01
:1012B0009D838C832A813B818217930750F188811B
:1012C00099819D838C8380E029C050E08E819F812D
:1012D0000E9445158C8D90E09195819591092E8104
:1012E0003F81280F391F3F832E834881598124175E
:1012F000350730F42A813B81820F931F9F838E83B1
:10130000023049F4112349F0115080E007C080E019
:1013100005C080E003C080E001C080E01F5F1A8F3D
:10132000DF91CF911F910F910895FC01448D4423CB
:10133000A9F050E026813781240F351F378326839B
:10134000828193812817390720F0808191819783CA
:101350008683CB01668177810C9445150895EF92C1
:10136000FF920F931F93CF938C010FB6F8940F92B7
:10137000FC01C68D1C169CF48189811106C00FC02A
:10138000F8018189811105C00AC07801F1E1EF0EF1
:10139000F11CC7014CD78111D5D7C15089F78FEF08
:1013A000F801868F0F900FBE0FB6F8940F92C58D7F
:1013B0001C169CF48085811106C00FC0F801808541
:1013C000811105C00AC07801F8E0EF0EF11CC701D9
:1013D0002ED78111B7D7C15089F78FEFF801858FCC
:1013E0000F900FBECF911F910F91FF90EF90089536
:1013F000CF93DF93EC010FB6F8940F924881598197
:101400002C8D30E07B8D729FC001739F900D112455
:10141000FA01E80FF91FFB83EA831A8E5D834C8380
:10142000821B930B840F951F9F838E838FEF8D8F6D
:101430008E8F61110AC08885882369F0CE010896D5
:10144000F6D6882341F02DDE06C0CE010896C3D81B
:10145000CE014196C0D80F900FBE81E0DF91CF91B1
:1014600008950F931F93CF93DF93082F162F6623B2
:10147000B9F0869FC00111244F960E94AA01EC0189
:10148000009739F414C00B8F1C8F61E0CE01B0DFE0
:101490000EC04F9699838883F6CFD983C883F3CF44
:1014A0008FE190E00E94AA01EC01892BB1F7CE01F7
:1014B000DF91CF911F910F9108959F92AF92BF92AC
:1014C000CF92DF92EF92FF920F931F93CF93DF9310
:1014D00000D01F921F92CDB7DEB78C016B015D83E8
:1014E0004C83A22EB12C992493947C0188E0E80EC1
:1014F000F11C0FB6F8940F92F801928D838D981716
:1015000018F0F2E0AF1215C04A2DB601C801AEDEE8
:10151000F8019189992339F0C801419688D688232A
:1015200021F0BFDD02C08111BCDD0F900FBE81E054
:1015300045C08C819D81892B21F40F900FBE80E0E6
:101540003DC0B11004C0CE010196B9D6B92C0F90A0
:101550000FBE8DD40FB6F8940F92F801858D8F3F92
:1015600009F4158EF801868D8F3F09F4168E0F90C1
:101570000FBEBE016C5F7F4FCE010196ABD68111CD
:1015800019C00FB6F8940F92F801928D838D0F90C9
:101590000FBE98130BC06C817D81C70137D6C8017F
:1015A000DEDE25D58111A5CF7CDDA3CFC801D7DE36
:1015B0001ED59FCFC801D3DE1AD580E00F900F90C3
:1015C0000F900F900F90DF91CF911F910F91FF908F
:1015D000EF90DF90CF90BF90AF909F9008958F9243
:1015E0009F92AF92BF92CF92DF92EF92FF920F93B2
:1015F0001F93CF93DF9300D01F921F92CDB7DEB71A
:101600008C015B015D834C83822EE12C99249394A1
:101610006C0181E1C80ED11C0FB6F8940F92F8014D
:10162000F28CFF2061F1C680D780B501C8017DDE54
:10163000811016C0FA94F801F28E80819181892B75
:1016400021F426D7F80193838283F80180858823CB
:1016500091F0C8010896EBD5882369F022DD0BC014
:10166000F801D782C6828189882329F0C801419672
:10167000DED5811116DD0F900FBE81E051C08C8147
:101680009D81892B21F40F900FBE80E049C0E110AD
:1016900004C0CE01019613D6E92C0F900FBEE7D3FC
:1016A0000FB6F8940F92F801858D8F3F09F4158ECF
:1016B000F801868D8F3F09F4168E0F900FBEBE0184
:1016C0006C5F7F4FCE01019605D6811120C0C80105
:1016D000C2DD8823C1F0F80180819181892B41F41A
:1016E0000FB6F8940F928281938130D60F900FBE7F
:1016F0006C817D81C6018AD5C80131DE78D4811123
:101700008BCFCFDC89CFC8012ADE71D485CFC80149
:1017100026DE6DD4C8019FDD882309F47DCF80E0EB
:101720000F900F900F900F900F90DF91CF911F911E
:101730000F91FF90EF90DF90CF90BF90AF909F9070
:101740008F9008951F920F920FB60F9211240BB62F
:101750000F922F938F939F93AF93BF93EF93FF932A
:101760000FB6F8940F9280914004909141040F902D
:101770000FBE892B31F4E1ECF0E080818F7D808316
:101780001CC0E0E4F4E0A481B5812D91B583A4836D
:1017900080859185A817B90721F486819781958363
:1017A00084830FB6F8940F92808191810197918381
:1017B00080830F900FBE2093C600FF91EF91BF91E1
:1017C000AF919F918F912F910F900BBE0F900FBEF5
:1017D0000F901F9018951F920F920FB60F92112421
:1017E0000BB60F922F938F939F93AF93BF93EF936B
:1017F000FF930FB6F8940F928091A6049091A704DE
:101800000F900FBE892B31F4E9ECF0E080818F7DE1
:1018100080831CC0E6EAF4E0A481B5812D91B583F4
:10182000A48380859185A817B90721F486819781C3
:10183000958384830FB6F8940F92808191810197EC
:10184000918380830F900FBE2093CE00FF91EF9184
:10185000BF91AF919F918F912F910F900BBE0F90E1
:101860000FBE0F901F9018951F920F920FB60F92F8
:1018700011240BB60F922F933F934F938F939F9307
:10188000AF93BF93EF93FF938091D0008C7171F071
:101890008091D00088230CF036C0A6EDB0E0E0EDDA
:1018A000F0E08C9180818823E4F32DC04091D60034
:1018B0000FB6F8940F92E5E5F4E0218132810F90A4
:1018C0000FBE8385948528173907E9F0E6E5F4E033
:1018D000A281B3814C938281938101969383828309
:1018E000208531858217930721F486819781938320
:1018F00082830FB6F8940F92808191810196918333
:1019000080830F900FBEFF91EF91BF91AF919F9198
:101910008F914F913F912F910F900BBE0F900FBE63
:101920000F901F9018951F920F920FB60F921124CF
:101930000BB60F922F938F939F93AF93BF93EF9319
:10194000FF930FB6F8940F92809162049091630414
:101950000F900FBE892B31F4E1EDF0E080818F7D97
:1019600080831CC0E2E6F4E0A481B5812D91B583AB
:10197000A48380859185A817B90721F48681978172
:10198000958384830FB6F8940F928081918101979B
:10199000918380830F900FBE2093D600FF91EF912B
:1019A000BF91AF919F918F912F910F900BBE0F9090
:1019B0000FBE0F901F9018951F920F920FB60F92A7
:1019C00011240BB60F922F933F934F938F939F93B6
:1019D000AF93BF93EF93FF93809130018C7171F0BF
:1019E0008091300188230CF036C0A6E3B1E0E0E33B
:1019F000F1E08C9180818823E4F32DC04091360181
:101A00000FB6F8940F92E7E7F4E0218132810F904E
:101A10000FBE8385948528173907E9F0E8E7F4E0DD
:101A2000A281B3814C9382819381019693838283B7
:101A3000208531858217930721F4868197819383CE
:101A400082830FB6F8940F928081918101969183E1
:101A500080830F900FBEFF91EF91BF91AF919F9147
:101A60008F914F913F912F910F900BBE0F900FBE12
:101A70000F901F9018951F920F920FB60F9211247E
:101A80000BB60F922F938F939F93AF93BF93EF93C8
:101A9000FF930FB6F8940F9280918404909185047F
:101AA0000F900FBE892B31F4E1E3F1E080818F7D4F
:101AB00080831CC0E4E8F4E0A481B5812D91B58356
:101AC000A48380859185A817B90721F48681978121
:101AD000958384830FB6F8940F928081918101974A
:101AE000918380830F900FBE20933601FF91EF9179
:101AF000BF91AF919F918F912F910F900BBE0F903F
:101B00000FBE0F901F901895E091E002F091E10256
:101B10008081811107C08FEF9FEF9093B80280936F
:101B2000B7020895E091E002F091E1020580F681AC
:101B3000E02D0680F781E02D828193819093B80299
:101B40008093B7020895FF920F931F93CF93DF9373
:101B5000EC01F62E0091BF021091C0028091180393
:101B60009091190302960E944F03CF3F8FEFD80741
:101B700069F4FF2059F060911803709119036E5FAA
:101B80007F4F82EC92E00E94FD022FC0C00FD11F58
:101B9000E0911803F0911903D383C283C017D107D2
:101BA00068F460911803709119038091DE0290919E
:101BB000DF026E5F7F4F0E941E0317C06091180303
:101BC000709119038091E0029091E1026E5F7F4F66
:101BD0000E941E038091B7029091B802C817D907DE
:101BE00020F4D093B802C093B702DF91CF911F9138
:101BF0000F91FF9008954F925F926F927F928F9214
:101C00009F92AF92BF92CF92DF92EF92FF920F938B
:101C1000CF93DF934C016B015A012901CA010E9445
:101C2000AA013C01892B09F4E9C088E290E00E94F6
:101C3000AA01EC01892BA9F0788E6F8AA50165EACB
:101C400070E0C3012BD781E0A81AB1088F89988D65
:101C5000A80EB91ED6018C91898F8C91811105C077
:101C600018C0C3010E94BC01C9C0AE01465E5F4FEF
:101C7000F6013196B8E0CB0ED11CCF012191DA01EB
:101C80002D93AD01DC018C91882319F0EC15FD0535
:101C9000A1F718A2043008F003E00E8B09A31AA2E2
:101CA0006E01B2E0CB0ED11CC6010E94F902CE013A
:101CB0000C960E94F902D987C88784E090E0801BC7
:101CC00091099D878C87DB8BCA8B1BA21CA21DA24E
:101CD0001EA21FA2A201B401C5012BD9998388833A
:101CE000E114F10419F0F701D183C0830FB6F89421
:101CF0000F928091C1028F5F8093C102809118037F
:101D000090911903892BD1F5D0931903C09318032F
:101D10008091C102813009F041C084EF92E00E94BD
:101D2000EB028DEF92E00E94EB0286E093E00E94CE
:101D3000EB028FE093E00E94EB028BEE92E00E94B8
:101D4000EB0282EE92E00E94EB0285ED92E00E94AF
:101D5000EB028CEC92E00E94EB0282EC92E00E949B
:101D6000EB028BEE92E09093E1028093E00282EE30
:101D700092E09093DF028093DE0210C08091BD025A
:101D800081110CC0E0911803F091190396898E8996
:101D9000891720F0D0931903C09318038091B902DA
:101DA0008F5F8093B9028E899091BE02981710F4CC
:101DB0008093BE0290E09C01220F331F220F331F3D
:101DC000220F331F820F931FB6018C509D4F0E942C
:101DD000FD020F900FBE8091BD02882359F0E09163
:101DE0001803F091190396898E89981728F459D908
:101DF00081E005C081E003C081E001C08FEFDF9189
:101E0000CF910F91FF90EF90DF90CF90BF90AF9068
:101E10009F908F907F906F905F904F900895EF927A
:101E2000FF920F930F2EF5EBEF2EF2E0FF2EF02D29
:101E300000E020E030E045E550E067E872E083E351
:101E400091E0D9DE813079F4F8948FEF9FEF909391
:101E5000B8028093B70281E08093BD021092C00265
:101E60001092BF02D8D80F91FF90EF900895809103
:101E7000B4028F5F8093B4020895CF92DF92EF9205
:101E8000FF920F931F93CF93DF938091B402811140
:101E900098C0E090BF02F090C0028FEFE81AF80AF5
:101EA000F092C002E092BF02E114F104B1F480911B
:101EB000E0029091E1022091DE023091DF02309346
:101EC000E1022093E0029093DF028093DE02809192
:101ED000BA028F5F8093BA0217DE8091B7029091A9
:101EE000B802E816F90610F4D12C53C0D12CCC243A
:101EF000C394E091E002F091E1028081811107C07A
:101F00008FEF9FEF9093B8028093B70242C0E091A9
:101F1000E002F091E1020580F681E02DC681D781D3
:101F20008A819B81E816F90628F49093B802809381
:101F3000B7022FC08E010E5F1F4FC8010E944F03D2
:101F40008C899D89892B21F0CE010C960E944F032C
:101F50008E899091BE02981710F48093BE0290E093
:101F60009C01220F331F220F331F220F331F820FBA
:101F7000931FB8018C509D4F0E94FD02E091180301
:101F8000F09119039E898689981708F4B2CFDC2C4A
:101F9000B0CFE0911803F0911903868990E0FC011D
:101FA000EE0FFF1FEE0FFF1FEE0FFF1F8E0F9F1F85
:101FB000FC01EC50FD4F8081823048F0DD24D39449
:101FC00006C08091BC028F5F8093BC02D12C8091AF
:101FD000BB02882311F0DD24D3948D2DDF91CF91A6
:101FE0001F910F91FF90EF90DF90CF900895DF92B7
:101FF000EF92FF920F931F93CF93DF930FB6F89456
:102000000F928091B40281508093B4028091B40207
:1020100081115DC08091C102811133C05BC0D701C5
:102020001596ED91FC911697C681D781CE010C963D
:102030000E944F038E010E5F1F4FC8010E944F0385
:102040008E899091BE02981710F48093BE0290E0A2
:102050009C01220F331F220F331F220F331F820FC9
:10206000931FB8018C509D4F0E94FD02E091180310
:10207000F09119039E898689981768F0D092BB0267
:102080000AC0C0E0D0E00F2EF5EDEF2EF2E0FF2EFB
:10209000F02DDD24D394F70180818111C0CFCD2BA9
:1020A00009F032DDC091BC02CC2349F0D1E0E5DE7D
:1020B0008111D093BB02C150D1F71092BC02809124
:1020C000BB02882331F00E94510881E003C080E008
:1020D00001C080E00F900FBEDF91CF911F910F9153
:1020E000FF90EF90DF900895CF93DF93EC01892B61
:1020F00039F0BDDE60E0CE0126DD79DF811102C05E
:102100000E945108DF91CF9108958091B4028823F5
:1021100021F081E08093BB0208951092BB02A09150
:102120001803B0911903E0911803F09119032D9150
:102130003C918789908D8217930760F06091180316
:10214000709119038091180390911903675E7F4F76
:102150000E94EE012091BE02822F90E0FC01EE0F62
:10216000FF1FEE0FFF1FEE0FFF1FE80FF91FEC50D0
:10217000FD4F3081311111C02150822F90E0FC01C0
:10218000EE0FFF1FEE0FFF1FEE0FFF1FE80FF91FEF
:10219000EC50FD4F3081332379F3AC01440F551FD0
:1021A000440F551F440F551F480F591FDA01AC50FB
:1021B000BD4F1196ED91FC9112970280F381E02DB5
:1021C0001296FC93EE93119749505D4FE417F50773
:1021D00029F442815381FD0152834183FC01EE0FBA
:1021E000FF1FEE0FFF1FEE0FFF1F8E0F9F1FFC0143
:1021F000EC50FD4F0180F281E02D86819781909314
:102200001903809318032093BE020895CF93DF93A0
:10221000EB016091180370911903645F7F4F0E9476
:102220001E0361E0CE018FDCDF91CF9108950F9303
:102230001F93CF93DF93DC011596ED91FC911697D8
:10224000C681D7818E01045F1F4FC8010E944F03D2
:102250008091B40281111CC00A501109C8010E946A
:102260004F038E899091BE02981710F48093BE029E
:1022700090E09C01220F331F220F331F220F331FC8
:10228000820F931FB8018C509D4F0E94FD0205C024
:10229000B80185ED92E00E94FD02E0911803F091F3
:1022A00019039E898689891720F481E08093BB02F7
:1022B00001C080E0DF91CF911F910F91089520918F
:1022C000BA02FC0120832091BF023091C002328308
:1022D000218308950FB6F8940F924091BF02509158
:1022E000C002DB012D913C912F3FBFEF3B0711F165
:1022F000E091BA02DC01FC91FE1739F01196ED91E4
:10230000FC9112974E175F07B8F4DC011196ED911E
:10231000FC911297DA01AE1BBF0BA217B30770F442
:10232000DB01E41BF50B2E0F3F1F2D933C93C7DF02
:1023300080E005C080E003C081E001C081E00F9033
:102340000FBE089581E08093BB0208950F931F9301
:10235000CF93DF93FC01892B09F455C02689A09106
:102360001803B091190356968C91281708F04BC0AA
:1023700084859585992364F0A0911803B091190381
:1023800056963C9184E090E0831B91099587848761
:1023900030E0C901880F991F880F991F880F991F76
:1023A000280F391F2C503D4F828593858217930744
:1023B00019F58F01EF012296CE010E944F03E091A3
:1023C0001803F09119038689F801868B9091BE025B
:1023D000981710F48093BE0290E09C01220F331FE7
:1023E000220F331F220F331F820F931FBE018C5009
:1023F0009D4F0E94FD0207C0A0911803B0911903E0
:1024000056968C91868BDF91CF911F910F910895F5
:102410000F931F93CF93DF93FC01892B79F182A156
:10242000815082A3268991A1291751F181112AC0D7
:10243000EF018F010E5F1F4FC8010E944F0389A15A
:102440008E8B24E030E0281B31093D872C8790914A
:10245000BE02981710F48093BE0290E09C01220FF8
:10246000331F220F331F220F331F820F931FB80118
:102470008C509D4F0E94FD0281E005C080E003C0AA
:1024800080E001C080E0DF91CF911F910F9108950E
:102490008091180390911903892B39F0E09118036A
:1024A000F091190382A18F5F82A38091180390910C
:1024B000190308955058BB27AA270ED0E5C0D6D0DF
:1024C00030F0DBD020F031F49F3F11F41EF4CBC08C
:1024D0000EF4E095E7FBC1C0E92FE7D080F3BA170F
:1024E000620773078407950718F071F49EF5FFC023
:1024F0000EF4E0950B2EBA2FA02D0B01B90190011F
:102500000C01CA01A0011124FF27591B99F0593F62
:1025100050F4503E68F11A16F040A22F232F342FAA
:102520004427585FF3CF469537952795A795F040F8
:102530005395C9F77EF41F16BA0B620B730B840B0D
:10254000BAF09150A1F0FF0FBB1F661F771F881FC5
:10255000C2F70EC0BA0F621F731F841F48F487951D
:1025600077956795B795F7959E3F08F0B3CF93950C
:10257000880F08F09927EE0F97958795089504D056
:102580006894B111B5C0089598D088F09F5790F025
:10259000B92F9927B751A0F0D1F0660F771F881F88
:1025A000991F1AF0BA95C9F712C0B13081F09FD0C7
:1025B000B1E008959CC0672F782F8827B85F39F065
:1025C000B93FCCF3869577956795B395D9F73EF4E7
:1025D00090958095709561957F4F8F4F9F4F08958F
:1025E000E89409C097FB3EF49095809570956195AD
:1025F0007F4F8F4F9F4F9923A9F0F92F96E9BB2763
:102600009395F695879577956795B795F111F8CFDE
:10261000FAF4BB0F11F460FF1BC06F5F7F4F8F4F49
:102620009F4F16C0882311F096E911C0772321F03F
:102630009EE8872F762F05C0662371F096E8862FD7
:1026400070E060E02AF09A95660F771F881FDAF72E
:10265000880F9695879597F9089597F99F6780E871
:1026600070E060E008959FEF80EC089500240A94E4
:102670001616170618060906089500240A9412165D
:102680001306140605060895092E0394000C11F490
:10269000882352F0BB0F40F4BF2B11F460FF04C03D
:1026A0006F5F7F4F8F4F9F4F089557FD9058440F96
:1026B000551F59F05F3F71F04795880F97FB991FA1
:1026C00061F09F3F79F0879508951216130614065E
:1026D000551FF2CF4695F1DF08C0161617061806EB
:1026E000991FF1CF86957105610508940895E894C6
:1026F000BB2766277727CB0197F908950BD0C4CF66
:10270000B5DF28F0BADF18F0952309F0A6CFABCFDC
:102710001124EECFCADFA0F3959FD1F3950F50E0BF
:10272000551F629FF001729FBB27F00DB11D639F83
:10273000AA27F00DB11DAA1F649F6627B00DA11D29
:10274000661F829F2227B00DA11D621F739FB00DCF
:10275000A11D621F839FA00D611D221F749F33273F
:10276000A00D611D231F849F600D211D822F762FD8
:102770006A2F11249F5750408AF0E1F088234AF0D5
:10278000EE0FFF1FBB1F661F771F881F9150504021
:10279000A9F79E3F510570F060CFAACF5F3FECF3E1
:1027A000983EDCF3869577956795B795F795E7950D
:1027B0009F5FC1F7FE2B880F911D9695879597F91E
:1027C0000895A1E21A2EAA1BBB1BFD010DC0AA1F72
:1027D000BB1FEE1FFF1FA217B307E407F50720F08A
:1027E000A21BB30BE40BF50B661F771F881F991F05
:1027F0001A9469F760957095809590959B01AC014E
:10280000BD01CF010895EE0FFF1F881F8BBF0790FA
:10281000F691E02D1994A29FB001B39FC001A39F30
:10282000700D811D1124911DB29F700D811D112409
:10283000911D0895F0DFA59F900DB49F900DA49F6A
:10284000800D911D112408950F931F93CF93DF9353
:102850008230910510F482E090E0E091BD04F091A7
:10286000BE0420E030E0A0E0B0E0309719F14081F4
:1028700051810281138148175907C8F084179507C1
:1028800069F4109731F012960C93129713961C93DB
:1028900027C00093BD041093BE0422C0211531054A
:1028A00019F04217530718F49A01BD01EF01DF0137
:1028B000F801DBCF21153105F9F0281B390B243045
:1028C000310580F48A819B816115710521F0FB013E
:1028D0009383828304C09093BE048093BD04FE0161
:1028E000329644C0FE01E20FF31F81939193225070
:1028F0003109398328833AC02091BB043091BC044C
:10290000232B41F420910202309103023093BC0446
:102910002093BB0420910002309101022115310562
:1029200041F42DB73EB74091040250910502241B9B
:10293000350BE091BB04F091BC04E217F307A0F45F
:102940002E1B3F0B2817390778F0AC014E5F5F4F05
:102950002417350748F04E0F5F1F5093BC04409377
:10296000BB048193919302C0E0E0F0E0CF01DF91DE
:10297000CF911F910F910895CF93DF93009709F4A2
:1029800081C0FC01329713821282A091BD04B091E4
:10299000BE04109781F420813181820F931F209112
:1029A000BB043091BC042817390751F5F093BC04DF
:1029B000E093BB0467C0ED0120E030E0CE17DF07F5
:1029C00040F44A815B819E0141155105F1F0EA0115
:1029D000F5CFD383C28340815181840F951FC817DF
:1029E000D90759F488819981840F951F02969183A4
:1029F00080838A819B81938382832115310529F409
:102A0000F093BE04E093BD043DC0E901FB83EA837B
:102A100049915991C40FD51FEC17FD0761F48081CE
:102A20009181840F951F0296E901998388838281A1
:102A300093819B838A83E0E0F0E012968D919C91D4
:102A40001397009719F0FD01DC01F7CF8D919C9150
:102A500011979D012E5F3F4F820F931F2091BB0462
:102A60003091BC042817390769F4309729F4109283
:102A7000BE041092BD0402C013821282B093BC0443
:102A8000A093BB04DF91CF910895FB01DC0102C04C
:102A900001900D9241505040D8F70895DC0101C0DB
:102AA0006D9341505040E0F70895BB274A3031F410
:102AB000992322F4BDE2909581959F4F01C0BB27D9
:102AC000FB015527AA27880F991FAA1FA41710F0EA
:102AD000A41B83955051B9F7A05DAA3308F0A95DF6
:102AE000A193009779F7B111B1931192CB0100C076
:102AF000DC01FC01672F71917723E1F7329704C065
:102B00007C916D9370836291AE17BF07C8F30895EF
:042B1000F894FFCF67
:102B14000000C3042000F8686F656B3A2000206150
:102B2400667374616E643A20002074656D7065721A
:102B340061747575723A20002068756D69646974F2
:102B4400793A2000736574757020646F6E650A0DA0
:102B540000536F6E61722053656E736F720053651C
:102B640072766F204D6F746F720054656D7065726C
:102B740061747575722053656E736F72005072695B
:102B84006E74205461616B005761746368646F678D
:0C2B94002052657365740049444C4500F4
:00000001FF
