S00D00006F706472312E7372656331
S11300006DC100008CC100008AC1000088C10000DD
S113001086C1000084C1000082C1000080C10000CC
S11300207EC100007CC100007AC1000078C10000DC
S113003076C1000074C1000072C1000070C10000EC
S11300406EC100006CC100006AC1000068C10000FC
S113005066C10000C4C4000062C1000060C10000A9
S11300605EC1000039C7000096C7000058C10000F7
S113007056C1000054C1000052C1000050C100002C
S11300804EC100004CC100004AC1000048C100003C
S1130090CBC700000C94730842C1000095C1000056
S11300A03EC100003CC100003AC1000038C100005C
S11300B036C1000034C1000032C1000030C100006C
S11300C02EC100002CC100002AC100000C94BC0801
S11300D00C941B0924C100000C9464090C94C309FA
S11300E01EC100000302BE02BE02BE02BE02BE0268
S11300F0BE02BE020302BE02BE02BE02BE02BE02B7
S1130100BE02BE020502BE02BE02BE02BE02BE02A4
S1130110BE02BE022202BE02BE02BE02BE02BE0277
S1130120BE02BE020502BE02BE02BE02BE02BE0284
S1130130BE02BE022202BE02BE02BE02BE02BE0257
S1130140BE02BE02BA02BE02BE02BE02BE02BE02AF
S1130150BE02BE023602BE02BE02BE02BE02BE0223
S1130160BE02BE025902BE02BE02BE02BE02BE02F0
S1130170BE02BE022A02BE02BE02BE02BE02BE020F
S1130180BE02BE024802BE02BE02BE02BE02BE02E1
S1130190BE02BE029002BE02BE02BE02BE02BE0289
S11301A0BE02BE029002BE02BE02BE02BE02BE0279
S11301B0BE02BE028B02BE02BE02BE02BE02BE026E
S11301C0BE02BE028B02BE02BE02BE02BE02BE025E
S11301D0BE02BE029B02BE02BE02BE02BE02BE023E
S11301E0BE02BE02B002BE02BE02BE02BE02BE0219
S11301F0BE02BE029B02BE02BE02BE02BE02BE021E
S1130200BE02BE02B002BE02BE02BE02BE02BE02F8
S1130210BE02BE02B402BE02BE02BE02BE02BE02E4
S1130220BE02BE026102BE02BE02BE02BE02BE0227
S1130230BE02BE026102BE02BE02BE02BE02BE0217
S1130240BE02BE026302BE02BE02BE02BE02BE0205
S1130250BE02BE027302BE02BE02BE02BE02BE02E5
S1130260BE02BE02870204E512E00F2EFCE7EF2E69
S1130270F2E0FF2EF02D26C00E94080CD801CC918C
S11302800E94C80CCC23F1F00FB6F8940F92D80159
S11302901596ED91FC911697C681D781CE010296F1
S11302A0E7D18091490281508093490280915302A1
S11302B08150809353020F900FBE8F89988D5ED02A
S11302C0CE015CD0809153028111D6CFF701808199
S11302D0823008F0ABD20E944F10F4CF11241FBE1D
S11302E0CFEFD1E2DEBFCDBF00E00CBF12E0A0E053
S11302F0B2E0E2EDF3E200E00BBF02C007900D9222
S1130300A032B107D9F723E0A0E2B2E001C01D9208
S1130310A034B207E1F70E94ED0F0C94E71170CE00
S11303208F938FB78F93F8948091AA028F5F8093F5
S1130330AA028091AB028F4F8093AB028091AC02F2
S11303408F4F8093AC028091AD028F4F8093AD02AA
S11303508F918FBF8F910895CF93DF93EC010E940B
S1130360080CCE010E948510EC010E94C80C209755
S113037009F413D0CE01DF91CF910895CF93DF9389
S1130380009741F0EC010E94080CCE010E941D115F
S11303900E94C80CDF91CF910895279A2F9A83ED7C
S11303A090E30197F1F700C000001F9AF8CF279A55
S11303B02F9A2FE78AE196E0215080409040E1F7A0
S11303C000C000001F9AF5CF1F920F920FB60F9234
S11303D011240BB60F922F933F938F939F93AF9358
S11303E0BF93EF93FF93E091B9008E2F90E0FC014F
S11303F03897E13CF10508F0C1C08827EE58FF4F5B
S11304008F4F0C947D1010922002E0912002809175
S11304102302E81770F481E08E0F80932002F0E04D
S1130420EC5DFD4F80818093BB0085E88093BC0028
S1130430ACC08091210281608093210284E9809381
S1130440BC00A3C08091B9008093060285EE80931E
S1130450BC009BC0E091200281E08E0F80932002BB
S11304608091BB00F0E0EC5DFD4F80832091200281
S113047030E08091230290E001972817390724F493
S113048085EC8093BC0081C085E88093BC007DC06E
S11304908091BB00E0912002F0E0EC5DFD4F808391
S11304A08091210281608093210284ED8093BC00BD
S11304B06CC08091B9008093060285ED8093BC00E6
S11304C064C010922002E091200281E08E0F80939C
S11304D02002F0E0EC5DFD4F80818093BB0085EC51
S11304E08093BC0052C09091200280912302981303
S11304F006C08091210281608093210204C0809112
S1130500B9008093060284E08093BC003EC085EC71
S11305108093BC003AC080912102846080932102C0
S1130520809121028260809321021092200285EC46
S11305308093BC002AC0E091200281E08E0F80935A
S113054020028091BB00F0E0EC5DFD4F8083809140
S1130550210281608093210285EC8093BC0015C048
S113056085E88093BC0011C084E0809322028093CC
S1130570BC000BC085EE8093BC0007C08091B9001D
S11305808093060285ED8093BC00FF91EF91BF91AB
S1130590AF919F918F913F912F910F900BBE0F9030
S11305A00FBE0F901F901895FC01039692838183D0
S11305B02FEF3FEF3483238396838583908787834C
S11305C010820895FC01118610860895CF93DF935D
S11305D09C01FB01DC011196CD91DC911297D38330
S11305E0C2838C819D81958384838C819D81DC0170
S11305F013967C936E9312977D836C833187208747
S1130600F90180818F5F8083DF91CF910895CF932B
S1130610DF93EB01488159814F3F2FEF520721F4BB
S1130620FC01A781B0850DC0DC01139601C0DF0178
S11306301296ED91FC911397208131814217530753
S1130640B0F71296ED91FC911397FB83EA83D5835F
S1130650C483BD83AC831396DC93CE93129799879E
S11306608887FC0120812F5F2083DF91CF9108953B
S1130670CF93DF93FC01A085B185C281D3818481AE
S113068095819D838C83C481D581828193819B8351
S11306908A8311968D919C911297E817F90731F48A
S11306A08481958112969C938E931197118610865E
S11306B08C9181508C93DF91CF91089531E1FC01AD
S11306C03083319722E220833197A3E3A0833197CB
S11306D060833197708331971082319710823197FC
S11306E060E86083319710823197108231971082CD
S11306F0319762E06083319763E06083319764E00F
S11307006083319765E06083319766E06083319759
S113071067E06083319768E06083319769E06083C4
S1130720319760E1608331973083319732E13083D0
S1130730319733E13083319734E13083319735E1B8
S11307403083319736E13083319737E13083319705
S113075038E13083319739E13083319730E23083A7
S1130760319731E2308331972083319723E220831C
S11307703197408331975083319726E22083319714
S113078027E22083319728E22083319729E22083CE
S1130790319720E32083319721E3208389970895BB
S11307A088EC90E09093AF028093AE029093B102F4
S11307B08093B0028DE487BD82E084BD85E085BD71
S11307C0EEE6F0E0808182608083A091A002B09187
S11307D0A102CD91CDBFDD91DEBFFF91EF91DF91FD
S11307E0CF91BF91AF919F918F917F916F915F91C5
S11307F04F913F912F911F910F91FF90EF90DF90B8
S1130800CF90BF90AF909F908F907F906F905F90AC
S11308104F903F902F901F900F900CBE0F900BBEE7
S11308200F900FBE0F90089581E008950F920FB6B8
S1130830F8940F920BB60F920CB60F921F921124DC
S11308402F923F924F925F926F927F928F929F92DC
S1130850AF92BF92CF92DF92EF92FF920F931F93CA
S11308602F933F934F935F936F937F938F939F93B4
S1130870AF93BF93CF93DF93EF93FF93A091A00225
S1130880B091A1020DB60D920EB60D920E94450DC7
S1130890A091A002B091A102CD91CDBFDD91DEBFA8
S11308A0FF91EF91DF91CF91BF91AF919F918F9184
S11308B07F916F915F914F913F912F911F910F9174
S11308C0FF90EF90DF90CF90BF90AF909F908F906C
S11308D07F906F905F904F903F902F901F900F905C
S11308E00CBE0F900BBE0F900FBE0F9008950F9289
S11308F00FB6F8940F920BB60F920CB60F921F928C
S113090011242F923F924F925F926F927F928F9217
S11309109F92AF92BF92CF92DF92EF92FF920F938A
S11309201F932F933F934F935F936F937F938F9373
S11309309F93AF93BF93CF93DF93EF93FF93A091D4
S1130940A002B091A1020DB60D920EB60D9213BE87
S11309508091B0029091B10201979093B10280937B
S1130960B002892B49F4DCDC8091AE029091AF0295
S11309709093B1028093B00251D781110E94450D2A
S1130980A091A002B091A102CD91CDBFDD91DEBFB7
S1130990FF91EF91DF91CF91BF91AF919F918F9193
S11309A07F916F915F914F913F912F911F910F9183
S11309B0FF90EF90DF90CF90BF90AF909F908F907B
S11309C07F906F905F904F903F902F901F900F906B
S11309D00CBE0F900BBE0F900FBE0F90089587DFD3
S11309E018950FB6F8940F92FC01928D0F900FBEDC
S11309F081E0911180E008950F931F93CF93DF93CB
S1130A00EC01042F1A8D4C8D41110CC08881998101
S1130A10892B09F042C08A819B810E94140F1B829A
S1130A201A8242C0011117C050E08C819D810E943E
S1130A30A6112C8D8C819D81820F911D9D838C83A9
S1130A402A813B818217930750F1888199819D8384
S1130A508C8380E029C050E08E819F810E94A61182
S1130A608C8D90E09195819591092E813F81280F7D
S1130A70391F3F832E83488159812417350730F469
S1130A802A813B81820F931F9F838E83023049F416
S1130A90112349F0115080E007C080E005C080E0D8
S1130AA003C080E001C080E01F5F1A8FDF91CF9107
S1130AB01F910F910895FC01448D4423A9F050E047
S1130AC026813781240F351F3783268382819381C2
S1130AD02817390720F08081918197838683CB0181
S1130AE0668177810C94A6110895EF92FF920F937B
S1130AF01F93CF938C010FB6F8940F92FC01C68D0F
S1130B001C16ACF48189811106C011C0F8018189D9
S1130B10811105C00CC07801F1E1EF0EF11CC70191
S1130B200E94230E81110E94AE0EC15079F78FEFFF
S1130B30F801868F0F900FBE0FB6F8940F92C58DF3
S1130B401C16ACF48085811106C011C0F8018085A3
S1130B50811105C00CC07801F8E0EF0EF11CC7014B
S1130B600E94230E81110E94AE0EC15079F78FEFBF
S1130B70F801858F0F900FBECF911F910F91FF90B9
S1130B80EF900895CF93DF93EC010FB6F8940F9292
S1130B90488159812C8D30E07B8D729FC001739FF9
S1130BA0900D1124FA01E80FF91FFB83EA831A8ED2
S1130BB05D834C83821B930B840F951F9F838E83CD
S1130BC08FEF8D8F8E8F61110BC08885882371F014
S1130BD0CE0108960E94230E882341F027DE06C02A
S1130BE0CE010896E1DCCE014196DEDC0F900FBE0B
S1130BF081E0DF91CF9108950F931F93CF93DF93FB
S1130C00082F162F6623B1F0869FC00111244F963A
S1130C10A3DBEC01009739F413C00B8F1C8F61E048
S1130C20CE01B0DF0DC04F9699838883F6CFD98368
S1130C30C883F3CF8FE190E08FDBEC01892BB9F708
S1130C40CE01DF91CF911F910F9108959F92AF92A2
S1130C50BF92CF92DF92EF92FF920F931F93CF93A5
S1130C60DF9300D01F921F92CDB7DEB78C016B01CA
S1130C705D834C83A22EB12C992493947C0188E04B
S1130C80E80EF11C0FB6F8940F92F801928D838D43
S1130C90981718F0F2E0AF1215C04A2DB601C8013A
S1130CA0ABDEF8019189992339F0C8014196CBD77D
S1130CB0882321F0BBDD02C08111B8DD0F900FBE87
S1130CC081E045C08C819D81892B21F40F900FBE5A
S1130CD080E03DC0B11004C0CE010196FCD7B92C10
S1130CE00F900FBE95D50FB6F8940F92F801858D2D
S1130CF08F3F09F4158EF801868D8F3F09F4168E07
S1130D000F900FBEBE016C5F7F4FCE010196EED7F0
S1130D10811119C00FB6F8940F92F801928D838D4A
S1130D200F900FBE98130BC06C817D81C7017AD7D9
S1130D30C801DBDE2DD68111A5CF78DDA3CFC80194
S1130D40D4DE26D69FCFC801D0DE22D680E00F9015
S1130D500F900F900F900F90DF91CF911F910F91F3
S1130D60FF90EF90DF90CF90BF90AF909F90089549
S1130D708F929F92AF92BF92CF92DF92EF92FF92A7
S1130D800F931F93CF93DF9300D01F921F92CDB781
S1130D90DEB78C015B015D834C83822EE12C9924A8
S1130DA093946C0181E1C80ED11C0FB6F8940F9294
S1130DB0F801F28CFF2069F1C680D780B501C80123
S1130DC07ADE811017C0FA94F801F28E8081918145
S1130DD0892B29F40E94540FF80193838283F8012C
S1130DE08085882391F0C80108962DD7882369F05F
S1130DF01DDD0BC0F801D782C6828189882329F0C2
S1130E00C801419620D7811111DD0F900FBE81E0FA
S1130E1051C08C819D81892B21F40F900FBE80E0FD
S1130E2049C0E11004C0CE01019655D7E92C0F90BA
S1130E300FBEEED40FB6F8940F92F801858D8F3F54
S1130E4009F4158EF801868D8F3F09F4168E0F90E4
S1130E500FBEBE016C5F7F4FCE01019647D7811153
S1130E6020C0C801BEDD8823C1F0F80180819181D2
S1130E70892B41F40FB6F8940F928281938172D733
S1130E800F900FBE6C817D81C601CCD6C8012DDECA
S1130E907FD581118ACFCADC88CFC80126DE78D5F8
S1130EA084CFC80122DE74D5C8019BDD882309F4F0
S1130EB07CCF80E00F900F900F900F900F90DF91F8
S1130EC0CF911F910F91FF90EF90DF90CF90BF9043
S1130ED0AF909F908F9008951F920F920FB60F922C
S1130EE011240BB60F922F933F934F938F939F939D
S1130EF0AF93BF93EF93FF938091C0008C7171F017
S1130F008091C00088230CF036C0A6ECB0E0E0EC81
S1130F10F0E08C9180818823E4F32DC04091C600D9
S1130F200FB6F8940F92E2EBF2E0218132810F9038
S1130F300FBE8385948528173907E9F0E3EBF2E0C7
S1130F40A281B3814C93828193810196938382839E
S1130F50208531858217930721F4868197819383B5
S1130F6082830FB6F8940F928081918101969183C8
S1130F7080830F900FBEFF91EF91BF91AF919F912E
S1130F808F914F913F912F910F900BBE0F900FBEF9
S1130F900F901F9018951F920F920FB60F92112465
S1130FA00BB60F922F938F939F93AF93BF93EF93AF
S1130FB0FF930FB6F8940F928091BF029091C002F4
S1130FC00F900FBE892B31F4E1ECF0E080818F7D2E
S1130FD080831CC0EFEBF2E0A481B5812D91B58331
S1130FE0A48380859185A817B90721F48681978108
S1130FF0958384830FB6F8940F9280819181019731
S1131000918380830F900FBE2093C600FF91EF91D0
S1131010BF91AF919F918F912F910F900BBE0F9025
S11310200FBE0F901F9018951F920F920FB60F923C
S113103011240BB60F922F933F934F938F939F934B
S1131040AF93BF93EF93FF938091C8008C7171F0BD
S11310508091C80088230CF036C0AEECB0E0E8EC18
S1131060F0E08C9180818823E4F32DC04091CE0080
S11310700FB6F8940F92E8E1F3E0218132810F90EA
S11310800FBE8385948528173907E9F0E9E1F3E079
S1131090A281B3814C93828193810196938382834D
S11310A0208531858217930721F486819781938364
S11310B082830FB6F8940F92808191810196918377
S11310C080830F900FBEFF91EF91BF91AF919F91DD
S11310D08F914F913F912F910F900BBE0F900FBEA8
S11310E00F901F9018951F920F920FB60F92112414
S11310F00BB60F922F938F939F93AF93BF93EF935E
S1131100FF930FB6F8940F928091250390912603D4
S11311100F900FBE892B31F4E9ECF0E080818F7DD4
S113112080831CC0E5E2F3E0A481B5812D91B583F1
S1131130A48380859185A817B90721F486819781B6
S1131140958384830FB6F8940F92808191810197DF
S1131150918380830F900FBE2093CE00FF91EF9177
S1131160BF91AF919F918F912F910F900BBE0F90D4
S11311700FBE0F901F9018951F920F920FB60F92EB
S113118011240BB60F922F933F934F938F939F93FA
S1131190AF93BF93EF93FF938091D0008C7171F064
S11311A08091D00088230CF036C0A6EDB0E0E0EDCD
S11311B0F0E08C9180818823E4F32DC04091D60027
S11311C00FB6F8940F92E4EDF2E0218132810F9092
S11311D00FBE8385948528173907E9F0E5EDF2E021
S11311E0A281B3814C9382819381019693838283FC
S11311F0208531858217930721F486819781938313
S113120082830FB6F8940F92808191810196918325
S113121080830F900FBEFF91EF91BF91AF919F918B
S11312208F914F913F912F910F900BBE0F900FBE56
S11312300F901F9018951F920F920FB60F921124C2
S11312400BB60F922F938F939F93AF93BF93EF930C
S1131250FF930FB6F8940F928091E1029091E2020D
S11312600F900FBE892B31F4E1EDF0E080818F7D8A
S113127080831CC0E1EEF2E0A481B5812D91B58399
S1131280A48380859185A817B90721F48681978165
S1131290958384830FB6F8940F928081918101978E
S11312A0918380830F900FBE2093D600FF91EF911E
S11312B0BF91AF919F918F912F910F900BBE0F9083
S11312C00FBE0F901F9018951F920F920FB60F929A
S11312D011240BB60F922F933F934F938F939F93A9
S11312E0AF93BF93EF93FF93809130018C7171F0B2
S11312F08091300188230CF036C0A6E3B1E0E0E32E
S1131300F1E08C9180818823E4F32DC04091360173
S11313100FB6F8940F92E6EFF2E0218132810F903C
S11313200FBE8385948528173907E9F0E7EFF2E0CB
S1131330A281B3814C9382819381019693838283AA
S1131340208531858217930721F4868197819383C1
S113135082830FB6F8940F928081918101969183D4
S113136080830F900FBEFF91EF91BF91AF919F913A
S11313708F914F913F912F910F900BBE0F900FBE05
S11313800F901F9018951F920F920FB60F92112471
S11313900BB60F922F938F939F93AF93BF93EF93BB
S11313A0FF930FB6F8940F92809103039091040376
S11313B00F900FBE892B31F4E1E3F1E080818F7D42
S11313C080831CC0E3E0F3E0A481B5812D91B58353
S11313D0A48380859185A817B90721F48681978114
S11313E0958384830FB6F8940F928081918101973D
S11313F0918380830F900FBE20933601FF91EF916C
S1131400BF91AF919F918F912F910F900BBE0F9031
S11314100FBE0F901F901895E0916802F091690239
S11314208081811107C08FEF9FEF909340028093DA
S11314303F020895E0916802F09169020580F68107
S1131440E02D0680F781E02D828193819093400204
S113145080933F020895FF920F931F93CF93DF93DE
S1131460EC01F62E00914702109148028091A002EF
S11314709091A1020296FCD8CF3F8FEFD80761F478
S1131480FF2051F06091A0027091A1026E5F7F4F26
S11314908AE492E09BD82DC0C00FD11FE091A00236
S11314A0F091A102D383C283C017D10760F4609185
S11314B0A0027091A10280916602909167026E5F12
S11314C07F4FA5D816C06091A0027091A1028091AF
S11314D06802909169026E5F7F4F99D880913F02B4
S11314E090914002C817D90720F4D0934002C093CA
S11314F03F02DF91CF911F910F91FF9008954F927A
S11315005F926F927F928F929F92AF92BF92CF928F
S1131510DF92EF92FF920F93CF93DF934C016B0115
S11315205A012901CA010E94AC013C01892B09F42A
S1131530E7C088E290E00E94AC01EC01892BA9F09D
S1131540788E6F8AA50165EA70E0C30108D781E04F
S1131550A81AB1088F89988DA80EB91ED6018C914E
S1131560898F8C91811105C018C0C3010E94BE01EE
S1131570C7C0AE01465E5F4FF6013196B8E0CB0EB0
S1131580D11CCF012191DA012D93AD01DC018C91A5
S1131590882319F0EC15FD05A1F718A2043008F012
S11315A003E00E8B09A31AA26E01B2E0CB0ED11C8C
S11315B0C60108D8CE010C9605D8D987C88784E01F
S11315C090E0801B91099D878C87DB8BCA8B1BA2C3
S11315D01CA21DA21EA21FA2A201B401C5016ED8A5
S11315E099838883E114F10419F0F701D183C0834E
S11315F00FB6F8940F92809149028F5F809349024D
S11316008091A0029091A102892BD1F5D093A102DF
S1131610C093A00280914902813009F041C08CE757
S113162092E00E94D40285E892E00E94D4028EE8FF
S113163092E00E94D40287E992E00E94D40283E7F8
S113164092E00E94D4028AE692E00E94D4028DE5E0
S113165092E00E94D40284E592E00E94D4028AE4DB
S113166092E00E94D40283E792E09093690280930F
S113167068028AE692E0909367028093660210C043
S11316808091450281110CC0E091A002F091A10269
S113169096898E89891720F0D093A102C093A00265
S11316A0809141028F5F809341028E89909146021E
S11316B0981710F48093460290E09C01220F331F88
S11316C0220F331F220F331F820F931FB60184583A
S11316D09D4F0E94E6020F900FBE80914502882321
S11316E059F0E091A002F091A10296898E89981791
S11316F028F49CD881E005C081E003C081E001C0EA
S11317008FEFDF91CF910F91FF90EF90DF90CF900B
S1131710BF90AF909F908F907F906F905F904F900D
S113172008950F931F93CF93DF93009709F442C05A
S11317302091A0023091A1028217930709F43AC0C4
S11317400FB6F8940F92FC01228533852A54324057
S113175079F5FC0124893589F2E02D353F0741F103
S1131760232B31F5EC018C010E5F1F4FC8010E9441
S113177038038E8990914602981710F4809346029C
S113178090E09C01220F331F220F331F220F331FBF
S1131790820F931FB80184589D4F0E94E602E09186
S11317A0A002F091A1029E898689981708F03ED87C
S11317B00F900FBEDF91CF911F910F910895EF927B
S11317C0FF920F930F2EFDE3EF2EF2E0FF2EF02D8C
S11317D000E020E030E045E550E067E072E083E3BC
S11317E091E08DDE813081F4F8948FEF9FEF909338
S11317F0400280933F0281E08093450210924802A8
S1131800109247020E94D0030F91FF90EF90089529
S113181080913C028F5F80933C020895CF92DF92C7
S1131820EF92FF920F931F93CF93DF9380913C022B
S1131830811198C0E0904702F09048028FEFE81AB7
S1131840F80AF0924802E0924702E114F104B1F47C
S1131850809168029091690220916602309167023A
S11318603093690220936802909367028093660222
S1131870809142028F5F80934202CEDD80913F02CD
S113188090914002E816F90610F4D12C53C0D12CE3
S1131890CC24C394E0916802F091690280818111A3
S11318A007C08FEF9FEF9093400280933F0242C0A6
S11318B0E0916802F09169020580F681E02DC6810D
S11318C0D7818A819B81E816F90628F49093400217
S11318D080933F022FC08E010E5F1F4FC8010E94EC
S11318E038038C899D89892B21F0CE010C960E94A6
S11318F038038E8990914602981710F4809346021B
S113190090E09C01220F331F220F331F220F331F3D
S1131910820F931FB80184589D4F0E94E602E09104
S1131920A002F091A1029E898689981708F4B2CF8B
S1131930DC2CB0CFE091A002F091A102868990E066
S1131940FC01EE0FFF1FEE0FFF1FEE0FFF1F8E0FA8
S11319509F1FFC01E458FD4F8081823048F0DD2454
S1131960D39406C0809144028F5F80934402D12CAB
S113197080914302882311F0DD24D3948D2DDF91CF
S1131980CF911F910F91FF90EF90DF90CF9008952A
S1131990DF92EF92FF920F931F93CF93DF930FB6D3
S11319A0F8940F9280913C02815080933C02809184
S11319B03C0281115DC080914902811133C05BC03A
S11319C0D7011596ED91FC911697C681D781CE016A
S11319D00C960E9438038E010E5F1F4FC8010E94AF
S11319E038038E8990914602981710F4809346022A
S11319F090E09C01220F331F220F331F220F331F4D
S1131A00820F931FB80184589D4F0E94E602E09113
S1131A10A002F091A1029E898689981768F0D0925D
S1131A2043020AC0C0E0D0E00F2EFDE5EF2EF2E045
S1131A30FF2EF02DDD24D394F70180818111C0CFD6
S1131A40CD2B09F0E9DCC0914402CC2349F0D1E06C
S1131A50E5DE8111D0934302C150D1F710924402C4
S1131A6080914302882331F00E94160481E003C070
S1131A7080E001C080E00F900FBEDF91CF911F91F5
S1131A800F91FF90EF90DF90089580913C0288239E
S1131A9021F081E080934302089510924302A091C3
S1131AA0A002B091A102E091A002F091A1022D91B7
S1131AB03C918789908D8217930760F06091A00212
S1131AC07091A1028091A0029091A102675E7F4F64
S1131AD00E94D70120914602822F90E0FC01EE0F74
S1131AE0FF1FEE0FFF1FEE0FFF1FE80FF91FE45853
S1131AF0FD4F3081311111C02150822F90E0FC0143
S1131B00EE0FFF1FEE0FFF1FEE0FFF1FE80FF91F71
S1131B10E458FD4F3081332379F3AC01440F551F52
S1131B20440F551F440F551F480F591FDA01A4587D
S1131B30BD4F1196ED91FC9112970280F381E02D37
S1131B401296FC93EE93119741585D4FE417F507F5
S1131B5029F442815381FD0152834183FC01EE0F3C
S1131B60FF1FEE0FFF1FEE0FFF1F8E0F9F1FFC01C5
S1131B70E458FD4F0180F281E02D86819781909396
S1131B80A1028093A0022093460208950F931F930D
S1131B90CF93DF93EC010FB6F8940F92892B21F4C5
S1131BA0C091A002D091A1028E010E5F1F4FC80107
S1131BB00E9438038C899D89892B21F0CE010C96D3
S1131BC00E943803B8018AE492E00E94E6020F9072
S1131BD00FBE80914502882331F00FB6F8940F921E
S1131BE01BDC0F900FBE8091A0029091A102C81738
S1131BF0D90799F480914502882319F00E941604AC
S1131C000CC08091490290914A02981305C0109229
S1131C10A1021092A00201C038DFDF91CF911F9181
S1131C200F910895CF93DF93EB016091A00270911F
S1131C30A102645F7F4F0E94070361E0CE010BDCC9
S1131C40DF91CF9108950F931F93CF93DF93DC011E
S1131C501596ED91FC911697C681D7818E01045F8C
S1131C601F4FC8010E94380380913C0281111CC09F
S1131C700A501109C8010E9438038E8990914602C6
S1131C80981710F48093460290E09C01220F331FB2
S1131C90220F331F220F331F820F931FB801845862
S1131CA09D4F0E94E60205C0B8018DE592E00E94B6
S1131CB0E602E091A002F091A1029E89868989172B
S1131CC020F481E08093430201C080E0DF91CF9152
S1131CD01F910F91089520914202FC0120832091CD
S1131CE04702309148023283218308950FB6F89455
S1131CF00F924091470250914802DB012D913C9193
S1131D002F3FBFEF3B0711F1E0914202DC01FC9150
S1131D10FE1739F01196ED91FC9112974E175F075B
S1131D20B8F4DC011196ED91FC911297DA01AE1B27
S1131D30BF0BA217B30770F4DB01E41BF50B2E0FE6
S1131D403F1F2D933C93C7DF80E005C080E003C0B4
S1131D5081E001C081E00F900FBE089581E080937F
S1131D60430208950F931F93CF93DF93FC01892BB4
S1131D7009F455C02689A091A002B091A1025696FB
S1131D808C91281708F04BC084859585992364F0BD
S1131D90A091A002B091A10256963C9184E090E0FB
S1131DA0831B91099587848730E0C901880F991FA7
S1131DB0880F991F880F991F280F391F24583D4FEA
S1131DC0828593858217930719F58F01EF01229677
S1131DD0CE010E943803E091A002F091A10286890D
S1131DE0F801868B90914602981710F4809346026E
S1131DF090E09C01220F331F220F331F220F331F49
S1131E00820F931FBE0184589D4F0E94E60207C0B3
S1131E10A091A002B091A10256968C91868BDF917D
S1131E20CF911F910F9108950F931F93CF93DF9339
S1131E30FC01892B79F182A1815082A3268991A189
S1131E40291751F181112AC0EF018F010E5F1F4F35
S1131E50C8010E94380389A18E8B24E030E0281B3E
S1131E6031093D872C8790914602981710F480938E
S1131E70460290E09C01220F331F220F331F220FD2
S1131E80331F820F931FB80184589D4F0E94E602AE
S1131E9081E005C080E003C080E001C080E0DF9104
S1131EA0CF911F910F9108958091A0029091A1026A
S1131EB0892B39F0E091A002F091A10282A18F5FF9
S1131EC082A38091A0029091A1020895C2EAD2E077
S1131ED00F2EF0EACF2EF6E8DF2EEE24E394F12C59
S1131EE0F02D20E04FEF5FEF60E070E080913A0367
S1131EF090913B030E94B806888199810197092E2D
S1131F00000CAA0BBB0B8093A2029093A302A09394
S1131F10A402B093A50220E040E050E060E070E04D
S1131F2080913A0390913B030E94260681E0C81AEF
S1131F30D108E108F108A9F68091A6029091A702C0
S1131F4025DEC6CFC2EAD2E00F2EF0EACF2EF6E8A5
S1131F50DF2EEE24E394F12CF02D20E04FEF5FEF21
S1131F6060E070E080913A0390913B030E94B806D0
S1131F70888199810196092E000CAA0BBB0B8093D2
S1131F80A2029093A302A093A402B093A50220E01E
S1131F9040E050E060E070E080913A0390913B03B0
S1131FA00E94260681E0C81AD108E108F108A9F6C2
S1131FB08091A8029091A902E9DDC6CF1092C000D9
S1131FC088E18093C10086E08093C20087E690E0B8
S1131FD09093C5008093C4000895EF92FF920F93ED
S1131FE0EDDF43E060E081E00E94FC0590933B0359
S1131FF080933A030F2EF8EAEF2EF2E0FF2EF02D35
S113200003E020E030E040E051E06CE072E082EA7E
S11320109FE075DAE090A602F090A70220E030E09D
S113202040E051E064E172E086E69FE068DAC7DBF5
S113203080E090E00F91FF90EF900895E0ECF0E0E5
S1132040908195FFFDCF8093C6000895CF93DF93D1
S1132050EC018881882329F02196F0DF8991811190
S1132060FCCFDF91CF910895CF93DF93CDB7DEB747
S113207068970FB6F894DEBF0FBECDBF2AE0AE015D
S11320804F5F5F4F73D1CE010196E0DF68960FB6C4
S1132090F894DEBF0FBECDBFDF91CF91089584E0E9
S11320A080930A01CBE0D1E014E06091A202709128
S11320B0A3028091A4029091A502D6DF8CE192E064
S11320C0C5DF24E130E08881812788834FEF83EDE9
S11320D090E3415080409040E1F700C0000021505F
S11320E0310989F78091A6029091A7021ADB8091A9
S11320F0A8029091A90215DBD8CFEE0FFF1F881F0D
S11321008BBF0790F691E02D19940F931F93CF93F3
S1132110DF938230910510F482E090E0E0913E0379
S1132120F0913F0320E030E0A0E0B0E0309719F1F7
S1132130408151810281138148175907C8F08417DF
S1132140950769F4109731F012960C931297139631
S11321501C9327C000933E0310933F0322C0211514
S1132160310519F04217530718F49A01BD01EF0124
S1132170DF01F801DBCF21153105F9F0281B390BFC
S11321802430310580F48A819B816115710521F029
S1132190FB019383828304C090933F0380933E03A7
S11321A0FE01329644C0FE01E20FF31F8193919326
S11321B022503109398328833AC020913C0330915D
S11321C03D03232B41F4209102023091030230930A
S11321D03D0320933C03209100023091010221151C
S11321E0310541F42DB73EB74091040250910502E8
S11321F0241B350BE0913C03F0913D03E217F307F8
S1132200A0F42E1B3F0B2817390778F0AC014E5F62
S11322105F4F2417350748F04E0F5F1F50933D035F
S113222040933C038193919302C0E0E0F0E0CF013E
S1132230DF91CF911F910F910895CF93DF93009772
S113224009F481C0FC01329713821282A0913E03EB
S1132250B0913F03109781F420813181820F931F45
S113226020913C0330913D032817390751F5F09331
S11322703D03E0933C0367C0ED0120E030E0CE175E
S1132280DF0740F44A815B819E0141155105F1F05D
S1132290EA01F5CFD383C28340815181840F951F16
S11322A0C817D90759F488819981840F951F02961C
S11322B0918380838A819B81938382832115310555
S11322C029F4F0933F03E0933E033DC0E901FB830F
S11322D0EA8349915991C40FD51FEC17FD0761F4A6
S11322E080819181840F951F0296E90199838883E7
S11322F0828193819B838A83E0E0F0E012968D9142
S11323009C911397009719F0FD01DC01F7CF8D9193
S11323109C9111979D012E5F3F4F820F931F209137
S11323203C0330913D032817390769F4309729F4A9
S113233010923F0310923E0302C013821282B093A4
S11323403D03A0933C03DF91CF910895FB01DC0191
S113235002C001900D9241505040D8F70895DC011D
S113236001C06D9341505040E0F70895BB27FA0136
S1132370A62F6217710581059105330B30FB66F0BA
S1132380AA27660F771F881F991FAA1FA21710F08C
S1132390A21B63953850A9F7A05DAA3308F0A95D84
S11323A0A19336F7B111B1931082CA0100C0DC01C8
S11323B0FC01672F71917723E1F7329704C07C9178
S11323C06D9370836291AE17BF07C8F30895F894B4
S10523D0FFCF39
S11323D2000040032000F849444C450056657268E9
S11323E26F6F67005665726C616167000A0D0000C9
S9030000FC
