S024000054656D70657261747575725F6C75636874766F6368746967686569642E7372656355
S11300006CC100008AC1000088C1000086C10000E4
S113001084C1000082C1000080C100007EC10000D4
S11300207CC1000075C4000078C1000076C10000E6
S113003074C1000072C1000070C100006EC10000F4
S11300406CC10000C6C6000068C1000066C10000A3
S113005064C100000C948B0860C100005EC1000004
S11300605CC1000019C400000C94050B56C10000CB
S113007054C1000052C1000050C100004EC1000034
S11300804CC100004AC1000048C10000F2C4000095
S11300900C944E0B0C94AD0B40C10000ACC100009D
S11300A03CC100003AC1000038C1000036C1000064
S11300B034C1000032C1000030C100002EC1000074
S11300C02CC100002AC1000028C100000C94F60BCA
S11300D00C94550C22C100000C949E0C0C94FD0C45
S11300E01CC100001A02D502D502D502D502D502E0
S11300F0D502D5021A02D502D502D502D502D502FF
S1130100D502D5021C02D502D502D502D502D502EC
S1130110D502D5023902D502D502D502D502D502BF
S1130120D502D5021C02D502D502D502D502D502CC
S1130130D502D5023902D502D502D502D502D5029F
S1130140D502D502D102D502D502D502D502D502F7
S1130150D502D5024D02D502D502D502D502D5026B
S1130160D502D5027002D502D502D502D502D50238
S1130170D502D5024102D502D502D502D502D50257
S1130180D502D5025F02D502D502D502D502D50229
S1130190D502D502A702D502D502D502D502D502D1
S11301A0D502D502A702D502D502D502D502D502C1
S11301B0D502D502A202D502D502D502D502D502B6
S11301C0D502D502A202D502D502D502D502D502A6
S11301D0D502D502B202D502D502D502D502D50286
S11301E0D502D502C702D502D502D502D502D50261
S11301F0D502D502B202D502D502D502D502D50266
S1130200D502D502C702D502D502D502D502D50240
S1130210D502D502CB02D502D502D502D502D5022C
S1130220D502D5027802D502D502D502D502D5026F
S1130230D502D5027802D502D502D502D502D5025F
S1130240D502D5027A02D502D502D502D502D5024D
S1130250D502D5028A02D502D502D502D502D5022D
S1130260D502D5029E0202EC12E00F2EFAEEEF2E1A
S1130270F2E0FF2EF02D26C00E94F90ED801CC9199
S11302800E94B90FCC23F1F00FB6F8940F92D80165
S11302901596ED91FC911697C681D781CE010296F1
S11302A0FED18091B70281508093B7028091C10240
S11302B081508093C1020F900FBE8F89988D5CD0BE
S11302C0CE015AD08091C1028111D6CFF70180812D
S11302D0823008F048D65FD0F5CF11241FBECFEF8F
S11302E0D1E2DEBFCDBF00E00CBF12E0A0E0B2E07F
S11302F0E6E7FAE200E00BBF02C007900D92A238D5
S1130300B107D9F724E0A2E8B2E001C01D92A33BF3
S1130310B207E1F73BD40C94391572CE8F938FB7A3
S11303208F93F8948091AF048F5F8093AF04809192
S1130330B0048F4F8093B0048091B1048F4F8093A9
S1130340B1048091B2048F4F8093B2048F918FBF18
S11303508F910895CF93DF93EC010E94F90ECE01A3
S11303600E94D513EC010E94B90F209709F42CD0F8
S1130370CE01DF91CF910895CF93DF93009741F0A1
S1130380EC010E94F90ECE010E946D140E94B90F77
S1130390DF91CF9108958FEF80937E0080937D004D
S11303A080B7877F80BF80B7806880BF83B7817F35
S11303B083BF0FB6F8940F9283B7816083BF0F9009
S11303C00FBE889513BE0895279A2F9A83ED90E364
S11303D00197F1F700C000001F9AF8CF279A2F9ACF
S11303E02FE78AE196E0215080409040E1F700C079
S11303F000001F9AF5CF1F920F920FB60F9211248F
S11304000BB60F922F933F938F939F93AF93BF930A
S1130410EF93FF93E091B9008E2F90E0FC013897A1
S1130420E13CF10508F0C1C08827EE58FF4F8F4F1B
S11304300C94B41310928202E0918202809185029E
S1130440E81770F481E08E0F80938202F0E0EA579F
S1130450FD4F80818093BB0085E88093BC00ACC0D5
S11304608091830281608093830284E98093BC003D
S1130470A3C08091B9008093060285EE8093BC00EE
S11304809BC0E091820281E08E0F80938202809172
S1130490BB00F0E0EA57FD4F80832091820230E0F8
S11304A08091850290E001972817390724F485ECA0
S11304B08093BC0081C085E88093BC007DC080919E
S11304C0BB00E0918202F0E0EA57FD4F8083809107
S11304D0830281608093830284ED8093BC006CC0AE
S11304E08091B9008093060285ED8093BC0064C0BE
S11304F010928202E091820281E08E0F8093820248
S1130500F0E0EA57FD4F80818093BB0085EC809337
S1130510BC0052C09091820280918502981306C05B
S11305208091830281608093830204C08091B9002A
S11305308093060284E08093BC003EC085EC8093E7
S1130540BC003AC0809183028460809383028091CE
S113055083028260809383021092820285EC8093EE
S1130560BC002AC0E091820281E08E0F8093820257
S11305708091BB00F0E0EA57FD4F808380918302B5
S113058081608093830285EC8093BC0015C085E86C
S11305908093BC0011C084E0809384028093BC00EB
S11305A00BC085EE8093BC0007C08091B900809396
S11305B0060285ED8093BC00FF91EF91BF91AF914E
S11305C09F918F913F912F910F900BBE0F900FBE73
S11305D00F901F901895FC010396928381832FEF4F
S11305E03FEF3483238396838583908787831082A8
S11305F00895FC01118610860895CF93DF939C0122
S1130600FB01DC011196CD91DC911297D383C28357
S11306108C819D81958384838C819D81DC011396DB
S11306207C936E9312977D836C8331872087F901C5
S113063080818F5F8083DF91CF910895CF93DF9383
S1130640EB01488159814F3F2FEF520721F4FC0100
S1130650A781B0850DC0DC01139601C0DF0112969D
S1130660ED91FC9113972081318142175307B0F724
S11306701296ED91FC911397FB83EA83D583C4838F
S1130680BD83AC831396DC93CE93129799878887A6
S1130690FC0120812F5F2083DF91CF910895CF93B8
S11306A0DF93FC01A085B185C281D38184819581CA
S11306B09D838C83C481D581828193819B838A832A
S11306C011968D919C911297E817F90731F4848162
S11306D0958112969C938E931197118610868C9116
S11306E081508C93DF91CF91089540E062E08AE0DD
S11306F01CD690931B0480931A04892B41F440E088
S113070062E08AE012D690931B0480931A0440E0BE
S113071062E08AE00AD69093190480931804892B26
S113072041F440E062E08AE000D69093190480939B
S1130730180408951092C50087E68093C4001092AF
S1130740C00086E08093C20088E18093C1000895D0
S1130750E0ECF0E0908195FFFDCF8093C600089512
S1130760CF93DF93EC018881882329F02196F0DF71
S113077089918111FCCFDF91CF910895CF93DF93BD
S1130780CDB7DEB761970FB6F894DEBF0FBECDBF0D
S1130790DC01CB014AE0BE016F5F7F4F0E9406156A
S11307A0CE010196DDDF61960FB6F894DEBF0FBE71
S11307B0CDBFDF91CF9108950AE810E0C0E0D0E00A
S11307C020E04FEF5FEF60E070E0809110039091C4
S11307D0110368D6D0931704C0931604CE01992749
S11307E022273327281B390B220F331F220F331FD5
S11307F0220F331F820F931F955BF801918380832F
S1130800FFEF29E688E1F15020408040E1F700C085
S1130810000081E292E0A4DF609116047091170455
S1130820072E000C880B990BA9DF88E292E098DF71
S113083060911D0470911E04072E000C880B990B07
S11308409DDF83E392E08CDF6091120470911304C6
S1130850072E000C880B990B91DF82E492E080DF75
S11308606091140470911504072E000C880B990BE9
S113087085DF8EE492E074DF20E040E050E060E049
S113088070E080911003909111037AD56B96C33F69
S1130890D10509F095CF92CF1F920F920FB60F9208
S11308A011240BB60F922F933F934F935F936F9343
S11308B07F938F939F93AF93BF93EF93FF93809115
S11308C0C60080931C0444DF81E090E09093A90269
S11308D08093A802FF91EF91BF91AF919F918F9167
S11308E07F916F915F914F913F912F910F900BBE2C
S11308F00F900FBE0F901F901895E8E6F0E08081EE
S113090081608083EBE6F0E08081826080830895DB
S11309101F920F920FB60F9211240BB60F922F93C2
S11309203F934F935F936F937F938F939F93AF9373
S1130930BF93EF93FF938091A7028823D1F1809115
S1130940A602811110C081E08093A6021092A20237
S11309501092A3021092A4021092A5021092950084
S11309601092940026C01092A6022091A202309107
S1130970A3024091A4025091A502E0919400F09149
S11309809500AFEFBFEF0E94CB136E0F7F1F811D49
S1130990911D24E730E040E050E00E949213209340
S11309A09E0230939F024093A0025093A1021092A2
S11309B0A702FF91EF91BF91AF919F918F917F918A
S11309C06F915F914F913F912F910F900BBE0F90BC
S11309D00FBE0F901F901895289885E08A95F1F71F
S11309E00000289A81E08093A70285E38A95F1F7B5
S11309F00000289808958091A7028111FCCF20E07F
S1130A004FEF5FEF60E070E080911003909111036D
S1130A1049D52FEF80E792E0215080409040E1F7E4
S1130A2000C00000D9DF80919E0290919F02A091A6
S1130A30A002B091A10290931E0480931D0420E0B3
S1130A4040E050E060E070E0809110039091110369
S1130A5097D4D1CFE1E9F0E0808182608083109265
S1130A60950010929400E1E7F0E08081816080833A
S1130A7008951F920F920FB60F9211240BB60F9286
S1130A802F933F934F935F936F937F938F939F9392
S1130A90AF93BF93EF93FF938091A6028823E9F16C
S1130AA08091A2029091A302A091A402B091A50208
S1130AB00196A11DB11D8093A2029093A302A0935D
S1130AC0A402B093A5022091A2023091A302409106
S1130AD0A4025091A502E0919400F0919500AFEF2B
S1130AE0BFEF0E94CB13DC01CB018E0F9F1FA11D12
S1130AF0B11D8130944DA043B10578F01092A60247
S1130B001092A7028FEF9FEFDC0180939E029093D7
S1130B109F02A093A002B093A102FF91EF91BF9115
S1130B20AF919F918F917F916F915F914F913F9181
S1130B302F910F900BBE0F900FBE0F901F90189522
S1130B40269A82E38093800082E18093810080E290
S1130B509EE4909387008093860010928500109203
S1130B60840080E09BE490938B0080938A00EFE6FE
S1130B70F0E080818260808308951092B90088E457
S1130B808093B80084E08093BC000895EF92FF92B4
S1130B900F9343E060E081E0C8D390931103809306
S1130BA0100320E040E050E060E070E0E9D38AB157
S1130BB083608AB9209ABEDDA0DE4CDFC1DF789461
S1130BC094DDDBDFE12CF12C03E020E030E040E0B9
S1130BD051E061E572E08BEF94E0CFD720E030E0A4
S1130BE040E051E06EE572E08CED93E0C6D720E082
S1130BF030E040E051E06AE672E08CE796E0BDD771
S1130C000E94D10E80E090E00F91FF90EF90089544
S1130C10EF92FF920F931F93CF93DF93ECEBF0E0EF
S1130C2090819062908390819923ECF79091B90020
S1130C30880F8F5F8093BB0084E88093BC00ECEB4B
S1130C40F0E080818823ECF78091B9008091BB00AB
S1130C50DB018C9390E050E041505109ECEBF0E063
S1130C600F2EF4ECFF2EF02D0F2EF4E8EF2EF02DC6
S1130C7009EB10E0CBEBD0E0292F30E02417350747
S1130C8011F4E08201C0F08280818823ECF7D8015E
S1130C908C912881DB01A90FB11D2C939F5F8035B6
S1130CA059F384E98093BC00DF91CF911F910F9198
S1130CB0FF90EF900895ECEBF0E0908190629083C8
S1130CC090819923ECF7880F8093BB0084E880938C
S1130CD0BC00ECEBF0E080818823ECF76093BB0070
S1130CE084E88093BC00ECEBF0E080818823ECF78F
S1130CF084E98093BC000895CF93DF931F921F92E1
S1130D00CDB7DEB720E04FEF5FEF60E070E0809199
S1130D10100390911103C6D363EE80E4CCDF42E06C
S1130D20BE016F5F7F4F80E473DF698170E0762FCF
S1130D3066278A81682B80E090E00E94A11222E558
S1130D4038EB4FE253E40E942F1320E030E040E8F8
S1130D5057E30E942F1326E636E64BE352E40E9443
S1130D600B120E947012709313046093120465EEC8
S1130D7080E4A1DF42E0BE016F5F7F4F80E448DF83
S1130D80298130E0322F22278A81282BADE7B0E079
S1130D900E94BC130E94A11220E030E040E857E317
S1130DA00E942F1320E030E040EC50E40E940B122C
S1130DB00E947012709315046093140420E040E0C4
S1130DC050E060E070E08091100390911103D8D25C
S1130DD099CF1F920F920FB60F9211248F939F9366
S1130DE095B180E4892785B99F918F910F900FBEAB
S1130DF00F901F90189531E1FC013083319722E266
S1130E0020833197A3E3A083319760833197708364
S1130E103197108231971082319760E8608331975F
S1130E2010823197108231971082319762E060838B
S1130E30319763E06083319764E06083319765E0C4
S1130E406083319766E06083319767E06083319710
S1130E5068E06083319769E06083319760E1608383
S1130E6031973083319732E13083319733E13083E6
S1130E70319734E13083319735E13083319736E16E
S1130E803083319737E13083319738E130833197BC
S1130E9039E13083319730E23083319731E2308366
S1130EA031972083319723E2208331974083319710
S1130EB05083319726E22083319727E220833197AC
S1130EC028E22083319729E22083319720E320838D
S1130ED0319721E320838997089588EC90E09093DB
S1130EE0200480931F0490932204809321048DE4B2
S1130EF087BD82E084BD85E085BDEEE6F0E08081BB
S1130F0082608083A0910E03B0910F03CD91CDBF79
S1130F10DD91DEBFFF91EF91DF91CF91BF91AF9152
S1130F209F918F917F916F915F914F913F912F91FD
S1130F301F910F91FF90EF90DF90CF90BF90AF90F3
S1130F409F908F907F906F905F904F903F902F90E5
S1130F501F900F900CBE0F900BBE0F900FBE0F9002
S1130F60089581E008950F920FB6F8940F920BB68E
S1130F700F920CB60F921F9211242F923F924F9210
S1130F805F926F927F928F929F92AF92BF92CF9215
S1130F90DF92EF92FF920F931F932F933F934F9300
S1130FA05F936F937F938F939F93AF93BF93CF93ED
S1130FB0DF93EF93FF93A0910E03B0910F030DB64F
S1130FC00D920EB60D920E943610A0910E03B091B0
S1130FD00F03CD91CDBFDD91DEBFFF91EF91DF9186
S1130FE0CF91BF91AF919F918F917F916F915F91BD
S1130FF04F913F912F911F910F91FF90EF90DF90B0
S1131000CF90BF90AF909F908F907F906F905F90A4
S11310104F903F902F901F900F900CBE0F900BBEDF
S11310200F900FBE0F9008950F920FB6F8940F9281
S11310300BB60F920CB60F921F9211242F923F926F
S11310404F925F926F927F928F929F92AF92BF92D4
S1131050CF92DF92EF92FF920F931F932F933F93C0
S11310604F935F936F937F938F939F93AF93BF93AC
S1131070CF93DF93EF93FF93A0910E03B0910F03EF
S11310800DB60D920EB60D9213BE8091210490916F
S1131090220401979093220480932104892B49F41C
S11310A03DD980911F049091200490932204809351
S11310B02104A5D68111DAD7A0910E03B0910F03B4
S11310C0CD91CDBFDD91DEBFFF91EF91DF91CF9147
S11310D0BF91AF919F918F917F916F915F914F914C
S11310E03F912F911F910F91FF90EF90DF90CF9040
S11310F0BF90AF909F908F907F906F905F904F9034
S11311003F902F901F900F900CBE0F900BBE0F902E
S11311100FBE0F90089588DF18950FB6F8940F92BC
S1131120FC01928D0F900FBE81E0911180E0089533
S11311300F931F93CF93DF93EC01042F1A8D4C8DE3
S113114041110CC088819981892B09F042C08A81A0
S11311509B810E94B9111B821A8242C0011117C0DF
S113116050E08C819D810E94F6142C8D8C819D8190
S1131170820F911D9D838C832A813B818217930763
S113118050F1888199819D838C8380E029C050E04F
S11311908E819F810E94F6148C8D90E091958195AB
S11311A091092E813F81280F391F3F832E83488167
S11311B059812417350730F42A813B81820F931F0C
S11311C09F838E83023049F4112349F0115080E04B
S11311D007C080E005C080E003C080E001C080E07B
S11311E01F5F1A8FDF91CF911F910F910895FC011A
S11311F0448D4423A9F050E026813781240F351F04
S113120037832683828193812817390720F08081D0
S1131210918197838683CB01668177810C94F61440
S11312200895EF92FF920F931F93CF938C010FB603
S1131230F8940F92FC01C68D1C16A4F481898111C7
S113124006C010C0F8018189811105C00BC0780166
S1131250F1E1EF0EF11CC7019BD781110E945311DC
S1131260C15081F78FEFF801868F0F900FBE0FB634
S1131270F8940F92C58D1C16A4F48085811106C0C4
S113128010C0F8018085811105C00BC07801F8E019
S1131290EF0EF11CC7017CD781110E945311C1507C
S11312A081F78FEFF801858F0F900FBECF911F91BB
S11312B00F91FF90EF900895CF93DF93EC010FB659
S11312C0F8940F92488159812C8D30E07B8D729F68
S11312D0C001739F900D1124FA01E80FF91FFB83DD
S11312E0EA831A8E5D834C83821B930B840F951FB4
S11312F09F838E838FEF8D8F8E8F61110AC08885B7
S1131300882369F0CE01089643D7882341F02BDE69
S113131006C0CE0108965FD9CE0141965CD90F90E4
S11313200FBE81E0DF91CF9108950F931F93CF9368
S1131330DF93082F162F6623B1F0869FC001112476
S11313404F9608D8EC01009739F414C00B8F1C8F0A
S113135061E0CE01B1DF0EC04F9699838883F6CF4A
S1131360D983C883F3CF8FE190E00E94AA01EC01F6
S1131370892BB1F7CE01DF91CF911F910F91089581
S11313809F92AF92BF92CF92DF92EF92FF920F9310
S11313901F93CF93DF9300D01F921F92CDB7DEB778
S11313A08C016B015D834C83A22EB12C9924939400
S11313B07C0188E0E80EF11C0FB6F8940F92F80156
S11313C0928D838D981718F0F2E0AF1215C04A2D54
S11313D0B601C801ADDEF8019189992339F0C8013D
S11313E04196D6D6882321F0BEDD02C08111BBDD33
S11313F00F900FBE81E045C08C819D81892B21F423
S11314000F900FBE80E03DC0B11004C0CE01019624
S113141007D7B92C0F900FBEECD40FB6F8940F92E7
S1131420F801858D8F3F09F4158EF801868D8F3F65
S113143009F4168E0F900FBEBE016C5F7F4FCE0174
S11314400196F9D6811119C00FB6F8940F92F801DC
S1131450928D838D0F900FBE98130BC06C817D818C
S1131460C70185D6C801DDDE84D58111A5CF7BDD1A
S1131470A3CFC801D6DE7DD59FCFC801D2DE79D5F2
S113148080E00F900F900F900F900F90DF91CF910D
S11314901F910F91FF90EF90DF90CF90BF90AF908E
S11314A09F9008958F929F92AF92BF92CF92DF92B6
S11314B0EF92FF920F931F93CF93DF9300D01F926D
S11314C01F92CDB7DEB78C015B015D834C83822E06
S11314D0E12C992493946C0181E1C80ED11C0FB6C0
S11314E0F8940F92F801F28CFF2061F1C680D78046
S11314F0B501C8017CDE811016C0FA94F801F28EA1
S113150080819181892B21F474D7F801938382839C
S1131510F8018085882391F0C801089639D688237C
S113152069F021DD0BC0F801D782C6828189882346
S113153029F0C80141962CD6811115DD0F900FBEFC
S113154081E051C08C819D81892B21F40F900FBEC5
S113155080E049C0E11004C0CE01019661D6E92CB7
S11315600F900FBE46D40FB6F8940F92F801858DF4
S11315708F3F09F4158EF801868D8F3F09F4168E7E
S11315800F900FBEBE016C5F7F4FCE01019653D604
S1131590811120C0C801C1DD8823C1F0F801808118
S11315A09181892B41F40FB6F8940F928281938133
S11315B07ED60F900FBE6C817D81C601D8D5C8013F
S11315C030DED7D481118BCFCEDC89CFC80129DEA0
S11315D0D0D485CFC80125DECCD4C8019EDD8823B4
S11315E009F47DCF80E00F900F900F900F900F9033
S11315F0DF91CF911F910F91FF90EF90DF90CF90EB
S1131600BF90AF909F908F9008951F920F920FB646
S11316100F9211240BB60F922F938F939F93AF9336
S1131620BF93EF93FF930FB6F8940F928091300419
S1131630909131040F900FBE892B31F4E1ECF0E06E
S113164080818F7D80831CC0E0E3F4E0A481B581B8
S11316502D91B583A48380859185A817B90721F4BA
S113166086819781958384830FB6F8940F92808145
S113167091810197918380830F900FBE2093C600C0
S1131680FF91EF91BF91AF919F918F912F910F9007
S11316900BBE0F900FBE0F901F9018951F920F92C4
S11316A00FB60F9211240BB60F922F933F934F93C3
S11316B08F939F93AF93BF93EF93FF938091C80051
S11316C08C7171F08091C80088230CF036C0AEECA8
S11316D0B0E0E8ECF0E08C9180818823E4F32DC045
S11316E04091CE000FB6F8940F92E9E8F4E021811E
S11316F032810F900FBE8385948528173907E9F04E
S1131700EAE8F4E0A281B3814C938281938101964B
S113171093838283208531858217930721F4868100
S11317209781938382830FB6F8940F92808191817D
S11317300196918380830F900FBEFF91EF91BF912B
S1131740AF919F918F914F913F912F910F900BBE2D
S11317500F900FBE0F901F9018951F920F920FB607
S11317600F9211240BB60F922F938F939F93AF93E5
S1131770BF93EF93FF930FB6F8940F928091960462
S1131780909197040F900FBE892B31F4E9ECF0E0AF
S113179080818F7D80831CC0E6E9F4E0A481B5815B
S11317A02D91B583A48380859185A817B90721F469
S11317B086819781958384830FB6F8940F928081F4
S11317C091810197918380830F900FBE2093CE0067
S11317D0FF91EF91BF91AF919F918F912F910F90B6
S11317E00BBE0F900FBE0F901F9018951F920F9273
S11317F00FB60F9211240BB60F922F933F934F9372
S11318008F939F93AF93BF93EF93FF938091D000F7
S11318108C7171F08091D00088230CF036C0A6ED55
S1131820B0E0E0EDF0E08C9180818823E4F32DC0FA
S11318304091D6000FB6F8940F92E5E4F4E02181CC
S113184032810F900FBE8385948528173907E9F0FC
S1131850E6E4F4E0A281B3814C9382819381019602
S113186093838283208531858217930721F48681AF
S11318709781938382830FB6F8940F92808191812C
S11318800196918380830F900FBEFF91EF91BF91DA
S1131890AF919F918F914F913F912F910F900BBEDC
S11318A00F900FBE0F901F9018951F920F920FB6B6
S11318B00F9211240BB60F922F938F939F93AF9394
S11318C0BF93EF93FF930FB6F8940F928091520455
S11318D0909153040F900FBE892B31F4E1EDF0E0A9
S11318E080818F7D80831CC0E2E5F4E0A481B58112
S11318F02D91B583A48380859185A817B90721F418
S113190086819781958384830FB6F8940F928081A2
S113191091810197918380830F900FBE2093D6000D
S1131920FF91EF91BF91AF919F918F912F910F9064
S11319300BBE0F900FBE0F901F9018951F920F9221
S11319400FB60F9211240BB60F922F933F934F9320
S11319508F939F93AF93BF93EF93FF938091300145
S11319608C7171F08091300188230CF036C0A6E3AD
S1131970B1E0E0E3F1E08C9180818823E4F32DC0B1
S1131980409136010FB6F8940F92E7E6F4E0218116
S113199032810F900FBE8385948528173907E9F0AB
S11319A0E8E6F4E0A281B3814C93828193810196AD
S11319B093838283208531858217930721F486815E
S11319C09781938382830FB6F8940F9280819181DB
S11319D00196918380830F900FBEFF91EF91BF9189
S11319E0AF919F918F914F913F912F910F900BBE8B
S11319F00F900FBE0F901F9018951F920F920FB665
S1131A000F9211240BB60F922F938F939F93AF9342
S1131A10BF93EF93FF930FB6F8940F9280917404E1
S1131A20909175040F900FBE892B31F4E1E3F1E03E
S1131A3080818F7D80831CC0E4E7F4E0A481B581BC
S1131A402D91B583A48380859185A817B90721F4C6
S1131A5086819781958384830FB6F8940F92808151
S1131A6091810197918380830F900FBE209336015B
S1131A70FF91EF91BF91AF919F918F912F910F9013
S1131A800BBE0F900FBE0F901F901895E091D602D9
S1131A90F091D7028081811107C08FEF9FEF90935F
S1131AA0AE028093AD020895E091D602F091D70280
S1131AB00580F681E02D0680F781E02D82819381F7
S1131AC09093AE028093AD020895FF920F931F93FB
S1131AD0CF93DF93EC01F62E0091B5021091B6027C
S1131AE080910E0390910F0302960E944F03CF3F03
S1131AF08FEFD80769F4FF2059F060910E037091BD
S1131B000F036E5F7F4F88EB92E00E94FD022FC0AF
S1131B10C00FD11FE0910E03F0910F03D383C28352
S1131B20C017D10768F460910E0370910F03809180
S1131B30D4029091D5026E5F7F4F0E941E0317C09E
S1131B4060910E0370910F038091D6029091D70299
S1131B506E5F7F4F0E941E038091AD029091AE0292
S1131B60C817D90720F4D093AE02C093AD02DF9119
S1131B70CF911F910F91FF9008954F925F926F92B2
S1131B807F928F929F92AF92BF92CF92DF92EF9209
S1131B90FF920F93CF93DF934C016B015A012901FC
S1131BA0CA010E94AA013C01892B09F4E9C088E218
S1131BB090E00E94AA01EC01892BA9F0788E6F8A2B
S1131BC0A50165EA70E0C3011AD781E0A81AB1083B
S1131BD08F89988DA80EB91ED6018C91898F8C910E
S1131BE0811105C018C0C3010E94BC01C9C0AE0167
S1131BF0465E5F4FF6013196B8E0CB0ED11CCF01A3
S1131C002191DA012D93AD01DC018C91882319F027
S1131C10EC15FD05A1F718A2043008F003E00E8BC3
S1131C2009A31AA26E01B2E0CB0ED11CC6010E9418
S1131C30F902CE010C960E94F902D987C88784E084
S1131C4090E0801B91099D878C87DB8BCA8B1BA23C
S1131C501CA21DA21EA21FA2A201B401C501CBD8C1
S1131C6099838883E114F10419F0F701D183C083C7
S1131C700FB6F8940F928091B7028F5F8093B702EA
S1131C8080910E0390910F03892BD1F5D0930F030C
S1131C90C0930E038091B702813009F041C08AEEEF
S1131CA092E00E94EB0283EF92E00E94EB028CEF41
S1131CB092E00E94EB0285E093E00E94EB0281EE49
S1131CC092E00E94EB0288ED92E00E94EB028BEC22
S1131CD092E00E94EB0282EC92E00E94EB0288EB1D
S1131CE092E00E94EB0281EE92E09093D7028093FF
S1131CF0D60288ED92E09093D5028093D40210C06E
S1131D008091B30281110CC0E0910E03F0910F0396
S1131D1096898E89891720F0D0930F03C0930E0300
S1131D208091AF028F5F8093AF028E899091B4024D
S1131D30981710F48093B40290E09C01220F331F93
S1131D40220F331F220F331F820F931FB6018651B8
S1131D509D4F0E94FD020F900FBE8091B302882315
S1131D6059F0E0910E03F0910F0396898E8998172C
S1131D7028F4F9D881E005C081E003C081E001C006
S1131D808FEFDF91CF910F91FF90EF90DF90CF9085
S1131D90BF90AF909F908F907F906F905F904F9087
S1131DA00895EF92FF920F930F2EFBEAEF2EF2E0CD
S1131DB0FF2EF02D00E020E030E045E550E06DE737
S1131DC072E083E391E0D9DE813079F4F8948FEF07
S1131DD09FEF9093AE028093AD0281E08093B302B3
S1131DE01092B6021092B50278D80F91FF90EF903E
S1131DF008958091AA028F5F8093AA020895CF92DA
S1131E00DF92EF92FF920F931F93CF93DF93809112
S1131E10AA02811198C0E090B502F090B6028FEF4B
S1131E20E81AF80AF092B602E092B502E114F1045D
S1131E30B1F48091D6029091D7022091D4023091CE
S1131E40D5023093D7022093D6029093D502809383
S1131E50D4028091B0028F5F8093B00217DE80912C
S1131E60AD029091AE02E816F90610F4D12C53C0DD
S1131E70D12CCC24C394E091D602F091D702808176
S1131E80811107C08FEF9FEF9093AE028093AD0254
S1131E9042C0E091D602F091D7020580F681E02D90
S1131EA0C681D7818A819B81E816F90628F490932C
S1131EB0AE028093AD022FC08E010E5F1F4FC8018A
S1131EC00E944F038C899D89892B21F0CE010C96A9
S1131ED00E944F038E899091B402981710F4809356
S1131EE0B40290E09C01220F331F220F331F220FF4
S1131EF0331F820F931FB80186519D4F0E94FD022C
S1131F00E0910E03F0910F039E898689981708F4D7
S1131F10B2CFDC2CB0CFE0910E03F0910F03868991
S1131F2090E0FC01EE0FFF1FEE0FFF1FEE0FFF1FEF
S1131F308E0F9F1FFC01E651FD4F8081823048F0D7
S1131F40DD24D39406C08091B2028F5F8093B202E5
S1131F50D12C8091B102882311F0DD24D3948D2DEE
S1131F60DF91CF911F910F91FF90EF90DF90CF9071
S1131F700895DF92EF92FF920F931F93CF93DF9315
S1131F800FB6F8940F928091AA0281508093AA020E
S1131F908091AA0281115DC08091B702811133C082
S1131FA05BC0D7011596ED91FC911697C681D78138
S1131FB0CE010C960E944F038E010E5F1F4FC80185
S1131FC00E944F038E899091B402981710F4809365
S1131FD0B40290E09C01220F331F220F331F220F03
S1131FE0331F820F931FB80186519D4F0E94FD023B
S1131FF0E0910E03F0910F039E898689981768F08B
S1132000D092B1020AC0C0E0D0E00F2EFBECEF2E5C
S1132010F2E0FF2EF02DDD24D394F70180818111AD
S1132020C0CFCD2B09F032DDC091B202CC2349F0F0
S1132030D1E0E5DE8111D093B102C150D1F7109205
S1132040B2028091B102882331F00E94B30781E08B
S113205003C080E001C080E00F900FBEDF91CF91FC
S11320601F910F91FF90EF90DF9008958091AA0245
S1132070882321F081E08093B10208951092B10287
S1132080A0910E03B0910F03E0910E03F0910F03A2
S11320902D913C918789908D8217930760F0609110
S11320A00E0370910F0380910E0390910F03675EEE
S11320B07F4F0E94EE012091B402822F90E0FC0138
S11320C0EE0FFF1FEE0FFF1FEE0FFF1FE80FF91FAC
S11320D0E651FD4F3081311111C02150822F90E023
S11320E0FC01EE0FFF1FEE0FFF1FEE0FFF1FE80FA7
S11320F0F91FE651FD4F3081332379F3AC01440FCE
S1132100551F440F551F440F551F480F591FDA011F
S1132110A651BD4F1196ED91FC9112970280F38167
S1132120E02D1296FC93EE93119743515D4FE41703
S1132130F50729F442815381FD0152834183FC0157
S1132140EE0FFF1FEE0FFF1FEE0FFF1F8E0F9F1FDF
S1132150FC01E651FD4F0180F281E02D86819781DB
S113216090930F0380930E032093B4020895CF93AA
S1132170DF93EB0160910E0370910F03645F7F4F57
S11321800E941E0361E0CE01A0DCDF91CF9108958F
S11321900F931F93CF93DF93DC011596ED91FC9180
S11321A01697C681D7818E01045F1F4FC8010E9414
S11321B04F038091AA0281111CC00A501109C80161
S11321C00E944F038E899091B402981710F4809363
S11321D0B40290E09C01220F331F220F331F220F01
S11321E0331F820F931FB80186519D4F0E94FD0239
S11321F005C0B8018BEC92E00E94FD02E0910E0351
S1132200F0910F039E898689891720F481E08093D9
S1132210B10201C080E0DF91CF911F910F91089529
S11322202091B002FC0120832091B5023091B602C6
S11322303283218308950FB6F8940F924091B5022A
S11322405091B602DB012D913C912F3FBFEF3B072C
S113225011F1E091B002DC01FC91FE1739F0119606
S1132260ED91FC9112974E175F07B8F4DC011196BB
S1132270ED91FC911297DA01AE1BBF0BA217B307C5
S113228070F4DB01E41BF50B2E0F3F1F2D933C93E1
S1132290C7DF80E005C080E003C081E001C081E0C9
S11322A00F900FBE089581E08093B10208950F93BB
S11322B01F93CF93DF93FC01892B09F455C0268922
S11322C0A0910E03B0910F0356968C91281708F035
S11322D04BC084859585992364F0A0910E03B09139
S11322E00F0356963C9184E090E0831B91099587F7
S11322F0848730E0C901880F991F880F991F880FC0
S1132300991F280F391F26513D4F828593858217C7
S1132310930719F58F01EF012296CE010E944F0316
S1132320E0910E03F0910F038689F801868B90915A
S1132330B402981710F48093B40290E09C01220F29
S1132340331F220F331F220F331F820F931FBE012F
S113235086519D4F0E94FD0207C0A0910E03B091CB
S11323600F0356968C91868BDF91CF911F910F911D
S113237008950F931F93CF93DF93FC01892B79F179
S113238082A1815082A3268991A1291751F181113B
S11323902AC0EF018F010E5F1F4FC8010E944F0337
S11323A089A18E8B24E030E0281B31093D872C87DE
S11323B09091B402981710F48093B40290E09C01B9
S11323C0220F331F220F331F220F331F820F931F3D
S11323D0B80186519D4F0E94FD0281E005C080E056
S11323E003C080E001C080E0DF91CF911F910F9185
S11323F0089580910E0390910F03892B39F0E09199
S11324000E03F0910F0382A18F5F82A380910E03CC
S113241090910F0308955058BB27AA270ED0E5C00A
S1132420D6D030F0DBD020F031F49F3F11F41EF40D
S1132430CBC00EF4E095E7FBC1C0E92FE7D080F3F1
S1132440BA17620773078407950718F071F49EF5AD
S1132450FFC00EF4E0950B2EBA2FA02D0B01B9018D
S113246090010C01CA01A0011124FF27591B99F006
S1132470593F50F4503E68F11A16F040A22F232F12
S1132480342F4427585FF3CF469537952795A79562
S1132490F0405395C9F77EF41F16BA0B620B730B09
S11324A0840BBAF09150A1F0FF0FBB1F661F771F7A
S11324B0881FC2F70EC0BA0F621F731F841F48F42F
S11324C0879577956795B795F7959E3F08F0B3CFB5
S11324D09395880F08F09927EE0F9795879508959F
S11324E004D06894B111B5C0089598D088F09F576E
S11324F090F0B92F9927B751A0F0D1F0660F771F4C
S1132500881F991F1AF0BA95C9F712C0B13081F02B
S11325109FD0B1E008959CC0672F782F8827B85FBB
S113252039F0B93FCCF3869577956795B395D9F78C
S11325303EF490958095709561957F4F8F4F9F4F96
S11325400895E89409C097FB3EF4909580957095A2
S113255061957F4F8F4F9F4F9923A9F0F92F96E9EB
S1132560BB279395F695879577956795B795F11160
S1132570F8CFFAF4BB0F11F460FF1BC06F5F7F4FFD
S11325808F4F9F4F16C0882311F096E911C077230F
S113259021F09EE8872F762F05C0662371F096E818
S11325A0862F70E060E02AF09A95660F771F881FE7
S11325B0DAF7880F9695879597F9089597F99F67A5
S11325C080E870E060E008959FEF80EC08950024B7
S11325D00A941616170618060906089500240A9484
S11325E012161306140605060895092E0394000C0A
S11325F011F4882352F0BB0F40F4BF2B11F460FF99
S113260004C06F5F7F4F8F4F9F4F089557FD9058C1
S1132610440F551F59F05F3F71F04795880F97FBA2
S1132620991F61F09F3F79F087950895121613065C
S11326301406551FF2CF4695F1DF08C0161617068B
S11326401806991FF1CF86957105610508940895C0
S1132650E894BB2766277727CB0197F908950BD019
S1132660C4CFB5DF28F0BADF18F0952309F0A6CF60
S1132670ABCF1124EECFCADFA0F3959FD1F3950F12
S113268050E0551F629FF001729FBB27F00DB11DF2
S1132690639FAA27F00DB11DAA1F649F6627B00D82
S11326A0A11D661F829F2227B00DA11D621F739F6B
S11326B0B00DA11D621F839FA00D611D221F749F79
S11326C03327A00D611D231F849F600D211D822FC0
S11326D0762F6A2F11249F5750408AF0E1F0882307
S11326E04AF0EE0FFF1FBB1F661F771F881F915014
S11326F05040A9F79E3F510570F060CFAACF5F3FCD
S1132700ECF3983EDCF3869577956795B795F79546
S1132710E7959F5FC1F7FE2B880F911D96958795CE
S113272097F90895A1E21A2EAA1BBB1BFD010DC047
S1132730AA1FBB1FEE1FFF1FA217B307E407F5076D
S113274020F0A21BB30BE40BF50B661F771F881F49
S1132750991F1A9469F760957095809590959B01DF
S1132760AC01BD01CF010895EE0FFF1F881F8BBF81
S11327700790F691E02D1994A29FB001B39FC00178
S1132780A39F700D811D1124911DB29F700D811D99
S11327901124911D0895F0DFA59F900DB49F900D15
S11327A0A49F800D911D112408950F931F93CF931F
S11327B0DF938230910510F482E090E0E091AD0463
S11327C0F091AE0420E030E0A0E0B0E0309719F1E1
S11327D0408151810281138148175907C8F0841739
S11327E0950769F4109731F012960C93129713968B
S11327F01C9327C00093AD041093AE0422C021158E
S1132800310519F04217530718F49A01BD01EF017D
S1132810DF01F801DBCF21153105F9F0281B390B55
S11328202430310580F48A819B816115710521F082
S1132830FB019383828304C09093AE048093AD0420
S1132840FE01329644C0FE01E20FF31F819391937F
S113285022503109398328833AC02091AB04309146
S1132860AC04232B41F420910202309103023093F3
S1132870AC042093AB042091000230910102211595
S1132880310541F42DB73EB7409104025091050241
S1132890241B350BE091AB04F091AC04E217F30771
S11328A0A0F42E1B3F0B2817390778F0AC014E5FBC
S11328B05F4F2417350748F04E0F5F1F5093AC0449
S11328C04093AB048193919302C0E0E0F0E0CF0128
S11328D0DF91CF911F910F910895CF93DF930097CC
S11328E009F481C0FC01329713821282A091AD04D5
S11328F0B091AE04109781F420813181820F931F2F
S11329002091AB043091AC042817390751F5F093AA
S1132910AC04E093AB0467C0ED0120E030E0CE17D7
S1132920DF0740F44A815B819E0141155105F1F0B6
S1132930EA01F5CFD383C28340815181840F951F6F
S1132940C817D90759F488819981840F951F029675
S1132950918380838A819B819383828321153105AE
S113296029F4F093AE04E093AD043DC0E901FB8388
S1132970EA8349915991C40FD51FEC17FD0761F4FF
S113298080819181840F951F0296E9019983888340
S1132990828193819B838A83E0E0F0E012968D919B
S11329A09C911397009719F0FD01DC01F7CF8D91ED
S11329B09C9111979D012E5F3F4F820F931F209191
S11329C0AB043091AC042817390769F4309729F423
S11329D01092AE041092AD0402C013821282B0931E
S11329E0AC04A093AB04DF91CF910895FB01DC010B
S11329F002C001900D9241505040D8F70895DC0177
S1132A0001C06D9341505040E0F70895BB274A3010
S1132A1031F4992322F4BDE2909581959F4F01C032
S1132A20BB27FB015527AA27880F991FAA1FA417A4
S1132A3010F0A41B83955051B9F7A05DAA3308F098
S1132A40A95DA193009779F7B111B1931192CB01CC
S1132A5000C0DC01FC01672F71917723E1F7329705
S1132A6004C07C916D9370836291AE17BF07C8F365
S1092A700895F894FFCF65
S1132A760000B3042000F841667374616E64203D5F
S1132A86202564434D2C20486F656B203D2025642A
S1132A9600686F656B3A20002061667374616E642A
S1132AA63A20002074656D70657261747575723AAA
S1132AB620002068756D69646974793A20000A0DEE
S1132AC600536F6E61722053656E736F72005365A7
S1132AD672766F204D6F746F720074656D706572D7
S1132AE661747575722053656E736F720049444C38
S1052AF6450095
S9030000FC
