S024000054656D70657261747575725F6C75636874766F6368746967686569642E7372656355
S113000071C0000079C0000077C0000075C0000016
S113001073C0000071C000006FC000006DC000001C
S11300206BC0000069C0000067C0000065C000002C
S113003063C0000061C000005FC000005DC000003C
S11300405BC0000059C0000057C0000055C000004C
S113005053C0000051C000004FC000004DC000005C
S11300604BC0000049C0000047C0000045C000006C
S113007043C0000041C000003FC000003DC000007C
S11300803BC0000039C0000037C0000035C000008C
S113009033C0000031C000002FC000002DC000009C
S11300A02BC0000029C0000027C0000025C00000AC
S11300B023C0000021C000001FC000001DC00000BC
S11300C01BC0000019C0000017C0000015C00000CC
S11300D013C0000011C000000FC000000DC00000DC
S11300E00BC0000011241FBECFEFD1E2DEBFCDBF95
S11300F000E00CBFC8D022C183CF1092B90088E4BD
S11301008093B80084E08093BC000895ECEBF0E0A9
S113011090819062908390819923ECF7880F80936B
S1130120BB0084E88093BC00ECEBF0E08081882382
S1130130ECF76093BB0084E88093BC00ECEBF0E048
S113014080818823ECF784E98093BC000895909320
S1130150C5008093C40088E98093C10086E0809341
S1130160C2000895E0ECF0E0908195FFFDCF80930C
S1130170C6000895EF92FF920F931F93CF93DF93DE
S1130180182FEB01042F81E6EDDFECEBF0E080812A
S11301908062808380818823ECF78091B90082E6B5
S11301A0E1DF110F1F5F1093BB0084E88093BC0054
S11301B0ECEBF0E080818823ECF78091B90080912A
S11301C0BB00888390E0402F50E041505109ECEB94
S11301D0F0E00F2EF4ECFF2EF02D0F2EF4E8EF2EAE
S11301E0F02D09EB10E06BEB70E0292F30E02417C1
S11301F0350711F4E08201C0F08280818823ECF796
S1130200D8018C91DB012C91DE01A90FB11D2C9337
S11302109F5F803551F384E98093BC00DF91CF91D7
S11302201F910F91FF90EF900895CF93DF93EC010E
S11302308881882329F0219695DF89918111FCCF4B
S11302408AE090DF8DE08EDFDF91CF910895CF9328
S1130250DF93CDB7DEB761970FB6F894DEBF0FBE5C
S1130260CDBF462F50E0BE016F5F7F4F2AD0CE0135
S11302700196DBDF61960FB6F894DEBF0FBECDBFEB
S1130280DF91CF910895CF93DF93CDB7DEB7609719
S11302900FB6F894DEBF0FBECDBF83E08BB987E6FF
S11302A090E055DF2ADF65EE80E430DF42E0BE01F6
S11302B06F5F7F4F80E45EDF89816AE090E0C7DF93
S11302C0F2CF4532510518F4423008F004C0FB0166
S11302D01082CB010895BB274A3031F4992322F4CC
S11302E0BDE2909581959F4F01C0BB27FB01552727
S11302F0AA27880F991FAA1FA41710F0A41B83957F
S11303005051B9F7A05DAA3308F0A95DA1930097F5
S113031079F7B111B1931192CB0100C0DC01FC015A
S1130320672F71917723E1F7329704C07C916D9325
S113033070836291AE17BF07C8F30895F894FFCF96
S9030000FC
