:1000000071C0000086C0000084C0000082C00000F3
:1000100080C000007EC000007CC000007AC00000EC
:1000200078C0000076C0000074C0000072C00000FC
:1000300070C000006EC000006CC000006AC000000C
:1000400068C0000066C0000064C0000062C000001C
:1000500060C000005EC000005CC000005AC000002C
:1000600058C0000056C0000054C0000052C000003C
:1000700050C000004EC000004CC000004AC000004C
:1000800048C0000046C0000044C0000042C000005C
:1000900040C000003EC000003CC000003AC000006C
:1000A00038C0000036C0000034C0000032C000007C
:1000B00030C000002EC000002CC000002AC000008C
:1000C00028C0000026C0000024C0000022C000009C
:1000D00020C000001EC000001CC000001AC00000AC
:1000E00018C0000011241FBECFEFD1E2DEBFCDBF8C
:1000F00000E00CBF12E0A0E0B2E0E8EEF6E000E0C5
:100100000BBF02C007900D92AE31B107D9F7C0D036
:10011000E9C276CF1092B90088E48093B80084E0F9
:100120008093BC000895EF92FF920F931F93CF939B
:10013000DF93ECEBF0E090819062908390819923C3
:10014000ECF79091B900880F8F5F8093BB0084E833
:100150008093BC00ECEBF0E080818823ECF7809189
:10016000B9008091BB00DB018C9390E050E04150DE
:100170005109ECEBF0E00F2EF4ECFF2EF02D0F2EDA
:10018000F4E8EF2EF02D09EB10E0CBEBD0E0292FB7
:1001900030E02417350711F4E08201C0F08280813D
:1001A0008823ECF7D8018C912881DB01A90FB11DC0
:1001B0002C939F5F803559F384E98093BC00DF91D5
:1001C000CF911F910F91FF90EF900895ECEBF0E02D
:1001D00090819062908390819923ECF7880F8093AF
:1001E000BB0084E88093BC00ECEBF0E080818823C6
:1001F000ECF76093BB0084E88093BC00ECEBF0E08C
:1002000080818823ECF784E98093BC0008951092E4
:10021000C50087E68093C4001092C00086E08093FA
:10022000C20088E18093C1000895E0ECF0E0908185
:1002300095FFFDCF8093C6000895CF93DF93EC0127
:100240008881882329F02196F0DF89918111FCCFE4
:10025000DF91CF910895CF93DF93CDB7DEB761974C
:100260000FB6F894DEBF0FBECDBFDC01CB014AE074
:10027000BE016F5F7F4F03D2CE010196DEDF619634
:100280000FB6F894DEBF0FBECDBFDF91CF910895BA
:10029000CF93DF931F921F92CDB7DEB783E08BB968
:1002A000B6DF38DF63EE80E491DF42E0BE016F5FCE
:1002B0007F4F80E438DF698170E0762F66278A817E
:1002C0007B01E82A80E092E0B8DFB70180E090E0AF
:1002D000CCD022E538EB4FE253E455D120E030E0BA
:1002E00040E857E350D126E636E64BE352E42CD003
:1002F00090D0B1DF65EE80E469DF42E0BE016F5F60
:100300007F4F80E410DFC980D12CDC2CCC248A8183
:10031000C82AE12CF12C8EE092E08FDFADE7B0E04F
:10032000A701960193D1A1D020E030E040E857E347
:100330002AD120E030E040EC50E406D06AD08BDFD8
:100340008AE192E07ADFAECF5058BB27AA270ED0C1
:10035000E0C0D1D030F0D6D020F031F49F3F11F47E
:100360001EF4C6C00EF4E095E7FBBCC0E92FE2D056
:1003700080F3BA17620773078407950718F071F4C2
:100380009EF5FAC00EF4E0950B2EBA2FA02D0B01AE
:10039000B90190010C01CA01A0011124FF27591BCA
:1003A00099F0593F50F4503E68F11A16F040A22FD0
:1003B000232F342F4427585FF3CF46953795279541
:1003C000A795F0405395C9F77EF41F16BA0B620B40
:1003D000730B840BBAF09150A1F0FF0FBB1F661F87
:1003E000771F881FC2F70EC0BA0F621F731F841FCA
:1003F00048F4879577956795B795F7959E3F08F0F0
:10040000B3CF9395880F08F09927EE0F97958795AE
:10041000089598D088F09F5790F0B92F9927B75139
:10042000A0F0D1F0660F771F881F991F1AF0BA95B8
:10043000C9F712C0B13081F09FD0B1E008959CC0DF
:10044000672F782F8827B85F39F0B93FCCF38695AE
:1004500077956795B395D9F73EF49095809570950B
:1004600061957F4F8F4F9F4F0895E89409C097FB88
:100470003EF490958095709561957F4F8F4F9F4F7B
:100480009923A9F0F92F96E9BB279395F6958795BF
:1004900077956795B795F111F8CFFAF4BB0F11F482
:1004A00060FF1BC06F5F7F4F8F4F9F4F16C0882329
:1004B00011F096E911C0772321F09EE8872F762F5F
:1004C00005C0662371F096E8862F70E060E02AF0A0
:1004D0009A95660F771F881FDAF7880F969587958C
:1004E00097F9089597F99F6780E870E060E00895B4
:1004F0009FEF80EC089500240A941616170618063C
:100500000906089500240A94121613061406050617
:100510000895092E0394000C11F4882352F0BB0FA8
:1005200040F4BF2B11F460FF04C06F5F7F4F8F4F0B
:100530009F4F089557FD9058440F551F59F05F3F46
:1005400071F04795880F97FB991F61F09F3F79F0F5
:1005500087950895121613061406551FF2CF469577
:10056000F1DF08C0161617061806991FF1CF8695F9
:100570007105610508940895E894BB2766277727DD
:10058000CB0197F908950BD0C4CFB5DF28F0BADFBF
:1005900018F0952309F0A6CFABCF1124EECFCADF18
:1005A000A0F3959FD1F3950F50E0551F629FF00186
:1005B000729FBB27F00DB11D639FAA27F00DB11DDF
:1005C000AA1F649F6627B00DA11D661F829F222768
:1005D000B00DA11D621F739FB00DA11D621F839FEF
:1005E000A00D611D221F749F3327A00D611D231FC5
:1005F000849F600D211D822F762F6A2F11249F5713
:1006000050408AF0E1F088234AF0EE0FFF1FBB1F35
:10061000661F771F881F91505040A9F79E3F5105D4
:1006200070F060CFAACF5F3FECF3983EDCF3869585
:1006300077956795B795F795E7959F5FC1F7FE2B7F
:10064000880F911D9695879597F9089509D0A59FD4
:10065000900DB49F900DA49F800D911D11240895BD
:10066000A29FB001B39FC001A39F700D811D1124F3
:10067000911DB29F700D811D1124911D0895BB27FE
:100680004A3031F4992322F4BDE2909581959F4F31
:1006900001C0BB27FB015527AA27880F991FAA1F56
:1006A000A41710F0A41B83955051B9F7A05DAA338D
:1006B00008F0A95DA193009779F7B111B193119258
:1006C000CB0100C0DC01FC01672F71917723E1F7BA
:1006D000329704C07C916D9370836291AE17BF070F
:0806E000C8F30895F894FFCF60
:1006E80074656D70657261747575723A2000206862
:0E06F800756D69646974793A20000A0D00007E
:00000001FF
