S00D00006F706472312E7372656331
S11300006CC100008BC100000C94720F87C100000A
S113001085C1000083C1000081C100007FC10000D0
S11300207DC100007BC1000079C1000077C10000E0
S113003075C1000073C1000071C100006FC10000F0
S11300406DC100000C94C31069C1000067C10000B9
S113005065C10000DBC4000061C100005FC1000095
S11300605DC100000C943A0F49C7000057C100005D
S113007055C1000053C1000051C100004FC1000030
S11300804DC100004BC1000049C100000C940C108C
S11300907EC70000DBC7000041C10000ADC1000005
S11300A03DC100003BC1000039C1000037C1000060
S11300B035C1000033C1000031C100002FC1000070
S11300C02DC100002BC1000029C100000C946F0851
S11300D00C94CE0823C100000C9417090C947609E3
S11300E01DC100001B02D602D602D602D602D602D9
S11300F0D602D6021B02D602D602D602D602D602F7
S1130100D602D6021D02D602D602D602D602D602E4
S1130110D602D6023A02D602D602D602D602D602B7
S1130120D602D6021D02D602D602D602D602D602C4
S1130130D602D6023A02D602D602D602D602D60297
S1130140D602D602D202D602D602D602D602D602EF
S1130150D602D6024E02D602D602D602D602D60263
S1130160D602D6027102D602D602D602D602D60230
S1130170D602D6024202D602D602D602D602D6024F
S1130180D602D6026002D602D602D602D602D60221
S1130190D602D602A802D602D602D602D602D602C9
S11301A0D602D602A802D602D602D602D602D602B9
S11301B0D602D602A302D602D602D602D602D602AE
S11301C0D602D602A302D602D602D602D602D6029E
S11301D0D602D602B302D602D602D602D602D6027E
S11301E0D602D602C802D602D602D602D602D60259
S11301F0D602D602B302D602D602D602D602D6025E
S1130200D602D602C802D602D602D602D602D60238
S1130210D602D602CC02D602D602D602D602D60224
S1130220D602D6027902D602D602D602D602D60267
S1130230D602D6027902D602D602D602D602D60257
S1130240D602D6027B02D602D602D602D602D60245
S1130250D602D6028B02D602D602D602D602D60225
S1130260D602D6029F020AE812E00F2EF2EBEF2E1E
S1130270F2E0FF2EF02D26C00E94640BD801CC9131
S11302800E94240CCC23F1F00FB6F8940F92D801FD
S11302901596ED91FC911697C681D781CE010296F1
S11302A0FFD180917F02815080937F0280918902E7
S11302B08150809389020F900FBE8F89988D5DD0F5
S11302C0CE015BD0809189028111D6CFF701808164
S11302D0823008F0C3D260D0F5CF11241FBECFEF17
S11302E0D1E2DEBFCDBF00E00CBF12E0A0E0B2E07F
S11302F0E0E6FDE200E00BBF02C007900D92A635D8
S1130300B107D9F724E0A6E5B2E001C01D92A138F7
S1130310B207E1F70E948F100C94AE1671CE8F9342
S11303208FB78F93F8948091E4028F5F8093E402F7
S11303308091E5028F4F8093E5028091E6028F4F12
S11303408093E6028091E7028F4F8093E7028F91BA
S11303508FBF8F910895CF93DF93EC010E94640BBC
S1130360CE010E94A212EC010E94240C209709F4F1
S11303702CD0CE01DF91CF910895CF93DF930097D6
S113038041F0EC010E94640BCE010E943A130E94DA
S1130390240CDF91CF9108958FEF80937E0080939A
S11303A07D0080B7877F80BF80B7806880BF83B7B8
S11303B0817F83BF0FB6F8940F9283B7816083BFA8
S11303C00F900FBE889513BE0895279A2F9A83ED38
S11303D090E30197F1F700C000001F9AF8CF279A25
S11303E02F9A2FE78AE196E0215080409040E1F770
S11303F000C000001F9AF5CF1F920F920FB60F9204
S113040011240BB60F922F933F938F939F93AF9327
S1130410BF93EF93FF93E091B9008E2F90E0FC011E
S11304203897E13CF10508F0C1C08827EE58FF4F2A
S11304308F4F0C94811210925602E09156028091D3
S11304405902E81770F481E08E0F80935602F0E0B1
S1130450E65AFD4F80818093BB0085E88093BC0001
S1130460ACC08091570281608093570284E98093E5
S1130470BC00A3C08091B9008093060285EE8093EE
S1130480BC009BC0E091560281E08E0F809356021F
S11304908091BB00F0E0E65AFD4F80832091560224
S11304A030E08091590290E001972817390724F42D
S11304B085EC8093BC0081C085E88093BC007DC03E
S11304C08091BB00E0915602F0E0E65AFD4F808334
S11304D08091570281608093570284ED8093BC0021
S11304E06CC08091B9008093060285ED8093BC00B6
S11304F064C010925602E091560281E08E0F809300
S11305005602F0E0E65AFD4F80818093BB0085ECF3
S11305108093BC0052C09091560280915902981366
S113052006C08091570281608093570204C0809175
S1130530B9008093060284E08093BC003EC085EC41
S11305408093BC003AC08091570284608093570224
S1130550809157028260809357021092560285EC74
S11305608093BC002AC0E091560281E08E0F8093F4
S113057056028091BB00F0E0E65AFD4F80838091E3
S1130580570281608093570285EC8093BC0015C0AC
S113059085E88093BC0011C084E080935802809366
S11305A0BC000BC085EE8093BC0007C08091B900ED
S11305B08093060285ED8093BC00FF91EF91BF917B
S11305C0AF919F918F913F912F910F900BBE0F9000
S11305D00FBE0F901F901895FC01039692838183A0
S11305E02FEF3FEF3483238396838583908787831C
S11305F010820895FC01118610860895CF93DF932D
S11306009C01FB01DC011196CD91DC911297D383FF
S1130610C2838C819D81958384838C819D81DC013F
S113062013967C936E9312977D836C833187208716
S1130630F90180818F5F8083DF91CF910895CF93FB
S1130640DF93EB01488159814F3F2FEF520721F48B
S1130650FC01A781B0850DC0DC01139601C0DF0148
S11306601296ED91FC911397208131814217530723
S1130670B0F71296ED91FC911397FB83EA83D5832F
S1130680C483BD83AC831396DC93CE93129799876E
S11306908887FC0120812F5F2083DF91CF9108950B
S11306A0CF93DF93FC01A085B185C281D38184817E
S11306B095819D838C83C481D581828193819B8321
S11306C08A8311968D919C911297E817F90731F45A
S11306D08481958112969C938E931197118610862E
S11306E08C9181508C93DF91CF91089531E1FC017D
S11306F03083319722E220833197A3E3A08331979B
S113070060833197708331971082319710823197CB
S113071060E860833197108231971082319710829C
S1130720319762E06083319763E06083319764E0DE
S11307306083319765E06083319766E06083319729
S113074067E06083319768E06083319769E0608394
S1130750319760E1608331973083319732E13083A0
S1130760319733E13083319734E13083319735E188
S11307703083319736E13083319737E130833197D5
S113078038E13083319739E13083319730E2308377
S1130790319731E2308331972083319723E22083EC
S11307A03197408331975083319726E220833197E4
S11307B027E22083319728E22083319729E220839E
S11307C0319720E32083319721E32083899708958B
S11307D088EC90E09093E9028093E8029093EB0216
S11307E08093EA028DE487BD82E084BD85E085BD07
S11307F0EEE6F0E0808182608083A091D602B09121
S1130800D702CD91CDBFDD91DEBFFF91EF91DF9196
S1130810CF91BF91AF919F918F917F916F915F9194
S11308204F913F912F911F910F91FF90EF90DF9087
S1130830CF90BF90AF909F908F907F906F905F907C
S11308404F903F902F901F900F900CBE0F900BBEB7
S11308500F900FBE0F90089581E008950F920FB688
S1130860F8940F920BB60F920CB60F921F921124AC
S11308702F923F924F925F926F927F928F929F92AC
S1130880AF92BF92CF92DF92EF92FF920F931F939A
S11308902F933F934F935F936F937F938F939F9384
S11308A0AF93BF93CF93DF93EF93FF93A091D602BF
S11308B0B091D7020DB60D920EB60D920E94A10C06
S11308C0A091D602B091D702CD91CDBFDD91DEBF0C
S11308D0FF91EF91DF91CF91BF91AF919F918F9154
S11308E07F916F915F914F913F912F911F910F9144
S11308F0FF90EF90DF90CF90BF90AF909F908F903C
S11309007F906F905F904F903F902F901F900F902B
S11309100CBE0F900BBE0F900FBE0F9008950F9258
S11309200FB6F8940F920BB60F920CB60F921F925B
S113093011242F923F924F925F926F927F928F92E7
S11309409F92AF92BF92CF92DF92EF92FF920F935A
S11309501F932F933F934F935F936F937F938F9343
S11309609F93AF93BF93CF93DF93EF93FF93A091A4
S1130970D602B091D7020DB60D920EB60D9213BEEB
S11309808091EA029091EB0201979093EB0280939D
S1130990EA02892B49F4C3DC8091E8029091E902D0
S11309A09093EB028093EA0295D68111CAD7A09165
S11309B0D602B091D702CD91CDBFDD91DEBFFF91BC
S11309C0EF91DF91CF91BF91AF919F918F917F91E3
S11309D06F915F914F913F912F911F910F91FF90D4
S11309E0EF90DF90CF90BF90AF909F908F907F90CB
S11309F06F905F904F903F902F901F900F900CBE80
S1130A000F900BBE0F900FBE0F90089588DF1895BE
S1130A100FB6F8940F92FC01928D0F900FBE81E0F7
S1130A20911180E008950F931F93CF93DF93EC010E
S1130A30042F1A8D4C8D41110CC088819981892B0A
S1130A4009F042C08A819B810E94240E1B821A8273
S1130A5042C0011117C050E08C819D810E94C313D4
S1130A602C8D8C819D81820F911D9D838C832A8185
S1130A703B818217930750F1888199819D838C83F0
S1130A8080E029C050E08E819F810E94C3138C8D29
S1130A9090E09195819591092E813F81280F391F0E
S1130AA03F832E83488159812417350730F42A81E6
S1130AB03B81820F931F9F838E83023049F411235D
S1130AC049F0115080E007C080E005C080E003C019
S1130AD080E001C080E01F5F1A8FDF91CF911F91EA
S1130AE00F910895FC01448D4423A9F050E0268120
S1130AF03781240F351F37832683828193812817FA
S1130B00390720F08081918197838683CB016681A8
S1130B1077810C94C3130895EF92FF920F931F9360
S1130B20CF938C010FB6F8940F92FC01C68D1C165E
S1130B30A4F48189811106C010C0F8018189811152
S1130B4005C00BC07801F1E1EF0EF11CC7018BD792
S1130B5081110E94BE0DC15081F78FEFF801868F7D
S1130B600F900FBE0FB6F8940F92C58D1C169CF40F
S1130B708085811106C00FC0F8018085811105C0F0
S1130B800AC07801F8E0EF0EF11CC7016CD781119F
S1130B90F5D7C15089F78FEFF801858F0F900FBEFD
S1130BA0CF911F910F91FF90EF900895CF93DF9312
S1130BB0EC010FB6F8940F92488159812C8D30E0E6
S1130BC07B8D729FC001739F900D1124FA01E80F71
S1130BD0F91FFB83EA831A8E5D834C83821B930B7C
S1130BE0840F951F9F838E838FEF8D8F8E8F61115E
S1130BF00AC08885882369F0CE01089634D78823F3
S1130C0041F02CDE06C0CE010896E6DCCE0141960A
S1130C10E3DC0F900FBE81E0DF91CF9108950F9335
S1130C201F93CF93DF93082F162F6623B1F0869F6F
S1130C30C00111244F968FDBEC01009739F413C0E7
S1130C400B8F1C8F61E0CE01B1DF0DC04F969983ED
S1130C508883F6CFD983C883F3CF8FE190E07BDB21
S1130C60EC01892BB9F7CE01DF91CF911F910F9140
S1130C7008959F92AF92BF92CF92DF92EF92FF922C
S1130C800F931F93CF93DF9300D01F921F92CDB782
S1130C90DEB78C016B015D834C83A22EB12C9924A9
S1130CA093947C0188E0E80EF11C0FB6F8940F923F
S1130CB0F801928D838D981718F0F2E0AF1215C0E9
S1130CC04A2DB601C801AFDEF8019189992339F0A4
S1130CD0C8014196C8D6882321F0C0DD02C0811125
S1130CE0BDDD0F900FBE81E045C08C819D81892BB5
S1130CF021F40F900FBE80E03DC0B11004C0CE01BE
S1130D000196F9D6B92C0F900FBEDED40FB6F89425
S1130D100F92F801858D8F3F09F4158EF801868DA9
S1130D208F3F09F4168E0F900FBEBE016C5F7F4F8C
S1130D30CE010196EBD6811119C00FB6F8940F922B
S1130D40F801928D838D0F900FBE98130BC06C81A8
S1130D507D81C70177D6C801DFDE76D58111A5CFA5
S1130D607DDDA3CFC801D8DE6FD59FCFC801D4DE07
S1130D706BD580E00F900F900F900F900F90DF9144
S1130D80CF911F910F91FF90EF90DF90CF90BF9084
S1130D90AF909F9008958F929F92AF92BF92CF92FF
S1130DA0DF92EF92FF920F931F93CF93DF9300D0C4
S1130DB01F921F92CDB7DEB78C015B015D834C831C
S1130DC0822EE12C992493946C0181E1C80ED11CEC
S1130DD00FB6F8940F92F801F28CFF2061F1C680EF
S1130DE0D780B501C8017EDE811016C0FA94F801DF
S1130DF0F28E80819181892B21F466D7F801938347
S1130E008283F8018085882391F0C80108962BD647
S1130E10882369F023DD0BC0F801D782C68281895B
S1130E20882329F0C80141961ED6811117DD0F9041
S1130E300FBE81E051C08C819D81892B21F40F90DC
S1130E400FBE80E049C0E11004C0CE01019653D624
S1130E50E92C0F900FBE38D40FB6F8940F92F80116
S1130E60858D8F3F09F4158EF801868D8F3F09F427
S1130E70168E0F900FBEBE016C5F7F4FCE010196A0
S1130E8045D6811120C0C801C3DD8823C1F0F80113
S1130E9080819181892B41F40FB6F8940F9282815D
S1130EA0938170D60F900FBE6C817D81C601CAD527
S1130EB0C80132DEC9D481118BCFD0DC89CFC801FF
S1130EC02BDEC2D485CFC80127DEBED4C801A0DD85
S1130ED0882309F47DCF80E00F900F900F900F903E
S1130EE00F90DF91CF911F910F91FF90EF90DF90C2
S1130EF0CF90BF90AF909F908F9008951F920F92C4
S1130F000FB60F9211240BB60F922F938F939F93CA
S1130F10AF93BF93EF93FF930FB6F8940F92809122
S1130F20F9029091FA020F900FBE892B31F4E1EC93
S1130F30F0E080818F7D80831CC0E9EFF2E0A48122
S1130F40B5812D91B583A48380859185A817B907B0
S1130F5021F486819781958384830FB6F8940F9248
S1130F60808191810197918380830F900FBE20939C
S1130F70C600FF91EF91BF91AF919F918F912F91F7
S1130F800F900BBE0F900FBE0F901F9018951F92DD
S1130F900F920FB60F9211240BB60F922F933F931B
S1130FA04F938F939F93AF93BF93EF93FF9380914E
S1130FB0C8008C7171F08091C80088230CF036C091
S1130FC0AEECB0E0E8ECF0E08C9180818823E4F3AF
S1130FD02DC04091CE000FB6F8940F92E2E5F3E0F5
S1130FE0218132810F900FBE83859485281739079C
S1130FF0E9F0E3E5F3E0A281B3814C93828193812C
S1131000019693838283208531858217930721F487
S113101086819781938382830FB6F8940F9280819F
S113102091810196918380830F900FBEFF91EF9180
S1131030BF91AF919F918F914F913F912F910F90BD
S11310400BBE0F900FBE0F901F9018951F920F921A
S11310500FB60F9211240BB60F922F938F939F9379
S1131060AF93BF93EF93FF930FB6F8940F928091D1
S11310705F03909160030F900FBE892B31F4E9EC6C
S1131080F0E080818F7D80831CC0EFE5F3E0A481D4
S1131090B5812D91B583A48380859185A817B9075F
S11310A021F486819781958384830FB6F8940F92F7
S11310B0808191810197918380830F900FBE20934B
S11310C0CE00FF91EF91BF91AF919F918F912F919E
S11310D00F900BBE0F900FBE0F901F9018951F928C
S11310E00F920FB60F9211240BB60F922F933F93CA
S11310F04F938F939F93AF93BF93EF93FF938091FD
S1131100D0008C7171F08091D00088230CF036C02F
S1131110A6EDB0E0E0EDF0E08C9180818823E4F36B
S11311202DC04091D6000FB6F8940F92EEE0F3E094
S1131130218132810F900FBE83859485281739074A
S1131140E9F0EFE0F3E0A281B3814C9382819381D3
S1131150019693838283208531858217930721F436
S113116086819781938382830FB6F8940F9280814E
S113117091810196918380830F900FBEFF91EF912F
S1131180BF91AF919F918F914F913F912F910F906C
S11311900BBE0F900FBE0F901F9018951F920F92C9
S11311A00FB60F9211240BB60F922F938F939F9328
S11311B0AF93BF93EF93FF930FB6F8940F92809180
S11311C01B0390911C030F900FBE892B31F4E1EDAA
S11311D0F0E080818F7D80831CC0EBE1F3E0A4818B
S11311E0B5812D91B583A48380859185A817B9070E
S11311F021F486819781958384830FB6F8940F92A6
S1131200808191810197918380830F900FBE2093F9
S1131210D600FF91EF91BF91AF919F918F912F9144
S11312200F900BBE0F900FBE0F901F9018951F923A
S11312300F920FB60F9211240BB60F922F933F9378
S11312404F938F939F93AF93BF93EF93FF938091AB
S113125030018C7171F08091300188230CF036C01C
S1131260A6E3B1E0E0E3F1E08C9180818823E4F32C
S11312702DC0409136010FB6F8940F92E0E3F3E0ED
S1131280218132810F900FBE8385948528173907F9
S1131290E9F0E1E3F3E0A281B3814C93828193818D
S11312A0019693838283208531858217930721F4E5
S11312B086819781938382830FB6F8940F928081FD
S11312C091810196918380830F900FBEFF91EF91DE
S11312D0BF91AF919F918F914F913F912F910F901B
S11312E00BBE0F900FBE0F901F9018951F920F9278
S11312F00FB60F9211240BB60F922F938F939F93D7
S1131300AF93BF93EF93FF930FB6F8940F9280912E
S11313103D0390913E030F900FBE892B31F4E1E31E
S1131320F1E080818F7D80831CC0EDE3F3E0A48134
S1131330B5812D91B583A48380859185A817B907BC
S113134021F486819781958384830FB6F8940F9254
S1131350808191810197918380830F900FBE2093A8
S11313603601FF91EF91BF91AF919F918F912F9192
S11313700F900BBE0F900FBE0F901F901895E09129
S11313809E02F0919F028081811107C08FEF9FEF31
S113139090937602809375020895E0919E02F091F5
S11313A09F020580F681E02D0680F781E02D828181
S11313B0938190937602809375020895FF920F9320
S11313C01F93CF93DF93EC01F62E00917D021091D1
S11313D07E028091D6029091D702029661D9CF3FC6
S11313E08FEFD80761F4FF2051F06091D60270911D
S11313F0D7026E5F7F4F80E892E000D92DC0C00F06
S1131400D11FE091D602F091D702D383C283C017D3
S1131410D10760F46091D6027091D70280919C024A
S113142090919D026E5F7F4F0AD916C06091D602DB
S11314307091D70280919E0290919F026E5F7F4FC0
S1131440FED88091750290917602C817D90720F4CE
S1131450D0937602C0937502DF91CF911F910F91C3
S1131460FF9008954F925F926F927F928F929F9216
S1131470AF92BF92CF92DF92EF92FF920F93CF93EE
S1131480DF934C016B015A012901CA010E94AB018F
S11314903C01892B09F4DFC088E290E00E94AB0193
S11314A0EC01892BB1F0788E6F8AA50165EA70E0B2
S11314B0C3010E94CC1381E0A81AB1088F89988DCA
S11314C0A80EB91ED6018C91898F8C91811105C00B
S11314D018C0C3010E94BD01BEC0AE01465E5F4F8D
S11314E0F6013196B8E0CB0ED11CCF012191DA017F
S11314F02D93AD01DC018C91882319F0EC15FD05C9
S1131500A1F718A2043008F003E00E8B09A31AA275
S11315106E01B2E0CB0ED11CC6016CD8CE010C9684
S113152069D8D987C88784E090E0801B91099D879A
S11315308C87DB8BCA8B1BA21CA21DA21EA21FA21E
S1131540A201B401C501D2D899838883E114F104BE
S113155019F0F701D183C0830FB6F8940F928091EC
S11315607F028F5F80937F028091D6029091D70291
S1131570892B89F5D093D702C093D60280917F023C
S1131580813009F038C082EB92E026D88BEB92E0F0
S113159023D884EC92E020D88DEC92E01DD889EA1F
S11315A092E01AD880EA92E017D883E992E014D83E
S11315B08AE892E011D880E892E00ED889EA92E0B5
S11315C090939F0280939E0280EA92E090939D0202
S11315D080939C0210C080917B0281110CC0E09129
S11315E0D602F091D70296898E89891720F0D0937C
S11315F0D702C093D602809177028F5F80937702DF
S11316008E8990917C02981710F480937C0290E06C
S11316109C01220F331F220F331F220F331F820F0F
S1131620931FB6018E549D4F0E94FE020F900FBE71
S113163080917B02882359F0E091D602F091D70281
S113164096898E89981728F409D981E005C081E02C
S113165003C081E001C08FEFDF91CF910F91FF9024
S1131660EF90DF90CF90BF90AF909F908F907F903E
S11316706F905F904F900895EF92FF920F930F2E0B
S1131680F3E7EF2EF2E0FF2EF02D00E020E030E053
S113169045E550E067E072E083E391E0E3DE81300A
S11316A079F4F8948FEF9FEF90937602809375020C
S11316B081E080937B0210927E0210927D0288D892
S11316C00F91FF90EF900895809172028F5F809345
S11316D072020895CF92DF92EF92FF920F931F93BD
S11316E0CF93DF9380917202811198C0E0907D02C4
S11316F0F0907E028FEFE81AF80AF0927E02E092F0
S11317007D02E114F104B1F480919E0290919F0254
S113171020919C0230919D0230939F0220939E025F
S113172090939D0280939C02809178028F5F8093B6
S1131730780225DE8091750290917602E816F9060A
S113174010F4D12C53C0D12CCC24C394E0919E022C
S1131750F0919F028081811107C08FEF9FEF9093DA
S113176076028093750242C0E0919E02F0919F023E
S11317700580F681E02DC681D7818A819B81E81698
S1131780F90628F490937602809375022FC08E0197
S11317900E5F1F4FC8010E9450038C899D89892BBD
S11317A021F0CE010C960E9450038E8990917C0208
S11317B0981710F480937C0290E09C01220F331F51
S11317C0220F331F220F331F820F931FB8018E5431
S11317D09D4F0E94FE02E091D602F091D7029E89AD
S11317E08689981708F4B2CFDC2CB0CFE091D602EA
S11317F0F091D702868990E0FC01EE0FFF1FEE0FF7
S1131800FF1FEE0FFF1F8E0F9F1FFC01EE54FD4FB5
S11318108081823048F0DD24D39406C080917A021E
S11318208F5F80937A02D12C80917902882311F002
S1131830DD24D3948D2DDF91CF911F910F91FF90D3
S1131840EF90DF90CF900895DF92EF92FF920F9385
S11318501F93CF93DF930FB6F8940F928091720287
S11318608150809372028091720281115DC08091D7
S11318707F02811133C05BC0D7011596ED91FC91B5
S11318801697C681D781CE010C960E9450038E0113
S11318900E5F1F4FC8010E9450038E8990917C02F5
S11318A0981710F480937C0290E09C01220F331F60
S11318B0220F331F220F331F820F931FB8018E5440
S11318C09D4F0E94FE02E091D602F091D7029E89BC
S11318D08689981768F0D09279020AC0C0E0D0E0F7
S11318E00F2EF3E9EF2EF2E0FF2EF02DDD24D3943A
S11318F0F70180818111C0CFCD2B09F040DDC0916B
S11319007A02CC2349F0D1E0E5DE8111D09379024B
S1131910C150D1F710927A0280917902882331F074
S11319200E942E0481E003C080E001C080E00F909B
S11319300FBEDF91CF911F910F91FF90EF90DF9039
S1131940089580917202882321F081E080937902C6
S1131950089510927902A091D602B091D702E09135
S1131960D602F091D7022D913C918789908D8217F0
S1131970930760F06091D6027091D7028091D602ED
S11319809091D702675E7F4F0E94EF0120917C0205
S1131990822F90E0FC01EE0FFF1FEE0FFF1FEE0FF2
S11319A0FF1FE80FF91FEE54FD4F3081311111C0B4
S11319B02150822F90E0FC01EE0FFF1FEE0FFF1F5E
S11319C0EE0FFF1FE80FF91FEE54FD4F3081332354
S11319D079F3AC01440F551F440F551F440F551F95
S11319E0480F591FDA01AE54BD4F1196ED91FC9189
S11319F012970280F381E02D1296FC93EE931197D7
S1131A004B545D4FE417F50729F442815381FD01DE
S1131A1052834183FC01EE0FFF1FEE0FFF1FEE0FF9
S1131A20FF1F8E0F9F1FFC01EE54FD4F0180F281BA
S1131A30E02D868197819093D7028093D6022093DC
S1131A407C020895CF93DF93EB016091D6027091ED
S1131A50D702645F7F4F0E941F0361E0CE01AEDCBA
S1131A60DF91CF9108950F931F93CF93DF93DC0100
S1131A701596ED91FC911697C681D7818E01045F6E
S1131A801F4FC8010E9450038091720281111CC033
S1131A900A501109C8010E9450038E8990917C025A
S1131AA0981710F480937C0290E09C01220F331F5E
S1131AB0220F331F220F331F820F931FB8018E543E
S1131AC09D4F0E94FE0205C0B80183E992E00E9486
S1131AD0FE02E091D602F091D7029E898689891789
S1131AE020F481E08093790201C080E0DF91CF91FE
S1131AF01F910F91089520917802FC012083209179
S1131B007D0230917E023283218308950FB6F894CA
S1131B100F9240917D0250917E02DB012D913C9108
S1131B202F3FBFEF3B0711F1E0917802DC01FC91FC
S1131B30FE1739F01196ED91FC9112974E175F073D
S1131B40B8F4DC011196ED91FC911297DA01AE1B09
S1131B50BF0BA217B30770F4DB01E41BF50B2E0FC8
S1131B603F1F2D933C93C7DF80E005C080E003C096
S1131B7081E001C081E00F900FBE089581E0809361
S1131B80790208950F931F93CF93DF93FC01892B60
S1131B9009F455C02689A091D602B091D702569671
S1131BA08C91281708F04BC084859585992364F09F
S1131BB0A091D602B091D70256963C9184E090E071
S1131BC0831B91099587848730E0C901880F991F89
S1131BD0880F991F880F991F280F391F2E543D4FC6
S1131BE0828593858217930719F58F01EF01229659
S1131BF0CE010E945003E091D602F091D70286896B
S1131C00F801868B90917C02981710F480937C02E3
S1131C1090E09C01220F331F220F331F220F331F2A
S1131C20820F931FBE018E549D4F0E94FE0207C077
S1131C30A091D602B091D70256968C91868BDF91F3
S1131C40CF911F910F9108950F931F93CF93DF931B
S1131C50FC01892B79F182A1815082A3268991A16B
S1131C60291751F181112AC0EF018F010E5F1F4F17
S1131C70C8010E94500389A18E8B24E030E0281B08
S1131C8031093D872C8790917C02981710F480933A
S1131C907C0290E09C01220F331F220F331F220F7E
S1131CA0331F820F931FB8018E549D4F0E94FE0272
S1131CB081E005C080E003C080E001C080E0DF91E6
S1131CC0CF911F910F9108958091D6029091D702E0
S1131CD0892B39F0E091D602F091D70282A18F5F6F
S1131CE082A38091D6029091D702089540E050E0FB
S1131CF0EAE8F0E0809174049091750499279A01C0
S1131D00281B390B220F331F220F331F220F331FBF
S1131D10820F931F955B91838083ECCF40E062E058
S1131D208AE00E940F069093790480937804892BAB
S1131D3049F440E062E08AE00E940F06909379043F
S1131D408093780440E062E08AE00E940F0690935A
S1131D50770480937604892B49F440E062E08AE0BA
S1131D600E940F069093770480937604089520E0F0
S1131D7040E050E064E774E0809176049091770449
S1131D800C943906089520E040E050E06BE774E0DD
S1131D9080917804909179040C94CB0608959093E3
S1131DA0C5008093C40088E98093C10086E08093D5
S1131DB0C2000895E0ECF0E0908195FFFDCF8093A0
S1131DC0C6000895CF93DF93EC018881882329F01E
S1131DD02196F0DF89918111FCCF8AE0EBDF8DE061
S1131DE0E9DFDF91CF9108950F2EFEE1CF2ED12CA4
S1131DF0F02D0F2EFCE0EF2EF2E0FF2EF02D04E785
S1131E0013E0C1DF80917B0490917C044F9724F010
S1131E10D0927C04C0927B04C0917B04D0917C045A
S1131E20BE010D2E000C880B990B5AD220E030E035
S1131E3040EF51E4BAD120E030E044E353E4DCD293
S1131E401CD260937404709375047F936F93DF9333
S1131E50CF93FF92EF921F930F93A5D4C801B2DFE3
S1131E6086DF8DB79EB708960FB6F8949EBF0FBE57
S1131E708DBFC7CF1F920F920FB60F9211240BB6CE
S1131E800F922F933F934F935F936F937F938F930F
S1131E909F93AF93BF93EF93FF938091C60080937A
S1131EA07A0488DF81E090E09093E3028093E20279
S1131EB0FF91EF91BF91AF919F918F917F916F911E
S1131EC05F914F913F912F910F900BBE0F900FBEDA
S1131ED00F901F901895E9E6F0E08081846080837C
S1131EE0E99A08951F920F920FB60F9211240BB620
S1131EF00F922F933F934F935F936F937F938F939F
S1131F009F93AF93BF93EF93FF938091E102882354
S1131F10C1F18091E002811110C081E08093E00260
S1131F201092DC021092DD021092DE021092DF02A7
S1131F30109295001092940024C01092E002209117
S1131F40DC023091DD024091DE025091DF02E0912B
S1131F509400F0919500AFEFBFEFEAD26E0F7F1FB0
S1131F60811D911D24E730E040E050E0A8D2209389
S1131F70D8023093D9024093DA025093DB021092D4
S1131F80E102FF91EF91BF91AF919F918F917F916A
S1131F906F915F914F913F912F910F900BBE0F90D6
S1131FA00FBE0F901F901895289885E08A95F1F739
S1131FB00000289A81E08093E10285E38A95F1F795
S1131FC00000289808958091E1028111FCCF2FEF41
S1131FD080E792E0215080409040E1F700C000008B
S1131FE0E3DF20E040E050E068ED72E080917804A7
S1131FF0909179040E943906E6CFE1E9F0E080810E
S1132000826080831092950010929400E1E7F0E0E2
S113201080818160808308951F920F920FB60F9282
S113202011240BB60F922F933F934F935F936F93AB
S11320307F938F939F93AF93BF93EF93FF9380917D
S1132040E0028823E1F18091DC029091DD02A0910D
S1132050DE02B091DF020196A11DB11D8093DC0266
S11320609093DD02A093DE02B093DF022091DC02A4
S11320703091DD024091DE025091DF02E091940044
S1132080F0919500AFEFBFEF53D2DC01CB018E0F7F
S11320909F1FA11DB11D8130944DA043B10578F05F
S11320A01092E0021092E1028FEF9FEFDC01809327
S11320B0D8029093D902A093DA02B093DB02FF9185
S11320C0EF91BF91AF919F918F917F916F915F91AC
S11320D04F913F912F910F900BBE0F900FBE0F9019
S11320E01F901895269A82E38093800082E1809362
S11320F0810080E29EE49093870080938600109292
S113210085001092840080E09BE490938B00809380
S11321108A00EFE6F0E08081826080830895EF9288
S1132120FF920F93209A87E690E039DED4DE65DFD4
S1132130D9DF7894F3DD86E292E044DEE12CF12CE1
S113214003E020E030E040E051E061E372E084EF3E
S11321509EE088D920E030E040E051E06DE372E099
S113216083EE9FE07FD920E030E040E051E06AE474
S113217072E086E79EE076D97FDA80E090E00F9106
S1132180FF90EF9008951F920F920FB60F921124B3
S11321908F939F9395B180E4892785B99F918F91FF
S11321A00F900FBE0F901F9018950CD0EBC0E3D08A
S11321B040F0DAD030F021F45F3F19F0CCC0511177
S11321C015C1CFC0F0D098F39923C9F35523B1F3C7
S11321D0951B550BBB27AA2762177307840738F092
S11321E09F5F5F4F220F331F441FAA1FA9F333D0F1
S11321F00E2E3AF0E0E830D091505040E695001CA5
S1132200CAF729D0FE2F27D0660F771F881FBB1F60
S1132210261737074807AB07B0E809F0BB0B802D3A
S1132220BF01FF2793585F4F2AF09E3F510568F086
S113223092C0DCC05F3FECF3983EDCF38695779563
S11322406795B795F7959F5FC9F7880F911D969588
S1132250879597F90895E1E0660F771F881FBB1FE4
S1132260621773078407BA0720F0621B730B840B91
S1132270BA0BEE1F88F7E095089504D06894B11165
S1132280B5C0089598D088F09F5790F0B92F99273A
S1132290B751A0F0D1F0660F771F881F991F1AF06D
S11322A0BA95C9F712C0B13081F09FD0B1E008955A
S11322B09CC0672F782F8827B85F39F0B93FCCF3DB
S11322C0869577956795B395D9F73EF49095809563
S11322D0709561957F4F8F4F9F4F0895E89409C083
S11322E097FB3EF490958095709561957F4F8F4F45
S11322F09F4F9923A9F0F92F96E9BB279395F6955B
S1132300879577956795B795F111F8CFFAF4BB0FD8
S113231011F460FF1BC06F5F7F4F8F4F9F4F16C03C
S1132320882311F096E911C0772321F09EE8872FC6
S1132330762F05C0662371F096E8862F70E060E082
S11323402AF09A95660F771F881FDAF7880F9695FB
S1132350879597F9089597F99F6780E870E060E0A2
S113236008959FEF80EC089500240A94161617062A
S113237018060906089500240A9412161306140672
S113238005060895092E0394000C11F4882352F0D5
S1132390BB0F40F4BF2B11F460FF04C06F5F7F4F8D
S11323A08F4F9F4F089557FD9058440F551F59F074
S11323B05F3F71F04795880F97FB991F61F09F3F2E
S11323C079F087950895121613061406551FF2CF57
S11323D04695F1DF08C0161617061806991FF1CFA7
S11323E086957105610508940895E894BB276627CE
S11323F07727CB0197F908950BD0C4CFB5DF28F028
S1132400BADF18F0952309F0A6CFABCF1124EECF95
S1132410CADFA0F3959FD1F3950F50E0551F629F3B
S1132420F001729FBB27F00DB11D639FAA27F00D29
S1132430B11DAA1F649F6627B00DA11D661F829F50
S11324402227B00DA11D621F739FB00DA11D621F35
S1132450839FA00D611D221F749F3327A00D611D52
S1132460231F849F600D211D822F762F6A2F112434
S11324709F5750408AF0E1F088234AF0EE0FFF1F87
S1132480BB1F661F771F881F91505040A9F79E3FBE
S1132490510570F060CFAACF5F3FECF3983EDCF3B8
S11324A0869577956795B795F795E7959F5FC1F7FB
S11324B0FE2B880F911D9695879597F90895A1E2B3
S11324C01A2EAA1BBB1BFD010DC0AA1FBB1FEE1FAA
S11324D0FF1FA217B307E407F50720F0A21BB30BF5
S11324E0E40BF50B661F771F881F991F1A9469F771
S11324F060957095809590959B01AC01BD01CF01CD
S11325000895EE0FFF1F881F8BBF0790F691E02DF3
S11325101994A29FB001B39FC001A39F700D811DA8
S11325201124911DB29F700D811D1124911D0895D8
S1132530F0DFA59F900DB49F900DA49F800D911D79
S1132540112408950F931F93CF93DF938230910545
S113255010F482E090E0E0917F04F091800420E0A8
S113256030E0A0E0B0E0309719F140815181028160
S1132570138148175907C8F08417950769F4109711
S113258031F012960C93129713961C9327C0009364
S11325907F041093800422C02115310519F04217DD
S11325A0530718F49A01BD01EF01DF01F801DBCFF5
S11325B021153105F9F0281B390B2430310580F43D
S11325C08A819B816115710521F0FB0193838283CC
S11325D004C09093800480937F04FE01329644C02B
S11325E0FE01E20FF31F8193919322503109398345
S11325F028833AC020917D0430917E04232B41F43A
S1132600209102023091030230937E0420937D04D2
S113261020910002309101022115310541F42DB7BA
S11326203EB74091040250910502241B350BE09102
S11326307D04F0917E04E217F307A0F42E1B3F0BF8
S11326402817390778F0AC014E5F5F4F2417350720
S113265048F04E0F5F1F50937E0440937D04819396
S1132660919302C0E0E0F0E0CF01DF91CF911F91A0
S11326700F910895CF93DF93009709F481C0FC0173
S1132680329713821282A0917F04B0918004109734
S113269081F420813181820F931F20917D04309138
S11326A07E042817390751F5F0937E04E0937D04E6
S11326B067C0ED0120E030E0CE17DF0740F44A8127
S11326C05B819E0141155105F1F0EA01F5CFD383F9
S11326D0C28340815181840F951FC817D90759F4CB
S11326E088819981840F951F0296918380838A81C2
S11326F09B81938382832115310529F4F09380040F
S1132700E0937F043DC0E901FB83EA834991599139
S1132710C40FD51FEC17FD0761F480819181840FEC
S1132720951F0296E90199838883828193819B8313
S11327308A83E0E0F0E012968D919C9113970097C4
S113274019F0FD01DC01F7CF8D919C9111979D014A
S11327502E5F3F4F820F931F20917D0430917E04A2
S11327602817390769F4309729F4109280041092DD
S11327707F0402C013821282B0937E04A0937D046E
S1132780DF91CF910895FB01DC0102C001900D920D
S113279041505040D8F70895DC0101C06D93415079
S11327A05040E0F708950F931F93CF93DF93CDB775
S11327B0DEB72E970FB6F894DEBF0FBECDBF0E89DD
S11327C01F8986E08C831A8309838FEF9FE79E839A
S11327D08D83AE01465E5F4F688D798DCE01019683
S11327E010D0EF81F885E00FF11F10822E960FB6FE
S11327F0F894DEBF0FBECDBFDF91CF911F910F9133
S113280008952F923F924F925F926F927F928F9290
S11328109F92AF92BF92CF92DF92EF92FF920F936B
S11328201F93CF93DF93CDB7DEB72B970FB6F894F2
S1132830DEBF0FBECDBF6C017B018A01FC01178294
S11328401682838181FFBFC1CE0101963C01F6014E
S11328509381F70193FD859193FF81917F018823F3
S113286009F4ADC1853239F493FD859193FF8191CB
S11328707F01853221F4B60190E0D6D1E8CF912CC6
S1132880212C312CFFE1F315D8F08B3279F038F498
S1132890803279F08332A1F4232D20611DC08D3262
S11328A061F0803369F4232D216016C0832D82608A
S11328B0382EE32DE4603E2E2AC0F32DF8601DC0AF
S11328C037FC2DC020ED280F2A3040F08E32B9F4A9
S11328D036FC75C1232D2064322E19C036FE06C085
S11328E08AE0989E200D1124922E11C0EAE02E9EBB
S11328F0200D1124222EF32DF0623F2E08C08C36B9
S113290021F4832D8068382E02C0883641F4F70103
S113291093FD859193FF81917F018111B3CF982F0E
S11329209F7D9554933028F40C5F1F4F9FE3998348
S11329300DC0833631F0833771F0833509F055C00B
S113294020C0F801808189830E5F1F4F88248394FF
S1132950912C530112C02801F2E04F0E511CF801D2
S1132960A080B18036FE03C0692D70E002C06FEF15
S11329707FEFC5014ED14C018201F32DFF773F2E2D
S113298015C0280122E0420E511CF801A080B1803C
S113299036FE03C0692D70E002C06FEF7FEFC50102
S11329A02DD14C01F32DF0683F2E820133FC19C068
S11329B0822D90E088169906A0F4B60180E290E09A
S11329C033D12A94F5CFF50137FC859137FE8191F7
S11329D05F01B60190E028D121102A9421E0821AE7
S11329E091088114910479F7E1C0843611F0893695
S11329F039F5F80137FE07C06081718182819381C6
S1132A000C5F1F4F08C060817181072E000C880B7A
S1132A10990B0E5F1F4FF32DFF763F2E97FF09C0D2
S1132A2090958095709561957F4F8F4F9F4FF0687B
S1132A303F2E2AE030E0A30133D1882E861844C00B
S1132A40853731F4232D2F7EB22E2AE030E025C0C5
S1132A50932D997FB92E8F36C1F018F4883579F00B
S1132A60AEC0803719F0883721F0A9C0E92FE061A2
S1132A70BE2EB4FE0DC0FB2DF460BF2E09C034FE83
S1132A800AC0292F2660B22E06C028E030E005C017
S1132A9020E130E002C020E132E0F801B7FE07C0D7
S1132AA060817181828193810C5F1F4F06C06081B8
S1132AB0718180E090E00E5F1F4FA301F1D0882E5A
S1132AC08618FB2DFF773F2E36FE0DC0232D2E7F5B
S1132AD0A22E891458F434FE0BC032FC09C0832D95
S1132AE08E7EA82E05C0B82CA32C03C0B82C01C020
S1132AF0B92CA4FE0FC0FE01E80DF11D80818033C6
S1132B0021F49A2D997EA92E09C0A2FE06C0B39481
S1132B10B39404C08A2D867809F0B394A3FC10C042
S1132B20A0FE06C0B21480F4280C922C9B180DC091
S1132B30B21458F4B60180E290E076D0B394F8CFA2
S1132B40B21418F42B1802C0982C212CA4FE0FC028
S1132B50B60180E390E068D0A2FE16C0A1FC03C0D9
S1132B6088E790E002C088E590E0B6010CC08A2DA9
S1132B70867851F0A1FE02C08BE201C080E2A7FC7E
S1132B808DE2B60190E050D0891430F4B60180E3B0
S1132B9090E04AD09A94F8CF8A94F301E80DF11D9D
S1132BA08081B60190E040D08110F6CF222009F454
S1132BB04ECEB60180E290E037D02A94F7CFF601EA
S1132BC08681978102C08FEF9FEF2B960FB6F89402
S1132BD0DEBF0FBECDBFDF91CF911F910F91FF904C
S1132BE0EF90DF90CF90BF90AF909F908F907F90A9
S1132BF06F905F904F903F902F900895FC01059047
S1132C00615070400110D8F7809590958E0F9F1FEA
S1132C100895FC016150704001900110D8F780952F
S1132C2090958E0F9F1F08950F931F93CF93DF935B
S1132C30FB01238121FD03C08FEF9FEF2CC022FFF6
S1132C4016C046815781248135814217530744F4C5
S1132C50A081B1819D012F5F3F4F318320838C93ED
S1132C60268137812F5F3F4F3783268314C08B0122
S1132C70EC01FB010084F185E02D1995892BE1F627
S1132C80D80116968D919C911797019617969C934F
S1132C908E931697CE01DF91CF911F910F910895D6
S1132CA0FA01AA27283051F1203181F1E8946F9379
S1132CB06E7F6E5F7F4F8F4F9F4FAF4FB1E03ED01F
S1132CC0B4E03CD0670F781F891F9A1FA11D680FBD
S1132CD0791F8A1F911DA11D6A0F711D811D911DF0
S1132CE0A11D20D009F468943F912AE0269F112465
S1132CF03019305D3193DEF6CF010895462F4770C9
S1132D00405D4193B3E00FD0C9F7F6CF462F4F7023
S1132D10405D4A3318F0495D31FD4052419302D081
S1132D20A9F7EACFB4E0A695979587957795679527
S1132D30BA95C9F700976105710508959B01AC0127
S1132D400A2E06945795479537952795BA95C9F74E
S1132D50620F731F841F951FA01D0895F894FFCF61
S1132D60000081042000F849444C45004166737416
S1132D70616E64203D202564434D2C20486F656BB3
S1132D80203D20256400536574757020646F6E6562
S1132D900051756575652054616B656E00536F6EE7
S1132DA061722053656E736F7200536572766F2083
S1092DB04D6F746F720008
S9030000FC
