S024000054656D70657261747575725F6C75636874766F6368746967686569642E7372656355
S1130000BBC10000D9C10000D7C10000D5C10000A8
S1130010D3C100009CC70000CFC10000CDC10000C7
S1130020CBC10000CDC40000C7C10000C5C10000A1
S1130030C3C10000C1C10000BFC10000BDC10000B8
S1130040BBC1000027C70000B7C10000B5C1000054
S1130050B3C100000C94B70AAFC10000ADC10000E9
S1130060ABC10000A9C100000C94590CA5C100004B
S1130070A3C10000A1C100009FC100009DC10000F8
S11300809BC1000099C1000097C100003CC500005D
S1130090C1C300000C94A20C8FC10000FBC100007E
S11300A08BC1000089C1000087C1000085C1000028
S11300B083C1000081C100007FC100007DC1000038
S11300C07BC1000079C1000077C100000C94EB0CE7
S11300D00C944A0D71C100000C94930D0C94F20D14
S11300E06BC10000690224032403240324032403B2
S11300F02403240369022403240324032403240380
S1130100240324036B02240324032403240324036D
S11301102403240388022403240324032403240340
S1130120240324036B02240324032403240324034D
S11301302403240388022403240324032403240320
S11301402403240320032403240324032403240377
S1130150240324039C0224032403240324032403EC
S113016024032403BF0224032403240324032403B9
S113017024032403900224032403240324032403D8
S113018024032403AE0224032403240324032403AA
S113019024032403F6022403240324032403240352
S11301A024032403F6022403240324032403240342
S11301B024032403F1022403240324032403240337
S11301C024032403F1022403240324032403240327
S11301D02403240301032403240324032403240306
S11301E024032403160324032403240324032403E1
S11301F024032403010324032403240324032403E6
S113020024032403160324032403240324032403C0
S1130210240324031A0324032403240324032403AC
S113022024032403C70224032403240324032403F0
S113023024032403C70224032403240324032403E0
S113024024032403C90224032403240324032403CE
S113025024032403D90224032403240324032403AE
S113026024032403ED02D408E308DC08E308E308CC
S1130270E308E308E308E308E308E308E308E30822
S1130280E308E308E308E308E308E308E308E30812
S1130290E308E308E308E308E308E308E308E30802
S11302A0E308E308E308E308E308E308E308E308F2
S11302B0E308E308E308E308E308E308E308E308E2
S11302C0CE08E308E308E308E308E308E308E308E7
S11302D0E308BE08E308E308C608E308E308E30804
S11302E0E308E308E308E308E308E308E308E308B2
S11302F0E308E308E308C108E308E308E308B908EE
S113030022090AED12E00F2EF2E0EF2EF3E0FF2EA9
S1130310F02D26C00E94EE0FD801CC910E94AE10A1
S1130320CC23F1F00FB6F8940F92D8011596ED9105
S1130330FC911697C681D781CE010296FFD1809198
S1130340CF0281508093CF028091D9028150809353
S1130350D9020F900FBE8F89988D5DD0CE015BD0EE
S11303608091D9028111D6CFF7018081823010F0BB
S11303700E94DF095FD0F4CF11241FBECFEFD1E27A
S1130380DEBFCDBF00E00CBF12E0A0E0B2E0E8E8C1
S1130390F8E200E00BBF02C007900D92AC39B10740
S11303A0D9F725E0ACE9B2E001C01D92A130B20753
S11303B0E1F71BD60C94421423CE8F938FB78F93FF
S11303C0F8948091FD048F5F8093FD048091FE0476
S11303D08F4F8093FE048091FF048F4F8093FF041E
S11303E0809100058F4F809300058F918FBF8F916F
S11303F00895CF93DF93EC010E94EE0FCE010E948B
S1130400DE12EC010E94AE10209709F42CD0CE012C
S1130410DF91CF910895CF93DF93009741F0EC01E2
S11304200E94EE0FCE010E9476130E94AE10DF915F
S1130430CF9108958FEF80937E0080937D0080B7E5
S1130440877F80BF80B7806880BF83B7817F83BF89
S11304500FB6F8940F9283B7816083BF0F900FBEDD
S1130460889513BE0895279A2F9A83ED90E30197F8
S1130470F1F700C000001F9AF8CF279A2F9A2FE7B0
S11304808AE196E0215080409040E1F700C00000EE
S11304901F9AF5CF1F920F920FB60F9211240BB62D
S11304A00F922F933F938F939F93AF93BF93EF93A9
S11304B0FF93E091B9008E2F90E0FC013897E13C66
S11304C0F10508F0C1C08827EE58FF4F8F4F0C94F8
S11304D0BD1210929C02E0919C0280919F02E81749
S11304E070F481E08E0F80939C02F0E0E056FD4FA3
S11304F080818093BB0085E88093BC00ACC0809170
S11305009D02816080939D0284E98093BC00A3C016
S11305108091B9008093060285EE8093BC009BC055
S1130520E0919C0281E08E0F80939C028091BB003D
S1130530F0E0E056FD4F808320919C0230E08091F2
S11305409F0290E001972817390724F485EC8093E3
S1130550BC0081C085E88093BC007DC08091BB0055
S1130560E0919C02F0E0E056FD4F808380919D0273
S1130570816080939D0284ED8093BC006CC0809167
S1130580B9008093060285ED8093BC0064C010928C
S11305909C02E0919C0281E08E0F80939C02F0E02B
S11305A0E056FD4F80818093BB0085EC8093BC00B6
S11305B052C090919C0280919F02981306C0809132
S11305C09D02816080939D0204C08091B900809354
S11305D0060284E08093BC003EC085EC8093BC009E
S11305E03AC080919D02846080939D0280919D0217
S11305F0826080939D0210929C0285EC8093BC00E3
S11306002AC0E0919C0281E08E0F80939C0280912D
S1130610BB00F0E0E056FD4F808380919D02816035
S113062080939D0285EC8093BC0015C085E880937F
S1130630BC0011C084E080939E028093BC000BC078
S113064085EE8093BC0007C08091B90080930602B8
S113065085ED8093BC00FF91EF91BF91AF919F9185
S11306608F913F912F910F900BBE0F900FBE0F9063
S11306701F901895FC010396928381832FEF3FEF1F
S11306803483238396838583908787831082089598
S1130690FC01118610860895CF93DF939C01FB0122
S11306A0DC011196CD91DC911297D383C2838C81A6
S11306B09D81958384838C819D81DC0113967C9339
S11306C06E9312977D836C8331872087F901808133
S11306D08F5F8083DF91CF910895CF93DF93EB01F8
S11306E0488159814F3F2FEF520721F4FC01A78124
S11306F0B0850DC0DC01139601C0DF011296ED91A7
S1130700FC9113972081318142175307B0F7129659
S1130710ED91FC911397FB83EA83D583C483BD8356
S1130720AC831396DC93CE93129799878887FC0148
S113073020812F5F2083DF91CF910895CF93DF93A2
S1130740FC01A085B185C281D381848195819D837B
S11307508C83C481D581828193819B838A83119602
S11307608D919C911297E817F90731F48481958152
S113077012969C938E931197118610868C918150BA
S11307808C93DF91CF9108958FE99FE00197F1F762
S113079000C000008091300390913103892BA1F3B4
S11307A080915C0490915D04892B71F380912E03F8
S11307B090912F03892B41F380914C0490914D0427
S11307C0892B11F3A89510923103109230031092E3
S11307D05D0410925C0410922F0310922E03109269
S11307E04D0410924C04D0CF1092CD0087E6809334
S11307F0CC001092C80086E08093CA0088EB8093F6
S1130800C9000895E8ECF0E0908195FFFDCF809356
S1130810CE0008951F920F920FB60F9211248F935A
S11308208091CE0080935E048F910F900FBE0F9045
S11308301F901895CF93DF93EC018881882329F0CA
S11308402196E0DF89918111FCCFDF91CF9108954A
S1130850CF93DF93CDB7DEB761970FB6F894DEBFC1
S11308600FBECDBFDC01CB014AE0BE016F5F7F4FFD
S11308700E940F14CE010196DDDF61960FB6F89445
S1130880DEBF0FBECDBFDF91CF9108950AE810E01F
S1130890C1E0D0E0E12CF12CF0925704E092560430
S11308A0C70199279C01220F331F220F331F220FE8
S11308B0331F821B930B955BF80191838083FFEFB9
S11308C024E38CE0F15020408040E1F700C00000B8
S11308D087E092E0AFDF6091560470915704072ED1
S11308E0000C880B990BB4DF80E192E0A3DF6091E8
S11308F0610470916204072E000C880B990BA8DF29
S11309008BE192E097DF6091320370913303072EFD
S1130910000C880B990B9CDF85E292E08BDF6091E1
S1130920670470916804072E000C880B990B90DF04
S11309308AE292E07FDF60914E0470914F04072EAB
S1130940000C880B990B84DF8FE292E073DF6091D7
S11309502C0370912D03072E000C880B990B78DF64
S113096085E292E067DF6091280370912903072EE6
S1130970000C880B990B6CDF8AE292E05BDF6091DC
S11309805F0470916004072E000C880B990B60DFE4
S1130990D0935D04C0935C049BE1E90EF11CE8ED87
S11309A0EE16F10409F078CF75CFE8E6F0E0808127
S11309B081608083EBE6F0E080818260808308952B
S11309C01F920F920FB60F9211240BB60F922F9312
S11309D03F934F935F936F937F938F939F93AF93C3
S11309E0BF93EF93FF938091C1028823D1F180914B
S11309F0C002811110C081E08093C0021092BC0239
S1130A001092BD021092BE021092BF021092950085
S1130A101092940026C01092C0022091BC02309122
S1130A20BD024091BE025091BF02E0919400F0914A
S1130A309500AFEFBFEF0E94D4126E0F7F1F811D90
S1130A40911D24E730E040E050E00E949B12209387
S1130A50B8023093B9024093BA025093BB02109289
S1130A60C102FF91EF91BF91AF919F918F917F91BF
S1130A706F915F914F913F912F910F900BBE0F900B
S1130A800FBE0F901F901895289885E08A95F1F76E
S1130A900000289A81E08093C10285E38A95F1F7EA
S1130AA0000028980895C1E0D0E08091C10281112E
S1130AB016C02FEF80E792E0215080409040E1F78C
S1130AC000C00000E1DF8091B8029091B902A091CA
S1130AD0BA02B091BB029093620480936104D093F4
S1130AE03103C0933003E1CFE1E9F0E0808182601B
S1130AF080831092950010929400E1E7F0E08081E9
S1130B008160808308951F920F920FB60F92112473
S1130B100BB60F922F933F934F935F936F937F93F3
S1130B208F939F93AF93BF93EF93FF938091C002F2
S1130B308823E9F18091BC029091BD02A091BE028C
S1130B40B091BF020196A11DB11D8093BC02909388
S1130B50BD02A093BE02B093BF022091BC023091AB
S1130B60BD024091BE025091BF02E0919400F09109
S1130B709500AFEFBFEF0E94D412DC01CB018E0FC2
S1130B809F1FA11DB11D8130944DA043B10578F084
S1130B901092C0021092C1028FEF9FEFDC0180938C
S1130BA0B8029093B902A093BA02B093BB02FF912A
S1130BB0EF91BF91AF919F918F917F916F915F91D1
S1130BC04F913F912F910F900BBE0F900FBE0F903E
S1130BD01F901895EAE6F0E080818E7F8083808103
S1130BE082608083EC9A0895269A82E38093800041
S1130BF082E18093810080E29EE490938700809359
S1130C008600109285001092840080E09BE490930B
S1130C108B0080938A00EFE6F0E08081826080831D
S1130C2008951092B90088E48093B80084E080931A
S1130C30BC000895EF92FF920F931F93CF93DF931D
S1130C40ECEBF0E090819062908390819923ECF733
S1130C509091B900880F8F5F8093BB0084E88093E4
S1130C60BC00ECEBF0E080818823ECF78091B900C4
S1130C708091BB00DB018C9390E050E0415051091E
S1130C80ECEBF0E00F2EF4ECFF2EF02D0F2EF4E839
S1130C90EF2EF02D09EB10E0CBEBD0E0292F30E064
S1130CA02417350711F4E08201C0F0828081882383
S1130CB0ECF7D8018C912881DB01A90FB11D2C938D
S1130CC09F5F803559F384E98093BC00DF91CF9115
S1130CD01F910F91FF90EF900895ECEBF0E090815D
S1130CE09062908390819923ECF7880F8093BB00E6
S1130CF084E88093BC00ECEBF0E080818823ECF77F
S1130D006093BB0084E88093BC00ECEBF0E080814E
S1130D108823ECF784E98093BC000895CF93DF9394
S1130D201F921F92CDB7DEB7EE24E394F12C6BE350
S1130D3088E6D3DF41E0BE016F5F7F4F88E67ADF4C
S1130D4019816CE388E6C9DF41E0BE016F5F7F4F24
S1130D5088E670DF812F90E0982F88272981822BE5
S1130D6090933303809332036DE388E6B6DF41E06A
S1130D70BE016F5F7F4F88E65DDF19816EE388E611
S1130D80ACDF41E0BE016F5F7F4F88E653DF812F08
S1130D9090E0982F88272981822B90936804809370
S1130DA067046FE388E699DF41E0BE016F5F7F4F20
S1130DB088E640DF198160E488E68FDF41E0BE0108
S1130DC06F5F7F4F88E636DF812F90E0982F88276A
S1130DD02981822B90934F0480934E0463E488E628
S1130DE07CDF41E0BE016F5F7F4F88E623DF19811E
S1130DF064E488E672DF41E0BE016F5F7F4F88E6FE
S1130E0019DF812F90E0982F88272981822B9093D6
S1130E102D0380932C0365E488E65FDF41E0BE0187
S1130E206F5F7F4F88E606DF198166E488E655DF49
S1130E3041E0BE016F5F7F4F88E6FCDE812F90E0CA
S1130E40982F88272981822B909329038093280344
S1130E5067E488E642DF41E0BE016F5F7F4F88E6CA
S1130E60E9DE198168E488E638DF41E0BE016F5F9E
S1130E707F4F88E6DFDE812F90E0982F8827298135
S1130E80822B9093600480935F04F0922F03E0928E
S1130E902E034DCF1F920F920FB60F9211248F93F2
S1130EA09F9395B180E4892785B99F918F910F9085
S1130EB00FBE0F901F901895EBE0F1E080818F77C3
S1130EC080835F98A19A419A81E090E090934D04C9
S1130ED080934C040895A1984198EBE0F1E080815F
S1130EE0806880835F9A81E090E090934D048093C2
S1130EF04C0408955F98A198EBE0F1E0808180684C
S1130F008083419A81E090E090934D0480934C0457
S1130F1008954198EBE0F1E080818F778083A19A76
S1130F205F9A81E090E090934D0480934C0408957F
S1130F30A198EBE0F1E080818F77808341985F98FE
S1130F4081E090E090934D0480934C0408951F92A7
S1130F500F920FB60F9211240BB60F922F933F935B
S1130F604F935F936F937F938F939F93AF93BF93AD
S1130F70EF93FF9388E580935E04DADFFF91EF91AE
S1130F80BF91AF919F918F917F916F915F914F919D
S1130F903F912F910F900BBE0F900FBE0F901F909B
S1130FA01895C6DFEBE0F1E0808188608083808162
S1130FB0806280830895399A579AEAE0F1E080814B
S1130FC0886A8083999A8EEC8093200182E18093D1
S1130FD0210180E29EE490932701809326011092E0
S1130FE0250110922401DDCF0895EF92FF920F9313
S1130FF043E060E081E09FD390932B0380932A0326
S113100020E040E050E060E070E0C1D38AB183604A
S11310108AB9209AD0DF40E061E08AE08CD39093D3
S1131020370480933604E0DBC0DCD4DD5DDDDCDD39
S11310307894F7DD109231031092300310925D041E
S113104010925C04109251041092500410924D04BA
S113105010924C0498E288E10FB6F894A895809316
S113106060000FBE9093600086E19AEEACE9BBE3AA
S11310708093630490936404A0936504B09366041E
S113108083EE90EAABE8BAE38093690490936A0430
S1131090A0936B04B0936C048AE392E0CBDBE12C65
S11310A0F12C03E020E030E040E051E069E472E03C
S11310B083E595E057D620E030E040E051E066E576
S11310C072E086E494E04ED620E030E040E051E067
S11310D062E672E08EE896E045D620E030E040E03B
S11310E051E063E772E088E998E03CD604E020E050
S11310F030E040E051E068E872E084EC93E032D6FE
S113110045D780E090E00F91FF90EF90089528E399
S1131110382F329FC001931B1124805E914B909312
S113112029018093280190932D0180932C01089527
S113113084E1EDDF30E020E0C4E1D0E002E310E040
S1131140B12CCC24C3940F2EF0E3DF2EF02DEE242B
S1131150E394F12CE0915E048E2F90E0FC01BB97A8
S1131160EE34F10580F58827ED5CFE4F8F4F0C942B
S1131170BD128C2FCCDFDCDEAEDE66C0D9DEC9DE6C
S11311805EC08C2FC4DFD4DE97DE5EC0C333D105CE
S113119014F482E3BCDFCCDEADDE51C0C9DED092F4
S11311A05E043B2D2B2D46C0065F1F4F05361105EF
S11311B054F004E610E007C00A5011090431110587
S11311C014F404E110E0D0925E04222399F1332355
S11311D029F082E39CDF3C2D2C2D2CC0C017D107B5
S11311E07CF42296C536D10514F0C4E6D0E08C2FE9
S11311F08EDF89E190E00E942A113B2D2C2D1AC02C
S11312000C171D077CF42297C431D10514F4C4E1F2
S1131210D0E08C2F7CDF89E190E00E942A113B2DE5
S11312202C2D08C08C2F73DF89E190E00E942A11D5
S11312303B2D2C2DF0924D04E0924C048BCFD09298
S11312405E04C7CF04E110E0D0925E04C7CF31E161
S1131250FC013083319722E220833197A3E3A083FA
S11312603197608331977083319710823197108260
S1131270319760E8608331971082319710823197FB
S11312801082319762E06083319763E06083319725
S113129064E06083319765E06083319766E0608342
S11312A0319767E06083319768E06083319769E044
S11312B06083319760E1608331973083319732E105
S11312C03083319733E13083319734E13083319780
S11312D035E13083319736E13083319737E130831C
S11312E0319738E13083319739E13083319730E2F7
S11312F03083319731E2308331972083319723E271
S113130020833197408331975083319726E220839D
S1131310319727E22083319728E22083319729E20D
S11313202083319720E32083319721E32083899719
S1131330089588EC90E090936E0480936D049093EC
S1131340700480936F048DE487BD82E084BD85E0E2
S113135085BDEEE6F0E0808182608083A091260363
S1131360B0912703CD91CDBFDD91DEBFFF91EF9109
S1131370DF91CF91BF91AF919F918F917F916F91A9
S11313805F914F913F912F911F910F91FF90EF909B
S1131390DF90CF90BF90AF909F908F907F906F9091
S11313A05F904F903F902F901F900F900CBE0F9026
S11313B00BBE0F900FBE0F90089581E008950F9219
S11313C00FB6F8940F920BB60F920CB60F921F92B1
S11313D011242F923F924F925F926F927F928F923D
S11313E09F92AF92BF92CF92DF92EF92FF920F93B0
S11313F01F932F933F934F935F936F937F938F9399
S11314009F93AF93BF93CF93DF93EF93FF93A091F9
S11314102603B09127030DB60D920EB60D922AD76E
S1131420A0912603B0912703CD91CDBFDD91DEBFFE
S1131430FF91EF91DF91CF91BF91AF919F918F91E8
S11314407F916F915F914F913F912F911F910F91D8
S1131450FF90EF90DF90CF90BF90AF909F908F90D0
S11314607F906F905F904F903F902F901F900F90C0
S11314700CBE0F900BBE0F900FBE0F9008950F92ED
S11314800FB6F8940F920BB60F920CB60F921F92F0
S113149011242F923F924F925F926F927F928F927C
S11314A09F92AF92BF92CF92DF92EF92FF920F93EF
S11314B01F932F933F934F935F936F937F938F93D8
S11314C09F93AF93BF93CF93DF93EF93FF93A09139
S11314D02603B09127030DB60D920EB60D9213BEDE
S11314E080916F049091700401979093700480939D
S11314F06F04892B51F40E94DD0180916D04909159
S11315006E049093700480936F046ED58111B2D6EB
S1131510A0912603B0912703CD91CDBFDD91DEBF0D
S1131520FF91EF91DF91CF91BF91AF919F918F91F7
S11315307F916F915F914F913F912F911F910F91E7
S1131540FF90EF90DF90CF90BF90AF909F908F90DF
S11315507F906F905F904F903F902F901F900F90CF
S11315600CBE0F900BBE0F900FBE0F90089587DF37
S113157018950F931F93CF93DF93EC01042F1A8DCB
S11315804C8D41110BC088819981892B09F041C090
S11315908A819B8190D71B821A8242C0011117C095
S11315A050E08C819D810E94FF132C8D8C819D8144
S11315B0820F911D9D838C832A813B81821793071F
S11315C050F1888199819D838C8380E029C050E00B
S11315D08E819F810E94FF138C8D90E0919581955F
S11315E091092E813F81280F391F3F832E83488123
S11315F059812417350730F42A813B81820F931FC8
S11316009F838E83023049F4112349F0115080E006
S113161007C080E005C080E003C080E001C080E036
S11316201F5F1A8FDF91CF911F910F910895EF9251
S1131630FF920F931F93CF938C010FB6F8940F92E0
S1131640FC01C68D1C169CF48189811106C00FC053
S1131650F8018189811105C00AC07801F1E1EF0E1A
S1131660F11CC70199D6811122D7C15089F78FEF98
S1131670F801868F0F900FBE0FB6F8940F92C58DA8
S11316801C169CF48085811106C00FC0F80180856A
S1131690811105C00AC07801F8E0EF0EF11CC70102
S11316A07BD6811104D7C15089F78FEFF801858F5C
S11316B00F900FBECF911F910F91FF90EF9008955F
S11316C0CF93DF93EC010FB6F8940F9248815981C0
S11316D02C8D30E07B8D729FC001739F900D11247F
S11316E0FA01E80FF91FFB83EA831A8E5D834C83AA
S11316F0821B930B840F951F9F838E838FEF8D8F97
S11317008E8F61110AC08885882379F0CE010896EE
S113171043D6882351F053DE08C0CE0108960E94B8
S11317203A03CE0141960E943A030F900FBE81E026
S1131730DF91CF9108950F931F93CF93DF93082FD9
S1131740162F6623B9F0869FC00111244F960E947C
S1131750F901EC01009739F414C00B8F1C8F61E080
S1131760CE01AEDF0EC04F9699838883F6CFD9831E
S1131770C883F3CF8FE190E00E94F901EC01892B3B
S1131780B1F7CE01DF91CF911F910F9108959F92F0
S1131790AF92BF92CF92DF92EF92FF920F931F937B
S11317A0CF93DF9300D01F921F92CDB7DEB78C0189
S11317B06B015D834C83A22EB12C992493947C01FC
S11317C088E0E80EF11C0FB6F8940F92F801928DA0
S11317D0838D981718F0F2E0AF1215C04A2DB601A8
S11317E0C801C7DEF8019189992339F0C8014196EF
S11317F0D3D5882321F0E3DD02C08111E0DD0F9011
S11318000FBE81E045C08C819D81892B21F40F900E
S11318100FBE80E03DC0B11004C0CE01019604D6D5
S1131820B92C0F900FBEDAD30FB6F8940F92F801CB
S1131830858D8F3F09F4158EF801868D8F3F09F44D
S1131840168E0F900FBEBE016C5F7F4FCE010196C6
S1131850F6D5811119C00FB6F8940F92F801928D44
S1131860838D0F900FBE98130BC06C817D81C701CF
S113187082D5C801DCDE72D48111A5CFA0DDA3CF4F
S1131880C801D5DE6BD49FCFC801D1DE67D480E018
S11318900F900F900F900F900F90DF91CF911F91A9
S11318A00F91FF90EF90DF90CF90BF90AF909F90FB
S11318B008951F920F920FB60F9211240BB60F9238
S11318C02F938F939F93AF93BF93EF93FF930FB691
S11318D0F8940F9280917E0490917F040F900FBE34
S11318E0892B31F4E1ECF0E080818F7D80831CC092
S11318F0EEE7F4E0A481B5812D91B583A4838085BE
S11319009185A817B90721F48681978195838483EB
S11319100FB6F8940F92808191810197918380830F
S11319200F900FBE2093C600FF91EF91BF91AF912E
S11319309F918F912F910F900BBE0F900FBE0F9020
S11319401F9018951F920F920FB60F9211240BB689
S11319500F922F938F939F93AF93BF93EF93FF9324
S11319600FB6F8940F928091E4049091E5040F90DF
S11319700FBE892B31F4E9ECF0E080818F7D808308
S11319801CC0E4EEF4E0A481B5812D91B583A48359
S113199080859185A817B90721F48681978195835D
S11319A084830FB6F8940F9280819181019791837B
S11319B080830F900FBE2093CE00FF91EF91BF91D3
S11319C0AF919F918F912F910F900BBE0F900FBEEF
S11319D00F901F9018951F920F920FB60F9211241B
S11319E00BB60F922F933F934F938F939F93AF9385
S11319F0BF93EF93FF938091D0008C7171F080912D
S1131A00D00088230CF036C0A6EDB0E0E0EDF0E0A5
S1131A108C9180818823E4F32DC04091D6000FB6C9
S1131A20F8940F92E3E9F4E0218132810F900FBE24
S1131A308385948528173907E9F0E4E9F4E0A28165
S1131A40B3814C9382819381019693838283208511
S1131A5031858217930721F486819781938382834A
S1131A600FB6F8940F9280819181019691838083BF
S1131A700F900FBEFF91EF91BF91AF919F918F9106
S1131A804F913F912F910F900BBE0F900FBE0F906F
S1131A901F9018951F920F920FB60F9211240BB638
S1131AA00F922F938F939F93AF93BF93EF93FF93D3
S1131AB00FB6F8940F928091A0049091A1040F9016
S1131AC00FBE892B31F4E1EDF0E080818F7D8083BE
S1131AD01CC0E0EAF4E0A481B5812D91B583A48310
S1131AE080859185A817B90721F48681978195830C
S1131AF084830FB6F8940F9280819181019791832A
S1131B0080830F900FBE2093D600FF91EF91BF9179
S1131B10AF919F918F912F910F900BBE0F900FBE9D
S1131B200F901F9018951F920F920FB60F921124C9
S1131B300BB60F922F933F934F938F939F93AF9333
S1131B40BF93EF93FF93809130018C7171F080917A
S1131B50300188230CF036C0A6E3B1E0E0E3F1E005
S1131B608C9180818823E4F32DC0409136010FB617
S1131B70F8940F92E5EBF4E0218132810F900FBECF
S1131B808385948528173907E9F0E6EBF4E0A28110
S1131B90B3814C93828193810196938382832085C0
S1131BA031858217930721F48681978193838283F9
S1131BB00FB6F8940F92808191810196918380836E
S1131BC00F900FBEFF91EF91BF91AF919F918F91B5
S1131BD04F913F912F910F900BBE0F900FBE0F901E
S1131BE01F9018951F920F920FB60F9211240BB6E7
S1131BF00F922F938F939F93AF93BF93EF93FF9382
S1131C000FB6F8940F928091C2049091C3040F9080
S1131C100FBE892B31F4E1E3F1E080818F7D808375
S1131C201CC0E2ECF4E0A481B5812D91B583A483BA
S1131C3080859185A817B90721F4868197819583BA
S1131C4084830FB6F8940F928081918101979183D8
S1131C5080830F900FBE20933601FF91EF91BF91C7
S1131C60AF919F918F912F910F900BBE0F900FBE4C
S1131C700F901F901895E091EE02F091EF02808191
S1131C80811107C08FEF9FEF9093C6028093C50226
S1131C900895E091EE02F091EF020580F681E02DC7
S1131CA00680F781E02D828193819093C602809310
S1131CB0C5020895FF920F931F93CF93DF93EC0116
S1131CC0F62E0091CD021091CE02809126039091C0
S1131CD0270302960E949E03CF3F8FEFD80769F433
S1131CE0FF2059F060912603709127036E5F7F4FA8
S1131CF080ED92E00E944C032FC0C00FD11FE091F1
S1131D002603F0912703D383C283C017D10768F455
S1131D1060912603709127038091EC029091ED026B
S1131D206E5F7F4F0E946D0317C060912603709110
S1131D3027038091EE029091EF026E5F7F4F0E9425
S1131D406D038091C5029091C602C817D90720F48B
S1131D50D093C602C093C502DF91CF911F910F911A
S1131D60FF9008954F925F926F927F928F929F920D
S1131D70AF92BF92CF92DF92EF92FF920F93CF93E5
S1131D80DF934C016B015A012901CA010E94F90138
S1131D903C01892B09F4E9C088E290E00E94F90132
S1131DA0EC01892BA9F0788E6F8AA50165EA70E0B1
S1131DB0C3012ED581E0A81AB1088F89988DA80E89
S1131DC0B91ED6018C91898F8C91811105C018C0E0
S1131DD0C3010E940B02C9C0AE01465E5F4FF6010B
S1131DE03196B8E0CB0ED11CCF012191DA012D93AD
S1131DF0AD01DC018C91882319F0EC15FD05A1F7E8
S1131E0018A2043008F003E00E8B09A31AA26E0195
S1131E10B2E0CB0ED11CC6010E944803CE010C9641
S1131E200E944803D987C88784E090E0801B910909
S1131E309D878C87DB8BCA8B1BA21CA21DA21EA2B2
S1131E401FA2A201B401C50102DA99838883E114B7
S1131E50F10419F0F701D183C0830FB6F8940F92FF
S1131E608091CF028F5F8093CF028091260390915F
S1131E702703892BD1F5D0932703C09326038091A0
S1131E80CF02813009F041C082E093E00E943A031E
S1131E908BE093E00E943A0384E193E00E943A03CA
S1131EA08DE193E00E943A0389EF92E00E943A03A5
S1131EB080EF92E00E943A0383EE92E00E943A039C
S1131EC08AED92E00E943A0380ED92E00E943A0388
S1131ED089EF92E09093EF028093EE0280EF92E01C
S1131EE09093ED028093EC0210C08091CB0281119B
S1131EF00CC0E0912603F091270396898E898917F7
S1131F0020F0D0932703C09326038091C7028F5FEC
S1131F108093C7028E899091CC02981710F4809315
S1131F20CC0290E09C01220F331F220F331F220F9B
S1131F30331F820F931FB6018E5F9C4F0E944C0388
S1131F400F900FBE8091CB02882359F0E0912603B5
S1131F50F091270396898E89981728F430DA81E066
S1131F6005C081E003C081E001C08FEFDF91CF9114
S1131F700F91FF90EF90DF90CF90BF90AF909F9024
S1131F808F907F906F905F904F900895EF92FF92A3
S1131F900F930F2EF3ECEF2EF2E0FF2EF02D00E066
S1131FA020E030E045E550E067E972E081E891E047
S1131FB0D9DE813079F4F8948FEF9FEF9093C602C5
S1131FC08093C50281E08093CB021092CE021092DE
S1131FD0CD02AFD90F91FF90EF9008958091C20286
S1131FE08F5F8093C2020895CF92DF92EF92FF92A7
S1131FF00F931F93CF93DF938091C202811198C0F6
S1132000E090CD02F090CE028FEFE81AF80AF09239
S1132010CE02E092CD02E114F104B1F48091EE021B
S11320209091EF022091EC023091ED023093EF0297
S11320302093EE029093ED028093EC028091C8020B
S11320408F5F8093C80217DE8091C5029091C6020B
S1132050E816F90610F4D12C53C0D12CCC24C39427
S1132060E091EE02F091EF028081811107C08FEFC1
S11320709FEF9093C6028093C50242C0E091EE02A6
S1132080F091EF020580F681E02DC681D7818A8127
S11320909B81E816F90628F49093C6028093C50242
S11320A02FC08E010E5F1F4FC8010E949E038C89B2
S11320B09D89892B21F0CE010C960E949E038E8966
S11320C09091CC02981710F48093CC0290E09C017C
S11320D0220F331F220F331F220F331F820F931F30
S11320E0B8018E5F9C4F0E944C03E0912603F0914F
S11320F027039E898689981708F4B2CFDC2CB0CFC9
S1132100E0912603F0912703868990E0FC01EE0F0D
S1132110FF1FEE0FFF1FEE0FFF1F8E0F9F1FFC010F
S1132120EE5FFC4F8081823048F0DD24D39406C0FA
S11321308091CA028F5F8093CA02D12C8091C90218
S1132140882311F0DD24D3948D2DDF91CF911F913D
S11321500F91FF90EF90DF90CF900895DF92EF9270
S1132160FF920F931F93CF93DF930FB6F8940F92C0
S11321708091C20281508093C2028091C202811177
S11321805CC08091CF02811133C05AC0D70115962B
S1132190ED91FC911697C681D781CE010C960E94D1
S11321A09E038E010E5F1F4FC8010E949E038E89FD
S11321B09091CC02981710F48093CC0290E09C018B
S11321C0220F331F220F331F220F331F820F931F3F
S11321D0B8018E5F9C4F0E944C03E0912603F0915E
S11321E027039E898689981768F0D092C9020AC08D
S11321F0C0E0D0E00F2EF3EEEF2EF2E0FF2EF02D34
S1132200DD24D394F70180818111C0CFCD2B09F057
S113221032DDC091CA02CC2349F0D1E0E5DE811160
S1132220D093C902C150D1F71092CA028091C90259
S1132230882329F0C4D881E003C080E001C080E095
S11322400F900FBEDF91CF911F910F91FF90EF90F0
S1132250DF900895CF93DF93EC01892B39F0BEDE34
S113226060E0CE0127DD7ADF811101C0A8D8DF91BB
S1132270CF9108958091C202882321F081E0809358
S1132280C90208951092C902A0912603B0912703B0
S1132290E0912603F09127032D913C918789908D3D
S11322A08217930760F06091260370912703809151
S11322B0260390912703675E7F4F0E943D02209181
S11322C0CC02822F90E0FC01EE0FFF1FEE0FFF1FE8
S11322D0EE0FFF1FE80FF91FEE5FFC4F3081311145
S11322E011C02150822F90E0FC01EE0FFF1FEE0F72
S11322F0FF1FEE0FFF1FE80FF91FEE5FFC4F308149
S1132300332379F3AC01440F551F440F551F440F79
S1132310551F480F591FDA01AE5FBC4F1196ED915E
S1132320FC9112970280F381E02D1296FC93EE93B8
S113233011974B5F5C4FE417F50729F442815381F1
S1132340FD0152834183FC01EE0FFF1FEE0FFF1FBF
S1132350EE0FFF1F8E0F9F1FFC01EE5FFC4F0180ED
S1132360F281E02D86819781909327038093260341
S11323702093CC020895CF93DF93EB016091260361
S113238070912703645F7F4F0E946D0361E0CE016B
S113239091DCDF91CF9108950F931F93CF93DF9337
S11323A0DC011596ED91FC911697C681D7818E01BB
S11323B0045F1F4FC8010E949E038091C2028111D5
S11323C01CC00A501109C8010E949E038E89909175
S11323D0CC02981710F48093CC0290E09C01220F59
S11323E0331F220F331F220F331F820F931FB80195
S11323F08E5F9C4F0E944C0305C0B80183EE92E0AF
S11324000E944C03E0912603F09127039E8986895C
S1132410891720F481E08093C90201C080E0DF9134
S1132420CF911F910F9108952091C802FC01208340
S11324302091CD023091CE023283218308950FB6CC
S1132440F8940F924091CD025091CE02DB012D9170
S11324503C912F3FBFEF3B0711F1E091C802DC0133
S1132460FC91FE1739F01196ED91FC9112974E17DD
S11324705F07B8F4DC011196ED91FC911297DA0133
S1132480AE1BBF0BA217B30770F4DB01E41BF50B03
S11324902E0F3F1F2D933C93C7DF80E005C080E0E3
S11324A003C081E001C081E00F900FBE089581E078
S11324B08093C90208950F931F93CF93DF93FC0178
S11324C0892B79F182A1815082A3268991A12917B0
S11324D051F181112AC0EF018F010E5F1F4FC80116
S11324E00E949E0389A18E8B24E030E0281B3109D1
S11324F03D872C879091CC02981710F48093CC02DE
S113250090E09C01220F331F220F331F220F331F31
S1132510820F931FB8018E5F9C4F0E944C0381E091
S113252005C080E003C080E001C080E0DF91CF916E
S11325301F910F910895A1E21A2EAA1BBB1BFD0146
S11325400DC0AA1FBB1FEE1FFF1FA217B307E4078E
S1132550F50720F0A21BB30BE40BF50B661F771FE6
S1132560881F991F1A9469F76095709580959095C6
S11325709B01AC01BD01CF010895EE0FFF1F881F21
S11325808BBF0790F691E02D1994A29FB001B39FE1
S1132590C001A39F700D811D1124911DB29F700D68
S11325A0811D1124911D0895F0DFA59F900DB49F06
S11325B0900DA49F800D911D112408950F931F93D6
S11325C0CF93DF938230910510F482E090E0E091A4
S11325D0FB04F091FC0420E030E0A0E0B0E0309790
S11325E019F1408151810281138148175907C8F0BC
S11325F08417950769F4109731F012960C9312978B
S113260013961C9327C00093FB041093FC0422C070
S11326102115310519F04217530718F49A01BD0129
S1132620EF01DF01F801DBCF21153105F9F0281B9B
S1132630390B2430310580F48A819B816115710541
S113264021F0FB019383828304C09093FC04809364
S1132650FB04FE01329644C0FE01E20FF31F819396
S1132660919322503109398328833AC02091F90487
S11326703091FA04232B41F4209102023091030299
S11326803093FA042093F90420910002309101025E
S11326902115310541F42DB73EB740910402509104
S11326A00502241B350BE091F904F091FA04E217BA
S11326B0F307A0F42E1B3F0B2817390778F0AC0161
S11326C04E5F5F4F2417350748F04E0F5F1F50933E
S11326D0FA044093F9048193919302C0E0E0F0E09E
S11326E0CF01DF91CF911F910F910895CF93DF9385
S11326F0009709F481C0FC01329713821282A091E1
S1132700FB04B091FC04109781F420813181820F85
S1132710931F2091F9043091FA042817390751F5D1
S1132720F093FA04E093F90467C0ED0120E030E08F
S1132730CE17DF0740F44A815B819E0141155105A4
S1132740F1F0EA01F5CFD383C28340815181840F34
S1132750951FC817D90759F488819981840F951F4B
S11327600296918380838A819B819383828321153E
S1132770310529F4F093FC04E093FB043DC0E90126
S1132780FB83EA8349915991C40FD51FEC17FD07C8
S113279061F480819181840F951F0296E9019983E8
S11327A08883828193819B838A83E0E0F0E01296A0
S11327B08D919C911397009719F0FD01DC01F7CFDF
S11327C08D919C9111979D012E5F3F4F820F931F16
S11327D02091F9043091FA042817390769F43097E5
S11327E029F41092FC041092FB0402C0138212829A
S11327F0B093FA04A093F904DF91CF910895FB01FB
S1132800DC0102C001900D9241505040D8F7089568
S1132810DC0101C06D9341505040E0F70895BB279F
S11328204A3031F4992322F4BDE2909581959F4F6B
S113283001C0BB27FB015527AA27880F991FAA1F90
S1132840A41710F0A41B83955051B9F7A05DAA33C7
S113285008F0A95DA193009779F7B111B193119292
S1132860CB0100C0DC01FC01672F71917723E1F7F4
S1132870329704C07C916D9370836291AE17BF0749
S10B2880C8F30895F894FFCF9A
S1132888000001052000F80A0A486F656B3A200029
S11328982041667374616E643A20000A4779726F46
S11328A820583A200020593A2000205A3A20000A99
S11328B8416363656C20583A20000A0D736574758A
S11328C87020646F6E650A0D00536F6E6172205339
S11328D8656E736F7200536572766F204D6F746FF7
S11328E872004779726F73636F6F702053656E73EC
S11328F86F72004D6F746F72205461616B206D6547
S11329087420696E707574007761746368646F67A6
S10F29182072657365740049444C45004E
S9030000FC
