:100000006CC100008AC1000088C1000086C10000E8
:1000100084C1000082C1000080C100007EC10000D8
:100020007CC100006EC4000078C1000076C10000F1
:1000300074C1000072C1000070C100006EC10000F8
:100040006CC100002FC7000068C1000066C100003D
:1000500064C100000C94DD0960C100005EC10000B5
:100060005CC100005AC100000C947D0B56C1000019
:1000700054C1000052C1000050C100004EC1000038
:100080004CC100004AC1000048C10000DDC40000AE
:1000900068C300000C94C60B40C10000ACC1000056
:1000A0003CC100003AC1000038C1000036C1000068
:1000B00034C1000032C1000030C100002EC1000078
:1000C0002CC100002AC1000028C100000C940F0CB4
:1000D0000C946E0C22C100000C94B70C0C94160DFD
:1000E0001CC100001A02D502D502D502D502D502E4
:1000F000D502D5021A02D502D502D502D502D50203
:10010000D502D5021C02D502D502D502D502D502F0
:10011000D502D5023902D502D502D502D502D502C3
:10012000D502D5021C02D502D502D502D502D502D0
:10013000D502D5023902D502D502D502D502D502A3
:10014000D502D502D102D502D502D502D502D502FB
:10015000D502D5024D02D502D502D502D502D5026F
:10016000D502D5027002D502D502D502D502D5023C
:10017000D502D5024102D502D502D502D502D5025B
:10018000D502D5025F02D502D502D502D502D5022D
:10019000D502D502A702D502D502D502D502D502D5
:1001A000D502D502A702D502D502D502D502D502C5
:1001B000D502D502A202D502D502D502D502D502BA
:1001C000D502D502A202D502D502D502D502D502AA
:1001D000D502D502B202D502D502D502D502D5028A
:1001E000D502D502C702D502D502D502D502D50265
:1001F000D502D502B202D502D502D502D502D5026A
:10020000D502D502C702D502D502D502D502D50244
:10021000D502D502CB02D502D502D502D502D50230
:10022000D502D5027802D502D502D502D502D50273
:10023000D502D5027802D502D502D502D502D50263
:10024000D502D5027A02D502D502D502D502D50251
:10025000D502D5028A02D502D502D502D502D50231
:10026000D502D5029E020EED12E00F2EF6E0EF2E23
:10027000F3E0FF2EF02D26C00E94120FD801CC9182
:100280000E94D20FCC23F1F00FB6F8940F92D80150
:100290001596ED91FC911697C681D781CE010296F5
:1002A000FED18091D30281508093D3028091DD02F0
:1002B00081508093DD020F900FBE8F89988D5CD0A6
:1002C000CE015AD08091DD028111D6CFF701808115
:1002D000823008F09AD75FD0F5CF11241FBECFEF40
:1002E000D1E2DEBFCDBF00E00CBF12E0A0E0B2E083
:1002F000EEEBF9E200E00BBF02C007900D92A03ACE
:10030000B107D9F725E0A0EAB2E001C01D92A33001
:10031000B207E1F703D60C94DD1472CE8F938FB73A
:100320008F93F8948091FF048F5F8093FF048091F6
:1003300000058F4F80930005809101058F4F8093BA
:100340000105809102058F4F809302058F918FBF29
:100350008F910895CF93DF93EC010E94120FCE018D
:100360000E947913EC010E94D20F209709F42CD03F
:10037000CE01DF91CF910895CF93DF93009741F0A5
:10038000EC010E94120FCE010E9411140E94D20FA4
:10039000DF91CF9108958FEF80937E0080937D0051
:1003A00080B7877F80BF80B7806880BF83B7817F39
:1003B00083BF0FB6F8940F9283B7816083BF0F900D
:1003C0000FBE889513BE0895279A2F9A83ED90E368
:1003D0000197F1F700C000001F9AF8CF279A2F9AD3
:1003E0002FE78AE196E0215080409040E1F700C07D
:1003F00000001F9AF5CF1F920F920FB60F92112493
:100400000BB60F922F933F938F939F93AF93BF930E
:10041000EF93FF93E091B9008E2F90E0FC013897A5
:10042000E13CF10508F0C1C08827EE58FF4F8F4F1F
:100430000C9458131092A002E091A0028091A302A4
:10044000E81770F481E08E0F8093A002F0E0EC5585
:10045000FD4F80818093BB0085E88093BC00ACC0D9
:100460008091A10281608093A10284E98093BC0005
:10047000A3C08091B9008093060285EE8093BC00F2
:100480009BC0E091A00281E08E0F8093A00280913A
:10049000BB00F0E0EC55FD4F80832091A00230E0DE
:1004A0008091A30290E001972817390724F485EC86
:1004B0008093BC0081C085E88093BC007DC08091A2
:1004C000BB00E091A002F0E0EC55FD4F80838091ED
:1004D000A10281608093A10284ED8093BC006CC076
:1004E0008091B9008093060285ED8093BC0064C0C2
:1004F0001092A002E091A00281E08E0F8093A002F2
:10050000F0E0EC55FD4F80818093BB0085EC80933B
:10051000BC0052C09091A0028091A302981306C023
:100520008091A10281608093A10204C08091B900F2
:100530008093060284E08093BC003EC085EC8093EB
:10054000BC003AC08091A10284608093A102809196
:10055000A10282608093A1021092A00285EC809398
:10056000BC002AC0E091A00281E08E0F8093A0021F
:100570008091BB00F0E0EC55FD4F80838091A1029B
:1005800081608093A10285EC8093BC0015C085E852
:100590008093BC0011C084E08093A2028093BC00D1
:1005A0000BC085EE8093BC0007C08091B90080939A
:1005B000060285ED8093BC00FF91EF91BF91AF9152
:1005C0009F918F913F912F910F900BBE0F900FBE77
:1005D0000F901F901895FC010396928381832FEF53
:1005E0003FEF3483238396838583908787831082AC
:1005F0000895FC01118610860895CF93DF939C0126
:10060000FB01DC011196CD91DC911297D383C2835B
:100610008C819D81958384838C819D81DC011396DF
:100620007C936E9312977D836C8331872087F901C9
:1006300080818F5F8083DF91CF910895CF93DF9387
:10064000EB01488159814F3F2FEF520721F4FC0104
:10065000A781B0850DC0DC01139601C0DF011296A1
:10066000ED91FC9113972081318142175307B0F728
:100670001296ED91FC911397FB83EA83D583C48393
:10068000BD83AC831396DC93CE93129799878887AA
:10069000FC0120812F5F2083DF91CF910895CF93BC
:1006A000DF93FC01A085B185C281D38184819581CE
:1006B0009D838C83C481D581828193819B838A832E
:1006C00011968D919C911297E817F90731F4848166
:1006D000958112969C938E931197118610868C911A
:1006E00081508C93DF91CF9108958FE99FE001971E
:1006F000F1F700C000008091340390913503892BFD
:10070000A1F380915E0490915F04892B71F3809135
:10071000320390913303892B41F3A895109235034E
:100720001092340310925F0410925E04109233030F
:1007300010923203DACF1092CD0087E68093CC007E
:100740001092C80086E08093CA0088E18093C900B7
:100750000895E8ECF0E0908195FFFDCF8093CE0006
:1007600008951F920F920FB60F9211240F900FBE93
:100770000F901F901895CF93DF93EC018881882309
:1007800029F02196E6DF89918111FCCFDF91CF918D
:100790000895CF93DF93CDB7DEB761970FB6F89486
:1007A000DEBF0FBECDBFDC01CB014AE0BE016F5FF3
:1007B0007F4F0E94AA14CE010196DDDF61960FB62D
:1007C000F894DEBF0FBECDBFDF91CF9108950AE848
:1007D00010E0C1E0D0E0E12CF12CF0925904E0925D
:1007E0005804C70199279C01220F331F220F331F82
:1007F000220F331F821B930B955BF801918380833B
:10080000FFEF24E38CE0F15020408040E1F700C08E
:10081000000087E092E0AFDF6091580470915904C6
:10082000072E000C880B990BB4DF80E192E0A3DF68
:100830006091630470916404072E000C880B990B7F
:10084000A8DF8BE192E097DF609136037091370368
:10085000072E000C880B990B9CDF85E292E08BDF62
:100860006091690470916A04072E000C880B990B43
:1008700090DF8AE292E07FDF609150047091510432
:10088000072E000C880B990B84DF8FE292E073DF58
:100890006091300370913103072E000C880B990B87
:1008A00078DF85E292E067DF60912C0370912D0381
:1008B000072E000C880B990B6CDF8AE292E05BDF5D
:1008C0006091610470916204072E000C880B990BF3
:1008D00060DFD0935F04C0935E049BE1E90EF11CDE
:1008E000E8EDEE16F10409F078CF75CFE8E6F0E018
:1008F000808181608083EBE6F0E08081826080838C
:1009000008951F920F920FB60F9211240BB60F92FB
:100910002F933F934F935F936F937F938F939F9307
:10092000AF93BF93EF93FF938091C5028823D1F1DA
:100930008091C402811110C081E08093C4021092A2
:10094000C0021092C1021092C2021092C302109211
:1009500095001092940026C01092C4022091C0020B
:100960003091C1024091C2025091C302E0919400C3
:10097000F0919500AFEFBFEF0E946F136E0F7F1FD6
:10098000811D911D24E730E040E050E00E943613C5
:100990002093BC023093BD024093BE025093BF022D
:1009A0001092C502FF91EF91BF91AF919F918F91EE
:1009B0007F916F915F914F913F912F910F900BBE5F
:1009C0000F900FBE0F901F901895289885E08A957C
:1009D000F1F70000289A81E08093C50285E38A95AB
:1009E000F1F7000028980895C1E0D0E08091C50299
:1009F000811116C02FEF80E792E021508040904097
:100A0000E1F700C00000E1DF8091BC029091BD02DF
:100A1000A091BE02B091BF029093640480936304DE
:100A2000D0933503C0933403E1CFE1E9F0E0808156
:100A3000826080831092950010929400E1E7F0E0CC
:100A400080818160808308951F920F920FB60F926C
:100A500011240BB60F922F933F934F935F936F9395
:100A60007F938F939F93AF93BF93EF93FF93809167
:100A7000C4028823E9F18091C0029091C102A09143
:100A8000C202B091C3020196A11DB11D8093C002A4
:100A90009093C102A093C202B093C3022091C002FE
:100AA0003091C1024091C2025091C302E091940082
:100AB000F0919500AFEFBFEF0E946F13DC01CB0107
:100AC0008E0F9F1FA11DB11D8130944DA043B10514
:100AD00078F01092C4021092C5028FEF9FEFDC01F4
:100AE0008093BC029093BD02A093BE02B093BF025C
:100AF000FF91EF91BF91AF919F918F917F916F91F6
:100B00005F914F913F912F910F900BBE0F900FBEB1
:100B10000F901F901895269A82E38093800082E1BF
:100B20008093810080E29EE490938700809386000A
:100B3000109285001092840080E09BE490938B00DB
:100B400080938A00EFE6F0E08081826080830895E0
:100B50001092B90088E48093B80084E08093BC00D0
:100B60000895EF92FF920F931F93CF93DF93ECEBD7
:100B7000F0E090819062908390819923ECF79091BE
:100B8000B900880F8F5F8093BB0084E88093BC001E
:100B9000ECEBF0E080818823ECF78091B900809144
:100BA000BB00DB018C9390E050E041505109ECEB2D
:100BB000F0E00F2EF4ECFF2EF02D0F2EF4E8EF2EC8
:100BC000F02D09EB10E0CBEBD0E0292F30E024171B
:100BD000350711F4E08201C0F08280818823ECF7B0
:100BE000D8018C912881DB01A90FB11D2C939F5F47
:100BF000803559F384E98093BC00DF91CF911F9138
:100C00000F91FF90EF900895ECEBF0E090819062EF
:100C1000908390819923ECF7880F8093BB0084E840
:100C20008093BC00ECEBF0E080818823ECF76093CC
:100C3000BB0084E88093BC00ECEBF0E0808188236B
:100C4000ECF784E98093BC000895CF93DF931F9263
:100C50001F92CDB7DEB701E010E06BE388E6D4DF8A
:100C600041E0BE016F5F7F4F88E67BDFF9806CE378
:100C700088E6CADF41E0BE016F5F7F4F88E671DF23
:100C80006F2D70E0762F66278981682B80E090E0D9
:100C90000E94451220916B0430916C0440916D04C8
:100CA00050916E040E94D31220E030E04AE852E4F2
:100CB0000E94AF110E9414127093370360933603A1
:100CC0006DE388E6A1DF41E0BE016F5F7F4F88E6FC
:100CD00048DFF9806EE388E697DF41E0BE016F5F91
:100CE0007F4F88E63EDF6F2D70E0762F6627898183
:100CF000682B80E090E00E94451220916B043091B7
:100D00006C0440916D0450916E040E94D3120E94B5
:100D1000141270936A04609369046FE388E674DFC9
:100D200041E0BE016F5F7F4F88E61BDFF98060E422
:100D300088E66ADF41E0BE016F5F7F4F88E611DF22
:100D40006F2D70E0762F66278981682B80E090E018
:100D50000E94451220916B0430916C0440916D0407
:100D600050916E040E94D31220E030E040E851E43C
:100D70000E94AF110E9414127093510460935004AA
:100D800063E488E641DF41E0BE016F5F7F4F88E6A4
:100D9000E8DEF98064E488E637DF41E0BE016F5F9A
:100DA0007F4F88E6DEDE6F2D70E0762F6627898123
:100DB000682B80E090E00E944512209165043091FC
:100DC000660440916704509168040E94D3120E9407
:100DD0001412709331036093300365E488E614DFE6
:100DE00041E0BE016F5F7F4F88E6BBDEF98066E4BD
:100DF00088E60ADF41E0BE016F5F7F4F88E6B1DE23
:100E00006F2D70E0762F66278981682B80E090E057
:100E10000E94451220916504309166044091670458
:100E2000509168040E94D3120E94141270932D03F3
:100E300060932C0367E488E6E7DE41E0BE016F5F64
:100E40007F4F88E68EDEF98068E488E6DDDE41E0EB
:100E5000BE016F5F7F4F88E684DE6F2D70E0762FD6
:100E600066278981682B80E090E00E9445122091DE
:100E700065043091660440916704509168040E94B3
:100E8000D31220E030E84CE953E40E94AF110E94F5
:100E900014127093620460936104109333030093FF
:100EA0003203DBCE1F920F920FB60F9211248F9355
:100EB0009F9395B180E4892785B99F918F910F9079
:100EC0000FBE0F901F901895EBE0F1E080818068D5
:100ED00080835F9A0895EBE0F1E0808188608083F1
:100EE0008081806280830895399A579AEAE0F1E020
:100EF0008081886A8083999A8EEC8093200182E1B8
:100F00008093210180E29EE4909327018093260143
:100F10001092250110922401DECF0895EF92FF92E6
:100F20000F9343E060E081E02AD390932F038093F6
:100F30002E0320E040E050E060E070E04CD38AB146
:100F400083608AB9209AD0DF40E061E08AE017D35D
:100F500090933B0480933A04EEDBC8DC66DDDBDD76
:100F60007894F6DD109235031092340310925F04EA
:100F700010925E04109253041092520498E288E199
:100F80000FB6F894A895809360000FBE9093600010
:100F900086E19AEEACE9BBE3809365049093660426
:100FA000A0936704B093680483EE90EAABE8BAE3D9
:100FB00080936B0490936C04A0936D04B0936E04C3
:100FC0008AE392E0D8DBE12CF12C03E020E030E072
:100FD00040E051E069E472E084EF94E0E7D520E07E
:100FE00030E040E051E066E572E087EE93E0DED568
:100FF00020E030E040E051E062E672E085E296E019
:10100000D5D520E030E040E051E063E772E089E4CC
:1010100098E0CCD504E020E030E040E051E06BE81F
:1010200072E085E793E0C2D5D5D680E090E00F91DD
:10103000FF90EF9008950F931F93CF93DF93082FA6
:1010400010E04AE06CE374E0C8010E94AA148CE34B
:1010500094E091DB88E3809FE001819FD00DD01B5D
:101060001124C05ED14B4AE06CE374E0CE010E94D3
:10107000AA148CE394E07FDBD0932901C09328016C
:10108000D0932D01C0932C01DF91CF911F910F912F
:1010900008958AE0D0DF18DFFECF31E1FC01308314
:1010A000319722E220833197A3E3A08331976083B5
:1010B000319770833197108231971082319760E8B1
:1010C0006083319710823197108231971082319767
:1010D00062E06083319763E06083319764E060830E
:1010E000319765E06083319766E06083319767E010
:1010F0006083319768E06083319769E0608331975E
:1011000060E1608331973083319732E130833197EA
:1011100033E13083319734E13083319735E13083E7
:10112000319736E13083319737E13083319738E1B9
:101130003083319739E13083319730E23083319712
:1011400031E2308331972083319723E22083319736
:10115000408331975083319726E22083319727E2ED
:101160002083319728E22083319729E22083319729
:1011700020E32083319721E320838997089588EC29
:1011800090E09093700480936F0490937204809326
:1011900071048DE487BD82E084BD85E085BDEEE607
:1011A000F0E0808182608083A0912A03B0912B03BC
:1011B000CD91CDBFDD91DEBFFF91EF91DF91CF915A
:1011C000BF91AF919F918F917F916F915F914F915F
:1011D0003F912F911F910F91FF90EF90DF90CF9053
:1011E000BF90AF909F908F907F906F905F904F9047
:1011F0003F902F901F900F900CBE0F900BBE0F9042
:101200000FBE0F90089581E008950F920FB6F894E5
:101210000F920BB60F920CB60F921F9211242F92C1
:101220003F924F925F926F927F928F929F92AF9276
:10123000BF92CF92DF92EF92FF920F931F932F9363
:101240003F934F935F936F937F938F939F93AF934E
:10125000BF93CF93DF93EF93FF93A0912A03B091B5
:101260002B030DB60D920EB60D9218D7A0912A033E
:10127000B0912B03CD91CDBFDD91DEBFFF91EF91FA
:10128000DF91CF91BF91AF919F918F917F916F919E
:101290005F914F913F912F911F910F91FF90EF9090
:1012A000DF90CF90BF90AF909F908F907F906F9086
:1012B0005F904F903F902F901F900F900CBE0F901B
:1012C0000BBE0F900FBE0F9008950F920FB6F894BB
:1012D0000F920BB60F920CB60F921F9211242F9201
:1012E0003F924F925F926F927F928F929F92AF92B6
:1012F000BF92CF92DF92EF92FF920F931F932F93A3
:101300003F934F935F936F937F938F939F93AF938D
:10131000BF93CF93DF93EF93FF93A0912A03B091F4
:101320002B030DB60D920EB60D9213BE8091710473
:101330009091720401979093720480937104892BA9
:1013400051F40E948E0180916F04909170049093EB
:101350007204809371046CD58111A0D6A0912A03E8
:10136000B0912B03CD91CDBFDD91DEBFFF91EF9109
:10137000DF91CF91BF91AF919F918F917F916F91AD
:101380005F914F913F912F911F910F91FF90EF909F
:10139000DF90CF90BF90AF909F908F907F906F9095
:1013A0005F904F903F902F901F900F900CBE0F902A
:1013B0000BBE0F900FBE0F90089587DF18950F9307
:1013C0001F93CF93DF93EC01042F1A8D4C8D4111A5
:1013D0000BC088819981892B09F041C08A819B814A
:1013E0007ED71B821A8242C0011117C050E08C8147
:1013F0009D810E949A142C8D8C819D81820F911D5C
:101400009D838C832A813B818217930750F18881C9
:1014100099819D838C8380E029C050E08E819F81DB
:101420000E949A148C8D90E09195819591092E815E
:101430003F81280F391F3F832E834881598124170C
:10144000350730F42A813B81820F931F9F838E835F
:10145000023049F4112349F0115080E007C080E0C8
:1014600005C080E003C080E001C080E01F5F1A8FEC
:10147000DF91CF911F910F910895EF92FF920F93FB
:101480001F93CF938C010FB6F8940F92FC01C68D79
:101490001C169CF48189811106C00FC0F801818956
:1014A000811105C00AC07801F1E1EF0EF11CC701FE
:1014B00087D6811110D7C15089F78FEFF801868F39
:1014C0000F900FBE0FB6F8940F92C58D1C169CF4AA
:1014D0008085811106C00FC0F8018085811105C08B
:1014E0000AC07801F8E0EF0EF11CC70169D681113E
:1014F000F2D6C15089F78FEFF801858F0F900FBE9C
:10150000CF911F910F91FF90EF900895CF93DF93AC
:10151000EC010FB6F8940F92488159812C8D30E080
:101520007B8D729FC001739F900D1124FA01E80F0B
:10153000F91FFB83EA831A8E5D834C83821B930B16
:10154000840F951F9F838E838FEF8D8F8E8F6111F8
:101550000AC08885882369F0CE01089631D6882391
:1015600041F053DE06C0CE01089635D8CE01419633
:1015700032D80F900FBE81E0DF91CF9108950F9385
:101580001F93CF93DF93082F162F6623B9F0869F02
:10159000C00111244F960E94AA01EC01009739F472
:1015A00014C00B8F1C8F61E0CE01B0DF0EC04F96D0
:1015B00099838883F6CFD983C883F3CF8FE190E0F6
:1015C0000E94AA01EC01892BB1F7CE01DF91CF91E6
:1015D0001F910F9108959F92AF92BF92CF92DF9289
:1015E000EF92FF920F931F93CF93DF9300D01F9240
:1015F0001F92CDB7DEB78C016B015D834C83A22EA9
:10160000B12C992493947C0188E0E80EF11C0FB66C
:10161000F8940F92F801928D838D981718F0F2E0EC
:10162000AF1215C04A2DB601C801C9DEF801918973
:10163000992339F0C8014196C3D5882321F0E5DD0F
:1016400002C08111E2DD0F900FBE81E045C08C81A8
:101650009D81892B21F40F900FBE80E03DC0B11019
:1016600004C0CE010196F4D5B92C0F900FBEDAD389
:101670000FB6F8940F92F801858D8F3F09F4158EFF
:10168000F801868D8F3F09F4168E0F900FBEBE01B4
:101690006C5F7F4FCE010196E6D5811119C00FB660
:1016A000F8940F92F801928D838D0F900FBE9813CE
:1016B0000BC06C817D81C70172D5C801DEDE72D49A
:1016C0008111A5CFA2DDA3CFC801D7DE6BD49FCFF8
:1016D000C801D3DE67D480E00F900F900F900F9079
:1016E0000F90DF91CF911F910F91FF90EF90DF90BE
:1016F000CF90BF90AF909F9008951F920F920FB61A
:101700000F9211240BB60F922F938F939F93AF9349
:10171000BF93EF93FF930FB6F8940F9280918004DC
:10172000909181040F900FBE892B31F4E1ECF0E031
:1017300080818F7D80831CC0E0E8F4E0A481B581C6
:101740002D91B583A48380859185A817B90721F4CD
:1017500086819781958384830FB6F8940F92808158
:1017600091810197918380830F900FBE2093C600D3
:10177000FF91EF91BF91AF919F918F912F910F901A
:101780000BBE0F900FBE0F901F9018951F920F92D7
:101790000FB60F9211240BB60F922F938F939F9336
:1017A000AF93BF93EF93FF930FB6F8940F9280918E
:1017B000E6049091E7040F900FBE892B31F4E9EC19
:1017C000F0E080818F7D80831CC0E6EEF4E0A48190
:1017D000B5812D91B583A48380859185A817B9071C
:1017E00021F486819781958384830FB6F8940F92B4
:1017F000808191810197918380830F900FBE209308
:10180000CE00FF91EF91BF91AF919F918F912F915A
:101810000F900BBE0F900FBE0F901F9018951F9248
:101820000F920FB60F9211240BB60F922F933F9386
:101830004F938F939F93AF93BF93EF93FF938091B9
:10184000D0008C7171F08091D00088230CF036C0EC
:10185000A6EDB0E0E0EDF0E08C9180818823E4F328
:101860002DC04091D6000FB6F8940F92E5E9F4E050
:10187000218132810F900FBE838594852817390707
:10188000E9F0E6E9F4E0A281B3814C93828193818F
:10189000019693838283208531858217930721F4F3
:1018A00086819781938382830FB6F8940F9280810B
:1018B00091810196918380830F900FBEFF91EF91EC
:1018C000BF91AF919F918F914F913F912F910F9029
:1018D0000BBE0F900FBE0F901F9018951F920F9286
:1018E0000FB60F9211240BB60F922F938F939F93E5
:1018F000AF93BF93EF93FF930FB6F8940F9280913D
:10190000A2049091A3040F900FBE892B31F4E1ED56
:10191000F0E080818F7D80831CC0E2EAF4E0A48146
:10192000B5812D91B583A48380859185A817B907CA
:1019300021F486819781958384830FB6F8940F9262
:10194000808191810197918380830F900FBE2093B6
:10195000D600FF91EF91BF91AF919F918F912F9101
:101960000F900BBE0F900FBE0F901F9018951F92F7
:101970000F920FB60F9211240BB60F922F933F9335
:101980004F938F939F93AF93BF93EF93FF93809168
:1019900030018C7171F08091300188230CF036C0D9
:1019A000A6E3B1E0E0E3F1E08C9180818823E4F3E9
:1019B0002DC0409136010FB6F8940F92E7EBF4E09A
:1019C000218132810F900FBE8385948528173907B6
:1019D000E9F0E8EBF4E0A281B3814C93828193813A
:1019E000019693838283208531858217930721F4A2
:1019F00086819781938382830FB6F8940F928081BA
:101A000091810196918380830F900FBEFF91EF919A
:101A1000BF91AF919F918F914F913F912F910F90D7
:101A20000BBE0F900FBE0F901F9018951F920F9234
:101A30000FB60F9211240BB60F922F938F939F9393
:101A4000AF93BF93EF93FF930FB6F8940F928091EB
:101A5000C4049091C5040F900FBE892B31F4E1E3CB
:101A6000F1E080818F7D80831CC0E4ECF4E0A481F0
:101A7000B5812D91B583A48380859185A817B90779
:101A800021F486819781958384830FB6F8940F9211
:101A9000808191810197918380830F900FBE209365
:101AA0003601FF91EF91BF91AF919F918F912F914F
:101AB0000F900BBE0F900FBE0F901F901895E091E6
:101AC000F202F091F3028081811107C08FEF9FEF46
:101AD0009093CA028093C9020895E091F202F091B6
:101AE000F3020580F681E02D0680F781E02D8281EA
:101AF00093819093CA028093C9020895FF920F9335
:101B00001F93CF93DF93EC01F62E0091D102109139
:101B1000D20280912A0390912B0302960E944F03D8
:101B2000CF3F8FEFD80769F4FF2059F060912A0367
:101B300070912B036E5F7F4F84ED92E00E94FD0257
:101B40002FC0C00FD11FE0912A03F0912B03D38344
:101B5000C283C017D10768F460912A0370912B03E8
:101B60008091F0029091F1026E5F7F4F0E941E0300
:101B700017C060912A0370912B038091F20290911B
:101B8000F3026E5F7F4F0E941E038091C902909105
:101B9000CA02C817D90720F4D093CA02C093C90259
:101BA000DF91CF911F910F91FF9008954F925F9217
:101BB0006F927F928F929F92AF92BF92CF92DF925D
:101BC000EF92FF920F93CF93DF934C016B015A0179
:101BD0002901CA010E94AA013C01892B09F4E9C02C
:101BE00088E290E00E94AA01EC01892BA9F0788E8E
:101BF0006F8AA50165EA70E0C301A5D681E0A81A45
:101C0000B1088F89988DA80EB91ED6018C91898F45
:101C10008C91811105C018C0C3010E94BC01C9C0CC
:101C2000AE01465E5F4FF6013196B8E0CB0ED11C97
:101C3000CF012191DA012D93AD01DC018C91882334
:101C400019F0EC15FD05A1F718A2043008F003E027
:101C50000E8B09A31AA26E01B2E0CB0ED11CC601F5
:101C60000E94F902CE010C960E94F902D987C8871A
:101C700084E090E0801B91099D878C87DB8BCA8B69
:101C80001BA21CA21DA21EA21FA2A201B401C5017B
:101C900004DA99838883E114F10419F0F701D18300
:101CA000C0830FB6F8940F928091D3028F5F809318
:101CB000D30280912A0390912B03892BD1F5D093E5
:101CC0002B03C0932A038091D302813009F041C0D5
:101CD00086E093E00E94EB028FE093E00E94EB022B
:101CE00088E193E00E94EB0281E293E00E94EB0224
:101CF0008DEF92E00E94EB0284EF92E00E94EB02F3
:101D000087EE92E00E94EB028EED92E00E94EB02E1
:101D100084ED92E00E94EB028DEF92E09093F3024B
:101D20008093F20284EF92E09093F1028093F002AC
:101D300010C08091CF0281110CC0E0912A03F09174
:101D40002B0396898E89891720F0D0932B03C0939B
:101D50002A038091CB028F5F8093CB028E89909172
:101D6000D002981710F48093D00290E09C01220FCB
:101D7000331F220F331F220F331F820F931FB60111
:101D80008A5F9C4F0E94FD020F900FBE8091CF0290
:101D9000882359F0E0912A03F0912B0396898E89CC
:101DA000981728F432DA81E005C081E003C081E0B1
:101DB00001C08FEFDF91CF910F91FF90EF90DF90F7
:101DC000CF90BF90AF909F908F907F906F905F90DB
:101DD0004F900895EF92FF920F930F2EF7ECEF2E96
:101DE000F2E0FF2EF02D00E020E030E045E550E08D
:101DF0006AE972E083E391E0D9DE813079F4F89406
:101E00008FEF9FEF9093CA028093C90281E0809385
:101E1000CF021092D2021092D102B1D90F91FF904D
:101E2000EF9008958091C6028F5F8093C602089557
:101E3000CF92DF92EF92FF920F931F93CF93DF9396
:101E40008091C602811198C0E090D102F090D20238
:101E50008FEFE81AF80AF092D202E092D102E11470
:101E6000F104B1F48091F2029091F3022091F0021A
:101E70003091F1023093F3022093F2029093F10239
:101E80008093F0028091CC028F5F8093CC0217DEAA
:101E90008091C9029091CA02E816F90610F4D12C7B
:101EA00053C0D12CCC24C394E091F202F091F30200
:101EB0008081811107C08FEF9FEF9093CA028093BA
:101EC000C90242C0E091F202F091F3020580F6816E
:101ED000E02DC681D7818A819B81E816F90628F416
:101EE0009093CA028093C9022FC08E010E5F1F4FCC
:101EF000C8010E944F038C899D89892B21F0CE0156
:101F00000C960E944F038E899091D002981710F47E
:101F10008093D00290E09C01220F331F220F331FC9
:101F2000220F331F820F931FB8018A5F9C4F0E94BC
:101F3000FD02E0912A03F0912B039E898689981770
:101F400008F4B2CFDC2CB0CFE0912A03F0912B0340
:101F5000868990E0FC01EE0FFF1FEE0FFF1FEE0FD2
:101F6000FF1F8E0F9F1FFC01EA5FFC4F80818230B4
:101F700048F0DD24D39406C08091CE028F5F809319
:101F8000CE02D12C8091CD02882311F0DD24D39490
:101F90008D2DDF91CF911F910F91FF90EF90DF90EA
:101FA000CF900895DF92EF92FF920F931F93CF93FC
:101FB000DF930FB6F8940F928091C6028150809300
:101FC000C6028091C60281115CC08091D30281114A
:101FD00033C05AC0D7011596ED91FC911697C68172
:101FE000D781CE010C960E944F038E010E5F1F4FCA
:101FF000C8010E944F038E899091D002981710F467
:102000008093D00290E09C01220F331F220F331FD8
:10201000220F331F820F931FB8018A5F9C4F0E94CB
:10202000FD02E0912A03F0912B039E89868998177F
:1020300068F0D092CD020AC0C0E0D0E00F2EF7EEDB
:10204000EF2EF2E0FF2EF02DDD24D394F7018081F6
:102050008111C0CFCD2B09F032DDC091CE02CC234F
:1020600049F0D1E0E5DE8111D093CD02C150D1F726
:102070001092CE028091CD02882329F0C6D881E04B
:1020800003C080E001C080E00F900FBEDF91CF91D0
:102090001F910F91FF90EF90DF9008958091C602FD
:1020A000882321F081E08093CD0208951092CD0223
:1020B000A0912A03B0912B03E0912A03F0912B0306
:1020C0002D913C918789908D8217930760F06091E4
:1020D0002A0370912B0380912A0390912B03675E52
:1020E0007F4F0E94EE012091D002822F90E0FC01F0
:1020F000EE0FFF1FEE0FFF1FEE0FFF1FE80FF91F80
:10210000EA5FFC4F3081311111C02150822F90E0E5
:10211000FC01EE0FFF1FEE0FFF1FEE0FFF1FE80F7A
:10212000F91FEA5FFC4F3081332379F3AC01440F90
:10213000551F440F551F440F551F480F591FDA01F3
:10214000AA5FBC4F1196ED91FC9112970280F3812A
:10215000E02D1296FC93EE931197475F5C4FE417C6
:10216000F50729F442815381FD0152834183FC012B
:10217000EE0FFF1FEE0FFF1FEE0FFF1F8E0F9F1FB3
:10218000FC01EA5FFC4F0180F281E02D868197819E
:1021900090932B0380932A032093D0020895CF932A
:1021A000DF93EB0160912A0370912B03645F7F4FF3
:1021B0000E941E0361E0CE01A1DCDF91CF91089562
:1021C0000F931F93CF93DF93DC011596ED91FC9154
:1021D0001697C681D7818E01045F1F4FC8010E94E8
:1021E0004F038091C60281111CC00A501109C80119
:1021F0000E944F038E899091D002981710F480931B
:10220000D00290E09C01220F331F220F331F220FB8
:10221000331F820F931FB8018A5F9C4F0E94FD02FB
:1022200005C0B80187EE92E00E94FD02E0912A030A
:10223000F0912B039E898689891720F481E0809391
:10224000CD0201C080E0DF91CF911F910F910895E1
:102250002091CC02FC0120832091D1023091D20246
:102260003283218308950FB6F8940F924091D102E2
:102270005091D202DB012D913C912F3FBFEF3B07E4
:1022800011F1E091CC02DC01FC91FE1739F01196BE
:10229000ED91FC9112974E175F07B8F4DC0111968F
:1022A000ED91FC911297DA01AE1BBF0BA217B30799
:1022B00070F4DB01E41BF50B2E0F3F1F2D933C93B5
:1022C000C7DF80E005C080E003C081E001C081E09D
:1022D0000F900FBE089581E08093CD0208950F9373
:1022E0001F93CF93DF93FC01892B79F182A1815059
:1022F00082A3268991A1291751F181112AC0EF01EA
:102300008F010E5F1F4FC8010E944F0389A18E8B62
:1023100024E030E0281B31093D872C879091D002C2
:10232000981710F48093D00290E09C01220F331F85
:10233000220F331F220F331F820F931FB8018A5FB2
:102340009C4F0E94FD0281E005C080E003C080E058
:1023500001C080E0DF91CF911F910F9108955058F7
:10236000BB27AA270ED0E5C0D6D030F0DBD020F0B6
:1023700031F49F3F11F41EF4CBC00EF4E095E7FB5F
:10238000C1C0E92FE7D080F3BA176207730784074B
:10239000950718F071F49EF5FFC00EF4E0950B2E32
:1023A000BA2FA02D0B01B90190010C01CA01A001A7
:1023B0001124FF27591B99F0593F50F4503E68F102
:1023C0001A16F040A22F232F342F4427585FF3CF43
:1023D000469537952795A795F0405395C9F77EF414
:1023E0001F16BA0B620B730B840BBAF09150A1F05D
:1023F000FF0FBB1F661F771F881FC2F70EC0BA0FE3
:10240000621F731F841F48F4879577956795B7956A
:10241000F7959E3F08F0B3CF9395880F08F0992762
:10242000EE0F97958795089504D06894B111B5C0C3
:10243000089598D088F09F5790F0B92F9927B751F9
:10244000A0F0D1F0660F771F881F991F1AF0BA9578
:10245000C9F712C0B13081F09FD0B1E008959CC09F
:10246000672F782F8827B85F39F0B93FCCF386956E
:1024700077956795B395D9F73EF4909580957095CB
:1024800061957F4F8F4F9F4F0895E89409C097FB48
:102490003EF490958095709561957F4F8F4F9F4F3B
:1024A0009923A9F0F92F96E9BB279395F69587957F
:1024B00077956795B795F111F8CFFAF4BB0F11F442
:1024C00060FF1BC06F5F7F4F8F4F9F4F16C08823E9
:1024D00011F096E911C0772321F09EE8872F762F1F
:1024E00005C0662371F096E8862F70E060E02AF060
:1024F0009A95660F771F881FDAF7880F969587954C
:1025000097F9089597F99F6780E870E060E0089573
:102510009FEF80EC089500240A94161617061806FB
:102520000906089500240A941216130614060506D7
:102530000895092E0394000C11F4882352F0BB0F68
:1025400040F4BF2B11F460FF04C06F5F7F4F8F4FCB
:102550009F4F089557FD9058440F551F59F05F3F06
:1025600071F04795880F97FB991F61F09F3F79F0B5
:1025700087950895121613061406551FF2CF469537
:10258000F1DF08C0161617061806991FF1CF8695B9
:102590007105610508940895E894BB27662777279D
:1025A000CB0197F908950BD0C4CFB5DF28F0BADF7F
:1025B00018F0952309F0A6CFABCF1124EECFCADFD8
:1025C000A0F3959FD1F3950F50E0551F629FF00146
:1025D000729FBB27F00DB11D639FAA27F00DB11D9F
:1025E000AA1F649F6627B00DA11D661F829F222728
:1025F000B00DA11D621F739FB00DA11D621F839FAF
:10260000A00D611D221F749F3327A00D611D231F84
:10261000849F600D211D822F762F6A2F11249F57D2
:1026200050408AF0E1F088234AF0EE0FFF1FBB1FF5
:10263000661F771F881F91505040A9F79E3F510594
:1026400070F060CFAACF5F3FECF3983EDCF3869545
:1026500077956795B795F795E7959F5FC1F7FE2B3F
:10266000880F911D9695879597F90895A1E21A2EE6
:10267000AA1BBB1BFD010DC0AA1FBB1FEE1FFF1F26
:10268000A217B307E407F50720F0A21BB30BE40B76
:10269000F50B661F771F881F991F1A9469F76095BD
:1026A0007095809590959B01AC01BD01CF01089577
:1026B000EE0FFF1F881F8BBF0790F691E02D199436
:1026C000A29FB001B39FC001A39F700D811D112473
:1026D000911DB29F700D811D1124911D0895F0DF91
:1026E000A59F900DB49F900DA49F800D911D112466
:1026F00008950F931F93CF93DF938230910510F4C9
:1027000082E090E0E091FD04F091FE0420E030E0F2
:10271000A0E0B0E0309719F140815181028113812E
:1027200048175907C8F08417950769F4109731F0D6
:1027300012960C93129713961C9327C00093FD04D6
:102740001093FE0422C02115310519F042175307DA
:1027500018F49A01BD01EF01DF01F801DBCF21156B
:102760003105F9F0281B390B2430310580F48A81BA
:102770009B816115710521F0FB019383828304C065
:102780009093FE048093FD04FE01329644C0FE0146
:10279000E20FF31F819391932250310939832883EB
:1027A0003AC02091FB043091FC04232B41F420918A
:1027B0000202309103023093FC042093FB04209129
:1027C0000002309101022115310541F42DB73EB7C9
:1027D0004091040250910502241B350BE091FB044B
:1027E000F091FC04E217F307A0F42E1B3F0B28170F
:1027F000390778F0AC014E5F5F4F2417350748F07A
:102800004E0F5F1F5093FC044093FB048193919300
:1028100002C0E0E0F0E0CF01DF91CF911F910F9176
:102820000895CF93DF93009709F481C0FC0132979C
:1028300013821282A091FD04B091FE04109781F4DE
:1028400020813181820F931F2091FB043091FC0481
:102850002817390751F5F093FC04E093FB0467C097
:10286000ED0120E030E0CE17DF0740F44A815B81C4
:102870009E0141155105F1F0EA01F5CFD383C283E2
:1028800040815181840F951FC817D90759F4888159
:102890009981840F951F0296918380838A819B8101
:1028A000938382832115310529F4F093FE04E0938C
:1028B000FD043DC0E901FB83EA8349915991C40FAE
:1028C000D51FEC17FD0761F480819181840F951F5E
:1028D0000296E90199838883828193819B838A830D
:1028E000E0E0F0E012968D919C911397009719F01B
:1028F000FD01DC01F7CF8D919C9111979D012E5F19
:102900003F4F820F931F2091FB043091FC04281746
:10291000390769F4309729F41092FE041092FD04EF
:1029200002C013821282B093FC04A093FB04DF91D7
:10293000CF910895FB01DC0102C001900D9241503E
:102940005040D8F70895DC0101C06D9341505040CC
:10295000E0F70895BB274A3031F4992322F4BDE211
:10296000909581959F4F01C0BB27FB015527AA2752
:10297000880F991FAA1FA41710F0A41B839550510C
:10298000B9F7A05DAA3308F0A95DA193009779F784
:10299000B111B1931192CB0100C0DC01FC01672F92
:1029A00071917723E1F7329704C07C916D93708326
:0E29B0006291AE17BF07C8F30895F894FFCFE9
:1029BE00000003052000F80A0A486F656B3A2000F4
:1029CE002041667374616E643A20000A4779726F13
:1029DE0020583A200020593A2000205A3A20000A66
:1029EE00416363656C20583A20000A0D7365747557
:1029FE007020646F6E650A0D00536F6E6172205306
:102A0E00656E736F7200536572766F204D6F746FC3
:102A1E0072004779726F73636F6F702053656E73B8
:102A2E006F72004D6F746F72205461616B207A6FFC
:102A3E006E64657220696E70757400776174636878
:102A4E00646F672072657365740049444C450000DD
:00000001FF
