S024000054656D70657261747575725F6C75636874766F6368746967686569642E7372656355
S11300006CC100008AC1000088C1000086C10000E4
S113001084C1000082C1000080C100007EC10000D4
S11300207CC1000090C4000078C1000076C10000CB
S113003074C1000072C1000070C100006EC10000F4
S11300406CC10000E7C6000068C1000066C1000082
S113005064C100000C94AB0860C100005EC10000E4
S11300605CC1000034C400000C944A0A56C100006C
S113007054C1000052C1000050C100004EC1000034
S11300804CC100004AC1000048C10000FFC4000088
S11300900C94930A0C94F20A40C10000ACC1000015
S11300A03CC100003AC1000038C1000036C1000064
S11300B034C1000032C1000030C100002EC1000074
S11300C02CC100002AC1000028C100000C943B0B85
S11300D00C949A0B22C100000C94E30B0C94420C78
S11300E01CC100001A02D502D502D502D502D502E0
S11300F0D502D5021A02D502D502D502D502D502FF
S1130100D502D5021C02D502D502D502D502D502EC
S1130110D502D5023902D502D502D502D502D502BF
S1130120D502D5021C02D502D502D502D502D502CC
S1130130D502D5023902D502D502D502D502D5029F
S1130140D502D502D102D502D502D502D502D502F7
S1130150D502D5024D02D502D502D502D502D5026B
S1130160D502D5027002D502D502D502D502D50238
S1130170D502D5024102D502D502D502D502D50257
S1130180D502D5025F02D502D502D502D502D50229
S1130190D502D502A702D502D502D502D502D502D1
S11301A0D502D502A702D502D502D502D502D502C1
S11301B0D502D502A202D502D502D502D502D502B6
S11301C0D502D502A202D502D502D502D502D502A6
S11301D0D502D502B202D502D502D502D502D50286
S11301E0D502D502C702D502D502D502D502D50261
S11301F0D502D502B202D502D502D502D502D50266
S1130200D502D502C702D502D502D502D502D50240
S1130210D502D502CB02D502D502D502D502D5022C
S1130220D502D5027802D502D502D502D502D5026F
S1130230D502D5027802D502D502D502D502D5025F
S1130240D502D5027A02D502D502D502D502D5024D
S1130250D502D5028A02D502D502D502D502D5022D
S1130260D502D5029E0202ED12E00F2EFAEFEF2E18
S1130270F2E0FF2EF02D26C00E943E0ED801CC9154
S11302800E94FE0ECC23F1F00FB6F8940F92D80121
S11302901596ED91FC911697C681D781CE010296F1
S11302A0FED18091C70281508093C7028091D10210
S11302B081508093D1020F900FBE8F89988D5CD0AE
S11302C0CE015AD08091D1028111D6CFF70180811D
S11302D0823008F069D65FD0F5CF11241FBECFEF6E
S11302E0D1E2DEBFCDBF00E00CBF12E0A0E0B2E07F
S11302F0E6E1F8E200E00BBF02C007900D92A239DC
S1130300B107D9F724E0A2E9B2E001C01D92A93CEB
S1130310B207E1F748D40C94091472CE8F938FB7C7
S11303208F93F8948091C5048F5F8093C504809166
S1130330C6048F4F8093C6048091C7048F4F809367
S1130340C7048091C8048F4F8093C8048F918FBFD6
S11303508F910895CF93DF93EC010E943E0ECE015E
S11303600E94A512EC010E94FE0E209709F42CD0E5
S1130370CE01DF91CF910895CF93DF93009741F0A1
S1130380EC010E943E0ECE010E943D130E94FE0E1F
S1130390DF91CF9108958FEF80937E0080937D004D
S11303A080B7877F80BF80B7806880BF83B7817F35
S11303B083BF0FB6F8940F9283B7816083BF0F9009
S11303C00FBE889513BE0895279A2F9A83ED90E364
S11303D00197F1F700C000001F9AF8CF279A2F9ACF
S11303E02FE78AE196E0215080409040E1F700C079
S11303F000001F9AF5CF1F920F920FB60F9211248F
S11304000BB60F922F933F938F939F93AF93BF930A
S1130410EF93FF93E091B9008E2F90E0FC013897A1
S1130420E13CF10508F0C1C08827EE58FF4F8F4F1B
S11304300C94841210929202E0919202809195029F
S1130440E81770F481E08E0F80939202F0E0EA5690
S1130450FD4F80818093BB0085E88093BC00ACC0D5
S11304608091930281608093930284E98093BC001D
S1130470A3C08091B9008093060285EE8093BC00EE
S11304809BC0E091920281E08E0F80939202809152
S1130490BB00F0E0EA56FD4F80832091920230E0E9
S11304A08091950290E001972817390724F485EC90
S11304B08093BC0081C085E88093BC007DC080919E
S11304C0BB00E0919202F0E0EA56FD4F80838091F8
S11304D0930281608093930284ED8093BC006CC08E
S11304E08091B9008093060285ED8093BC0064C0BE
S11304F010929202E091920281E08E0F8093920218
S1130500F0E0EA56FD4F80818093BB0085EC809338
S1130510BC0052C09091920280919502981306C03B
S11305208091930281608093930204C08091B9000A
S11305308093060284E08093BC003EC085EC8093E7
S1130540BC003AC0809193028460809393028091AE
S113055093028260809393021092920285EC8093BE
S1130560BC002AC0E091920281E08E0F8093920237
S11305708091BB00F0E0EA56FD4F808380919302A6
S113058081608093930285EC8093BC0015C085E85C
S11305908093BC0011C084E0809394028093BC00DB
S11305A00BC085EE8093BC0007C08091B900809396
S11305B0060285ED8093BC00FF91EF91BF91AF914E
S11305C09F918F913F912F910F900BBE0F900FBE73
S11305D00F901F901895FC010396928381832FEF4F
S11305E03FEF3483238396838583908787831082A8
S11305F00895FC01118610860895CF93DF939C0122
S1130600FB01DC011196CD91DC911297D383C28357
S11306108C819D81958384838C819D81DC011396DB
S11306207C936E9312977D836C8331872087F901C5
S113063080818F5F8083DF91CF910895CF93DF9383
S1130640EB01488159814F3F2FEF520721F4FC0100
S1130650A781B0850DC0DC01139601C0DF0112969D
S1130660ED91FC9113972081318142175307B0F724
S11306701296ED91FC911397FB83EA83D583C4838F
S1130680BD83AC831396DC93CE93129799878887A6
S1130690FC0120812F5F2083DF91CF910895CF93B8
S11306A0DF93FC01A085B185C281D38184819581CA
S11306B09D838C83C481D581828193819B838A832A
S11306C011968D919C911297E817F90731F4848162
S11306D0958112969C938E931197118610868C9116
S11306E081508C93DF91CF91089540E062E08AE0DD
S11306F014D690932F0480932E04892B41F440E068
S113070062E08AE00AD690932F0480932E0440E09E
S113071062E08AE002D690932D0480932C04892B06
S113072041F440E062E08AE0F8D590932D04809390
S11307302C0408951092C50087E68093C40010929B
S1130740C00086E08093C20088E18093C1000895D0
S1130750E0ECF0E0908195FFFDCF8093C600089512
S1130760CF93DF93EC018881882329F02196F0DF71
S113077089918111FCCFDF91CF9108958FE99FE09A
S11307800197F1F700C000008091220390912303A8
S1130790892BA1F38091300490913104892B71F35A
S11307A08091240490912504892B41F387E092E001
S11307B0D7DFA895109223031092220310923104DC
S11307C0109230041092250410922404D7CFCF93B2
S11307D0DF93CDB7DEB761970FB6F894DEBF0FBED7
S11307E0CDBFDC01CB014AE0BE016F5F7F4F0E94A9
S11307F0D613CE010196B4DF61960FB6F894DEBF2E
S11308000FBECDBFDF91CF9108950AE810E0C1E09B
S1130810D0E0E12CF12CF0922B04E0922A04C701E1
S113082099279C01220F331F220F331F220F331FDE
S1130830821B930B955BF80191838083FFEF24E384
S11308408CE0F15020408040E1F700C0000088E1D6
S113085092E086DF60912A0470912B04072E000C2D
S1130860880B990BB4DF8FE192E07ADF6091330457
S113087070913404072E000C880B990BA8DF8AE2D0
S113088092E06EDF6091260470912704072E000C1D
S1130890880B990B9CDF89E392E062DF6091280466
S11308A070912904072E000C880B990B90DF85E1C9
S11308B092E056DFD0933104C09330049BE1E90EFB
S11308C0F11CE3EFEE16F10409F0A5CFA2CF1F92BD
S11308D00F920FB60F9211240BB60F922F933F93E2
S11308E04F935F936F937F938F939F93AF93BF9334
S11308F0EF93FF938091C6008093320429DF81E057
S113090090E09093B9028093B802FF91EF91BF9168
S1130910AF919F918F917F916F915F914F913F9193
S11309202F910F900BBE0F900FBE0F901F90189534
S1130930E8E6F0E0808181608083EBE6F0E080818E
S11309408260808308951F920F920FB60F92112434
S11309500BB60F922F933F934F935F936F937F93B5
S11309608F939F93AF93BF93EF93FF938091B702BD
S11309708823D1F18091B602811110C081E0809367
S1130980B6021092B2021092B3021092B402109204
S1130990B502109295001092940026C01092B602EF
S11309A02091B2023091B3024091B4025091B50249
S11309B0E0919400F0919500AFEFBFEF0E949B127D
S11309C06E0F7F1F811D911D24E730E040E050E051
S11309D00E9462122093AE023093AF024093B002A1
S11309E05093B1021092B702FF91EF91BF91AF9172
S11309F09F918F917F916F915F914F913F912F9133
S1130A000F900BBE0F900FBE0F901F901895289853
S1130A1085E08A95F1F70000289A81E08093B70277
S1130A2085E38A95F1F7000028980895C1E0D0E0A5
S1130A308091B702811116C02FEF80E792E0215018
S1130A4080409040E1F700C00000E1DF8091AE02F9
S1130A509091AF02A091B002B091B102909334048E
S1130A6080933304D0932303C0932203E1CFE1E9BD
S1130A70F0E080818260808310929500109294004F
S1130A80E1E7F0E080818160808308951F920F92F6
S1130A900FB60F9211240BB60F922F933F934F93DF
S1130AA05F936F937F938F939F93AF93BF93EF93D2
S1130AB0FF938091B6028823E9F18091B20290916C
S1130AC0B302A091B402B091B5020196A11DB11D6B
S1130AD08093B2029093B302A093B402B093B50290
S1130AE02091B2023091B3024091B4025091B50208
S1130AF0E0919400F0919500AFEFBFEF0E949B123C
S1130B00DC01CB018E0F9F1FA11DB11D8130944DBF
S1130B10A043B10578F01092B6021092B7028FEF9D
S1130B209FEFDC018093AE029093AF02A093B002DA
S1130B30B093B102FF91EF91BF91AF919F918F91CB
S1130B407F916F915F914F913F912F910F900BBEC9
S1130B500F900FBE0F901F901895269A82E38093F2
S1130B60800082E18093810080E29EE4909387007C
S1130B7080938600109285001092840080E09BE4AC
S1130B8090938B0080938A00EFE6F0E0808182608E
S1130B90808308951092B90088E48093B80084E0BB
S1130BA08093BC000895EF92FF920F9343E060E0BE
S1130BB081E0B3D3909321038093200320E040E0AD
S1130BC050E060E070E0D4D38AB183608AB9209A9F
S1130BD0B1DDAEDE4CDFC1DF789487DDDBDF109260
S1130BE023031092220310923104109230041092C5
S1130BF025041092240498E288E10FB6F894A8958D
S1130C00809360000FBE9093600085E492E0A8DDBD
S1130C10E12CF12C03E020E030E040E051E062E51B
S1130C2072E086E195E0EED620E030E040E051E06D
S1130C306FE572E085E094E0E5D620E030E040E046
S1130C4051E06BE672E08BEA96E0DCD604E020E04B
S1130C5030E040E051E06EE772E08EEB93E0D2D6F4
S1130C60E5D780E090E00F91FF90EF900895EF9228
S1130C70FF920F931F93CF93DF93ECEBF0E09081FF
S1130C809062908390819923ECF79091B900880F3A
S1130C908F5F8093BB0084E88093BC00ECEBF0E0B2
S1130CA080818823ECF78091B9008091BB00DB013F
S1130CB08C9390E050E041505109ECEBF0E00F2EA2
S1130CC0F4ECFF2EF02D0F2EF4E8EF2EF02D09EBAF
S1130CD010E0CBEBD0E0292F30E02417350711F4D6
S1130CE0E08201C0F08280818823ECF7D8018C91E6
S1130CF02881DB01A90FB11D2C939F5F803559F327
S1130D0084E98093BC00DF91CF911F910F91FF90F4
S1130D10EF900895ECEBF0E09081906290839081E5
S1130D209923ECF7880F8093BB0084E88093BC0080
S1130D30ECEBF0E080818823ECF76093BB0084E85F
S1130D408093BC00ECEBF0E080818823ECF784E92D
S1130D508093BC000895CF93DF931F921F92CDB769
S1130D60DEB701E010E063EE80E4D4DF42E0BE01D0
S1130D706F5F7F4F80E47BDF698170E0762F6627A9
S1130D808A81682B80E090E00E94711122E538EBA3
S1130D904FE253E40E94FF1120E030E040E857E3C3
S1130DA00E94FF1126E636E64BE352E40E94DB1074
S1130DB00E944011709327046093260465EE80E43A
S1130DC0A9DF42E0BE016F5F7F4F80E450DF2981DD
S1130DD030E0322F22278A81282BADE7B0E00E9431
S1130DE08C120E94711120E030E040E857E30E9429
S1130DF0FF1120E030E040EC50E40E94DB100E9440
S1130E0040117093290460932804109325040093DF
S1130E102404A9CF1F920F920FB60F9211248F931F
S1130E209F9395B180E4892785B99F918F910F9005
S1130E300FBE0F901F90189531E1FC01308331975C
S1130E4022E220833197A3E3A08331976083319713
S1130E5070833197108231971082319760E86083F4
S1130E60319710823197108231971082319762E066
S1130E706083319763E06083319764E060833197E6
S1130E8065E06083319766E06083319767E0608353
S1130E90319768E06083319769E06083319760E15E
S1130EA0608331973083319732E13083319733E176
S1130EB03083319734E13083319735E13083319792
S1130EC036E13083319737E13083319738E130832D
S1130ED0319739E13083319730E23083319731E211
S1130EE0308331972083319723E2208331974083E5
S1130EF031975083319726E22083319727E220836C
S1130F00319728E22083319729E22083319720E327
S1130F102083319721E320838997089588EC90E01A
S1130F209093360480933504909338048093370467
S1130F308DE487BD82E084BD85E085BDEEE6F0E00A
S1130F40808182608083A0911E03B0911F03CD91A4
S1130F50CDBFDD91DEBFFF91EF91DF91CF91BF91C6
S1130F60AF919F918F917F916F915F914F913F913D
S1130F702F911F910F91FF90EF90DF90CF90BF9032
S1130F80AF909F908F907F906F905F904F903F9025
S1130F902F901F900F900CBE0F900BBE0F900FBEA2
S1130FA00F90089581E008950F920FB6F8940F9270
S1130FB00BB60F920CB60F921F9211242F923F92F0
S1130FC04F925F926F927F928F929F92AF92BF9255
S1130FD0CF92DF92EF92FF920F931F932F933F9341
S1130FE04F935F936F937F938F939F93AF93BF932D
S1130FF0CF93DF93EF93FF93A0911E03B0911F0350
S11310000DB60D920EB60D9275D7A0911E03B09138
S11310101F03CD91CDBFDD91DEBFFF91EF91DF9135
S1131020CF91BF91AF919F918F917F916F915F917C
S11310304F913F912F911F910F91FF90EF90DF906F
S1131040CF90BF90AF909F908F907F906F905F9064
S11310504F903F902F901F900F900CBE0F900BBE9F
S11310600F900FBE0F9008950F920FB6F8940F9241
S11310700BB60F920CB60F921F9211242F923F922F
S11310804F925F926F927F928F929F92AF92BF9294
S1131090CF92DF92EF92FF920F931F932F933F9380
S11310A04F935F936F937F938F939F93AF93BF936C
S11310B0CF93DF93EF93FF93A0911E03B0911F038F
S11310C00DB60D920EB60D9213BE80913704909119
S11310D0380401979093380480933704892B49F49A
S11310E01DD98091350490913604909338048093EF
S11310F03704CAD58111FED6A0911E03B0911F03F7
S1131100CD91CDBFDD91DEBFFF91EF91DF91CF9106
S1131110BF91AF919F918F917F916F915F914F910B
S11311203F912F911F910F91FF90EF90DF90CF90FF
S1131130BF90AF909F908F907F906F905F904F90F3
S11311403F902F901F900F900CBE0F900BBE0F90EE
S11311500FBE0F90089588DF18950F931F93CF93B8
S1131160DF93EC01042F1A8D4C8D41110BC0888143
S11311709981892B09F041C08A819B81DCD71B822C
S11311801A8242C0011117C050E08C819D810E94D7
S1131190C6132C8D8C819D81820F911D9D838C8320
S11311A02A813B818217930750F1888199819D831D
S11311B08C8380E029C050E08E819F810E94C613F9
S11311C08C8D90E09195819591092E813F81280F16
S11311D0391F3F832E83488159812417350730F402
S11311E02A813B81820F931F9F838E83023049F4AF
S11311F0112349F0115080E007C080E005C080E071
S113120003C080E001C080E01F5F1A8FDF91CF919F
S11312101F910F910895EF92FF920F931F93CF9315
S11312208C010FB6F8940F92FC01C68D1C169CF429
S11312308189811106C00FC0F8018189811105C01F
S11312400AC07801F1E1EF0EF11CC701E5D6811166
S11312506ED7C15089F78FEFF801868F0F900FBEBC
S11312600FB6F8940F92C58D1C169CF480858111DD
S113127006C00FC0F8018085811105C00AC078013D
S1131280F8E0EF0EF11CC701C7D6811150D7C15049
S113129089F78FEFF801858F0F900FBECF911F91C3
S11312A00F91FF90EF900895CF93DF93EC010FB669
S11312B0F8940F92488159812C8D30E07B8D729F78
S11312C0C001739F900D1124FA01E80FF91FFB83ED
S11312D0EA831A8E5D834C83821B930B840F951FC4
S11312E09F838E838FEF8D8F8E8F61110AC08885C7
S11312F0882369F0CE0108968FD6882341F054DE06
S113130006C0CE01089667D9CE01419664D90F90E4
S11313100FBE81E0DF91CF9108950F931F93CF9378
S1131320DF93082F162F6623B1F0869FC001112486
S11313304F9610D8EC01009739F414C00B8F1C8F12
S113134061E0CE01B1DF0EC04F9699838883F6CF5A
S1131350D983C883F3CF8FE190E00E94AA01EC0106
S1131360892BB1F7CE01DF91CF911F910F91089591
S11313709F92AF92BF92CF92DF92EF92FF920F9320
S11313801F93CF93DF9300D01F921F92CDB7DEB788
S11313908C016B015D834C83A22EB12C9924939410
S11313A07C0188E0E80EF11C0FB6F8940F92F80166
S11313B0928D838D981718F0F2E0AF1215C04A2D64
S11313C0B601C801CADEF8019189992339F0C80130
S11313D0419622D6882321F0E7DD02C08111E4DDA5
S11313E00F900FBE81E045C08C819D81892B21F433
S11313F00F900FBE80E03DC0B11004C0CE01019635
S113140053D6B92C0F900FBE39D40FB6F8940F925F
S1131410F801858D8F3F09F4158EF801868D8F3F75
S113142009F4168E0F900FBEBE016C5F7F4FCE0184
S1131430019645D6811119C00FB6F8940F92F801A0
S1131440928D838D0F900FBE98130BC06C817D819C
S1131450C701D1D5C801DFDED1D48111A5CFA4DD68
S1131460A3CFC801D8DECAD49FCFC801D4DEC6D466
S113147080E00F900F900F900F900F90DF91CF911D
S11314801F910F91FF90EF90DF90CF90BF90AF909E
S11314909F9008951F920F920FB60F9211240BB6CE
S11314A00F922F938F939F93AF93BF93EF93FF93D9
S11314B00FB6F8940F9280914604909147040F90D0
S11314C00FBE892B31F4E1ECF0E080818F7D8083C5
S11314D01CC0E6E4F4E0A481B5812D91B583A48316
S11314E080859185A817B90721F486819781958312
S11314F084830FB6F8940F92808191810197918330
S113150080830F900FBE2093C600FF91EF91BF918F
S1131510AF919F918F912F910F900BBE0F900FBEA3
S11315200F901F9018951F920F920FB60F921124CF
S11315300BB60F922F933F934F938F939F93AF9339
S1131540BF93EF93FF938091C8008C7171F08091E9
S1131550C80088230CF036C0AEECB0E0E8ECF0E054
S11315608C9180818823E4F32DC04091CE000FB686
S1131570F8940F92EFE9F4E0218132810F900FBECD
S11315808385948528173907E9F0E0EAF4E0A2811D
S1131590B3814C93828193810196938382832085C6
S11315A031858217930721F48681978193838283FF
S11315B00FB6F8940F928081918101969183808374
S11315C00F900FBEFF91EF91BF91AF919F918F91BB
S11315D04F913F912F910F900BBE0F900FBE0F9024
S11315E01F9018951F920F920FB60F9211240BB6ED
S11315F00F922F938F939F93AF93BF93EF93FF9388
S11316000FB6F8940F928091AC049091AD040F90B2
S11316100FBE892B31F4E9ECF0E080818F7D80836B
S11316201CC0ECEAF4E0A481B5812D91B583A483B8
S113163080859185A817B90721F4868197819583C0
S113164084830FB6F8940F928081918101979183DE
S113165080830F900FBE2093CE00FF91EF91BF9136
S1131660AF919F918F912F910F900BBE0F900FBE52
S11316700F901F9018951F920F920FB60F9211247E
S11316800BB60F922F933F934F938F939F93AF93E8
S1131690BF93EF93FF938091D0008C7171F0809190
S11316A0D00088230CF036C0A6EDB0E0E0EDF0E009
S11316B08C9180818823E4F32DC04091D6000FB62D
S11316C0F8940F92EBE5F4E0218132810F900FBE84
S11316D08385948528173907E9F0ECE5F4E0A281C5
S11316E0B3814C9382819381019693838283208575
S11316F031858217930721F48681978193838283AE
S11317000FB6F8940F928081918101969183808322
S11317100F900FBEFF91EF91BF91AF919F918F9169
S11317204F913F912F910F900BBE0F900FBE0F90D2
S11317301F9018951F920F920FB60F9211240BB69B
S11317400F922F938F939F93AF93BF93EF93FF9336
S11317500FB6F8940F9280916804909169040F90E9
S11317600FBE892B31F4E1EDF0E080818F7D808321
S11317701CC0E8E6F4E0A481B5812D91B583A4836F
S113178080859185A817B90721F48681978195836F
S113179084830FB6F8940F9280819181019791838D
S11317A080830F900FBE2093D600FF91EF91BF91DD
S11317B0AF919F918F912F910F900BBE0F900FBE01
S11317C00F901F9018951F920F920FB60F9211242D
S11317D00BB60F922F933F934F938F939F93AF9397
S11317E0BF93EF93FF93809130018C7171F08091DE
S11317F0300188230CF036C0A6E3B1E0E0E3F1E069
S11318008C9180818823E4F32DC0409136010FB67A
S1131810F8940F92EDE7F4E0218132810F900FBE2E
S11318208385948528173907E9F0EEE7F4E0A2816F
S1131830B3814C9382819381019693838283208523
S113184031858217930721F486819781938382835C
S11318500FB6F8940F9280819181019691838083D1
S11318600F900FBEFF91EF91BF91AF919F918F9118
S11318704F913F912F910F900BBE0F900FBE0F9081
S11318801F9018951F920F920FB60F9211240BB64A
S11318900F922F938F939F93AF93BF93EF93FF93E5
S11318A00FB6F8940F9280918A0490918B040F9054
S11318B00FBE892B31F4E1E3F1E080818F7D8083D9
S11318C01CC0EAE8F4E0A481B5812D91B583A4831A
S11318D080859185A817B90721F48681978195831E
S11318E084830FB6F8940F9280819181019791833C
S11318F080830F900FBE20933601FF91EF91BF912B
S1131900AF919F918F912F910F900BBE0F900FBEAF
S11319100F901F901895E091E602F091E702808104
S1131920811107C08FEF9FEF9093BE028093BD0299
S11319300895E091E602F091E7020580F681E02D3A
S11319400680F781E02D828193819093BE0280937B
S1131950BD020895FF920F931F93CF93DF93EC0181
S1131960F62E0091C5021091C60280911E0390913B
S11319701F0302960E944F03CF3F8FEFD80769F4ED
S1131980FF2059F060911E0370911F036E5F7F4F1B
S113199088EC92E00E94FD022FC0C00FD11FE0919D
S11319A01E03F0911F03D383C283C017D10768F4C9
S11319B060911E0370911F038091E4029091E502EF
S11319C06E5F7F4F0E941E0317C060911E037091CB
S11319D01F038091E6029091E7026E5F7F4F0E94A1
S11319E01E038091BD029091BE02C817D90720F44E
S11319F0D093BE02C093BD02DF91CF911F910F918E
S1131A00FF9008954F925F926F927F928F929F9270
S1131A10AF92BF92CF92DF92EF92FF920F93CF9348
S1131A20DF934C016B015A012901CA010E94AA01EA
S1131A303C01892B09F4E9C088E290E00E94AA01E4
S1131A40EC01892BA9F0788E6F8AA50165EA70E014
S1131A50C301A5D681E0A81AB1088F89988DA80E74
S1131A60B91ED6018C91898F8C91811105C018C043
S1131A70C3010E94BC01C9C0AE01465E5F4FF601BE
S1131A803196B8E0CB0ED11CCF012191DA012D9310
S1131A90AD01DC018C91882319F0EC15FD05A1F74B
S1131AA018A2043008F003E00E8B09A31AA26E01F9
S1131AB0B2E0CB0ED11CC6010E94F902CE010C96F5
S1131AC00E94F902D987C88784E090E0801B9109BD
S1131AD09D878C87DB8BCA8B1BA21CA21DA21EA216
S1131AE01FA2A201B401C501A7D999838883E11477
S1131AF0F10419F0F701D183C0830FB6F8940F9263
S1131B008091C7028F5F8093C70280911E039091DA
S1131B101F03892BD1F5D0931F03C0931E0380911B
S1131B20C702813009F041C08AEF92E00E94EB02C3
S1131B3083E093E00E94EB028CE093E00E94EB02CE
S1131B4085E193E00E94EB0281EF92E00E94EB02B8
S1131B5088EE92E00E94EB028BED92E00E94EB0291
S1131B6082ED92E00E94EB0288EC92E00E94EB028C
S1131B7081EF92E09093E7028093E60288EE92E090
S1131B809093E5028093E40210C08091C302811116
S1131B900CC0E0911E03F0911F0396898E8989176A
S1131BA020F0D0931F03C0931E038091BF028F5F68
S1131BB08093BF028E899091C402981710F4809389
S1131BC0C40290E09C01220F331F220F331F220F07
S1131BD0331F820F931FB60186509D4F0E94FD0252
S1131BE00F900FBE8091C302882359F0E0911E0329
S1131BF0F0911F0396898E89981728F4D5D981E02E
S1131C0005C081E003C081E001C08FEFDF91CF9177
S1131C100F91FF90EF90DF90CF90BF90AF909F9087
S1131C208F907F906F905F904F900895EF92FF9206
S1131C300F930F2EFBEBEF2EF2E0FF2EF02D00E0C2
S1131C4020E030E045E550E06DE872E083E391E0A8
S1131C50D9DE813079F4F8948FEF9FEF9093BE0230
S1131C608093BD0281E08093C3021092C602109259
S1131C70C50254D90F91FF90EF9008958091BA0254
S1131C808F5F8093BA020895CF92DF92EF92FF9212
S1131C900F931F93CF93DF938091BA02811198C061
S1131CA0E090C502F090C6028FEFE81AF80AF092AD
S1131CB0C602E092C502E114F104B1F48091E60297
S1131CC09091E7022091E4023091E5023093E7021B
S1131CD02093E6029093E5028093E4028091C0028F
S1131CE08F5F8093C00217DE8091BD029091BE0287
S1131CF0E816F90610F4D12C53C0D12CCC24C3948B
S1131D00E091E602F091E7028081811107C08FEF34
S1131D109FEF9093BE028093BD0242C0E091E60221
S1131D20F091E7020580F681E02DC681D7818A8192
S1131D309B81E816F90628F49093BE028093BD02B5
S1131D402FC08E010E5F1F4FC8010E944F038C8964
S1131D509D89892B21F0CE010C960E944F038E8918
S1131D609091C402981710F48093C40290E09C01EF
S1131D70220F331F220F331F220F331F820F931F93
S1131D80B80186509D4F0E94FD02E0911E03F09120
S1131D901F039E898689981708F4B2CFDC2CB0CF34
S1131DA0E0911E03F0911F03868990E0FC01EE0F81
S1131DB0FF1FEE0FFF1FEE0FFF1F8E0F9F1FFC0173
S1131DC0E650FD4F8081823048F0DD24D39406C074
S1131DD08091C2028F5F8093C202D12C8091C10294
S1131DE0882311F0DD24D3948D2DDF91CF911F91A1
S1131DF00F91FF90EF90DF90CF900895DF92EF92D4
S1131E00FF920F931F93CF93DF930FB6F8940F9223
S1131E108091BA0281508093BA028091BA028111F2
S1131E205CC08091C702811133C05AC0D701159696
S1131E30ED91FC911697C681D781CE010C960E9434
S1131E404F038E010E5F1F4FC8010E944F038E89FE
S1131E509091C402981710F48093C40290E09C01FE
S1131E60220F331F220F331F220F331F820F931FA2
S1131E70B80186509D4F0E94FD02E0911E03F0912F
S1131E801F039E898689981768F0D092C1020AC000
S1131E90C0E0D0E00F2EFBEDEF2EF2E0FF2EF02D90
S1131EA0DD24D394F70180818111C0CFCD2B09F0BB
S1131EB032DDC091C202CC2349F0D1E0E5DE8111CC
S1131EC0D093C102C150D1F71092C2028091C102D5
S1131ED0882329F069D881E003C080E001C080E054
S1131EE00F900FBEDF91CF911F910F91FF90EF9054
S1131EF0DF9008958091BA02882321F081E08093D5
S1131F00C10208951092C102A0911E03B0911F0353
S1131F10E0911E03F0911F032D913C918789908DD0
S1131F208217930760F060911E0370911F038091E4
S1131F301E0390911F03675E7F4F0E94EE01209164
S1131F40C402822F90E0FC01EE0FFF1FEE0FFF1F73
S1131F50EE0FFF1FE80FF91FE650FD4F30813111DE
S1131F6011C02150822F90E0FC01EE0FFF1FEE0FF5
S1131F70FF1FEE0FFF1FE80FF91FE650FD4F3081E2
S1131F80332379F3AC01440F551F440F551F440FFD
S1131F90551F480F591FDA01A650BD4F1196ED91F8
S1131FA0FC9112970280F381E02D1296FC93EE933C
S1131FB0119743505D4FE417F50729F4428153818B
S1131FC0FD0152834183FC01EE0FFF1FEE0FFF1F43
S1131FD0EE0FFF1F8E0F9F1FFC01E650FD4F018087
S1131FE0F281E02D8681978190931F0380931E03D5
S1131FF02093C4020895CF93DF93EB0160911E03F5
S113200070911F03645F7F4F0E941E0361E0CE0145
S1132010A1DCDF91CF9108950F931F93CF93DF93AA
S1132020DC011596ED91FC911697C681D7818E013E
S1132030045F1F4FC8010E944F038091BA028111AF
S11320401CC00A501109C8010E944F038E89909147
S1132050C402981710F48093C40290E09C01220FEC
S1132060331F220F331F220F331F820F931FB80118
S113207086509D4F0E94FD0205C0B8018BED92E091
S11320800E94FD02E0911E03F0911F039E89868940
S1132090891720F481E08093C10201C080E0DF91C0
S11320A0CF911F910F9108952091C002FC012083CC
S11320B02091C5023091C6023283218308950FB660
S11320C0F8940F924091C5025091C602DB012D9104
S11320D03C912F3FBFEF3B0711F1E091C002DC01BF
S11320E0FC91FE1739F01196ED91FC9112974E1761
S11320F05F07B8F4DC011196ED91FC911297DA01B7
S1132100AE1BBF0BA217B30770F4DB01E41BF50B86
S11321102E0F3F1F2D933C93C7DF80E005C080E066
S113212003C081E001C081E00F900FBE089581E0FB
S11321308093C10208950F931F93CF93DF93FC0103
S1132140892B79F182A1815082A3268991A1291733
S113215051F181112AC0EF018F010E5F1F4FC80199
S11321600E944F0389A18E8B24E030E0281B3109A3
S11321703D872C879091C402981710F48093C40271
S113218090E09C01220F331F220F331F220F331FB5
S1132190820F931FB80186509D4F0E94FD0281E07B
S11321A005C080E003C080E001C080E0DF91CF91F2
S11321B01F910F9108955058BB27AA270ED0E5C050
S11321C0D6D030F0DBD020F031F49F3F11F41EF470
S11321D0CBC00EF4E095E7FBC1C0E92FE7D080F354
S11321E0BA17620773078407950718F071F49EF510
S11321F0FFC00EF4E0950B2EBA2FA02D0B01B901F0
S113220090010C01CA01A0011124FF27591B99F068
S1132210593F50F4503E68F11A16F040A22F232F74
S1132220342F4427585FF3CF469537952795A795C4
S1132230F0405395C9F77EF41F16BA0B620B730B6B
S1132240840BBAF09150A1F0FF0FBB1F661F771FDC
S1132250881FC2F70EC0BA0F621F731F841F48F491
S1132260879577956795B795F7959E3F08F0B3CF17
S11322709395880F08F09927EE0F97958795089501
S113228004D06894B111B5C0089598D088F09F57D0
S113229090F0B92F9927B751A0F0D1F0660F771FAE
S11322A0881F991F1AF0BA95C9F712C0B13081F08E
S11322B09FD0B1E008959CC0672F782F8827B85F1E
S11322C039F0B93FCCF3869577956795B395D9F7EF
S11322D03EF490958095709561957F4F8F4F9F4FF9
S11322E00895E89409C097FB3EF490958095709505
S11322F061957F4F8F4F9F4F9923A9F0F92F96E94E
S1132300BB279395F695879577956795B795F111C2
S1132310F8CFFAF4BB0F11F460FF1BC06F5F7F4F5F
S11323208F4F9F4F16C0882311F096E911C0772371
S113233021F09EE8872F762F05C0662371F096E87A
S1132340862F70E060E02AF09A95660F771F881F49
S1132350DAF7880F9695879597F9089597F99F6707
S113236080E870E060E008959FEF80EC0895002419
S11323700A941616170618060906089500240A94E6
S113238012161306140605060895092E0394000C6C
S113239011F4882352F0BB0F40F4BF2B11F460FFFB
S11323A004C06F5F7F4F8F4F9F4F089557FD905824
S11323B0440F551F59F05F3F71F04795880F97FB05
S11323C0991F61F09F3F79F08795089512161306BF
S11323D01406551FF2CF4695F1DF08C016161706EE
S11323E01806991FF1CF8695710561050894089523
S11323F0E894BB2766277727CB0197F908950BD07C
S1132400C4CFB5DF28F0BADF18F0952309F0A6CFC2
S1132410ABCF1124EECFCADFA0F3959FD1F3950F74
S113242050E0551F629FF001729FBB27F00DB11D54
S1132430639FAA27F00DB11DAA1F649F6627B00DE4
S1132440A11D661F829F2227B00DA11D621F739FCD
S1132450B00DA11D621F839FA00D611D221F749FDB
S11324603327A00D611D231F849F600D211D822F22
S1132470762F6A2F11249F5750408AF0E1F0882369
S11324804AF0EE0FFF1FBB1F661F771F881F915076
S11324905040A9F79E3F510570F060CFAACF5F3F2F
S11324A0ECF3983EDCF3869577956795B795F795A9
S11324B0E7959F5FC1F7FE2B880F911D9695879531
S11324C097F90895A1E21A2EAA1BBB1BFD010DC0AA
S11324D0AA1FBB1FEE1FFF1FA217B307E407F507D0
S11324E020F0A21BB30BE40BF50B661F771F881FAC
S11324F0991F1A9469F760957095809590959B0142
S1132500AC01BD01CF010895EE0FFF1F881F8BBFE3
S11325100790F691E02D1994A29FB001B39FC001DA
S1132520A39F700D811D1124911DB29F700D811DFB
S11325301124911D0895F0DFA59F900DB49F900D77
S1132540A49F800D911D112408950F931F93CF9381
S1132550DF938230910510F482E090E0E091C304AF
S1132560F091C40420E030E0A0E0B0E0309719F12D
S1132570408151810281138148175907C8F084179B
S1132580950769F4109731F012960C9312971396ED
S11325901C9327C00093C3041093C40422C02115C4
S11325A0310519F04217530718F49A01BD01EF01E0
S11325B0DF01F801DBCF21153105F9F0281B390BB8
S11325C02430310580F48A819B816115710521F0E5
S11325D0FB019383828304C09093C4048093C30457
S11325E0FE01329644C0FE01E20FF31F81939193E2
S11325F022503109398328833AC02091C104309193
S1132600C204232B41F4209102023091030230933F
S1132610C2042093C10420910002309101022115CB
S1132620310541F42DB73EB74091040250910502A3
S1132630241B350BE091C104F091C204E217F307A7
S1132640A0F42E1B3F0B2817390778F0AC014E5F1E
S11326505F4F2417350748F04E0F5F1F5093C20495
S11326604093C1048193919302C0E0E0F0E0CF0174
S1132670DF91CF911F910F910895CF93DF9300972E
S113268009F481C0FC01329713821282A091C30421
S1132690B091C404109781F420813181820F931F7B
S11326A02091C1043091C2042817390751F5F093E1
S11326B0C204E093C10467C0ED0120E030E0CE170E
S11326C0DF0740F44A815B819E0141155105F1F019
S11326D0EA01F5CFD383C28340815181840F951FD2
S11326E0C817D90759F488819981840F951F0296D8
S11326F0918380838A819B81938382832115310511
S113270029F4F093C404E093C3043DC0E901FB83BE
S1132710EA8349915991C40FD51FEC17FD0761F461
S113272080819181840F951F0296E90199838883A2
S1132730828193819B838A83E0E0F0E012968D91FD
S11327409C911397009719F0FD01DC01F7CF8D914F
S11327509C9111979D012E5F3F4F820F931F2091F3
S1132760C1043091C2042817390769F4309729F459
S11327701092C4041092C30402C013821282B09354
S1132780C204A093C104DF91CF910895FB01DC0141
S113279002C001900D9241505040D8F70895DC01D9
S11327A001C06D9341505040E0F70895BB274A3073
S11327B031F4992322F4BDE2909581959F4F01C095
S11327C0BB27FB015527AA27880F991FAA1FA41707
S11327D010F0A41B83955051B9F7A05DAA3308F0FB
S11327E0A95DA193009779F7B111B1931192CB012F
S11327F000C0DC01FC01672F71917723E1F7329768
S113280004C07C916D9370836291AE17BF07C8F3C7
S10928100895F894FFCFC7
S11328160000C9042000F85741544348444F472058
S113282652455345540A0D00686F656B3A200020E3
S113283661667374616E643A20002074656D706518
S11328467261747575723A20002068756D696469E1
S113285674793A2000736574757020646F6E650A26
S11328660D00536F6E61722053656E736F72005361
S11328766572766F204D6F746F720074656D706546
S11328867261747575722053656E736F7200776129
S1132896746368646F672072657365740049444C99
S10528A64500E7
S9030000FC
