:100000006DC100008CC100008AC1000088C10000E1
:1000100086C1000084C1000082C1000080C10000D0
:100020007EC100007CC100007AC1000078C10000E0
:1000300076C1000074C1000072C1000070C10000F0
:100040006EC100006CC100006AC1000068C1000000
:1000500066C10000C4C4000062C1000060C10000AD
:100060005EC1000038C7000095C7000058C10000FD
:1000700056C1000054C1000052C1000050C1000030
:100080004EC100004CC100004AC1000048C1000040
:10009000CAC700000C94720842C1000095C100005C
:1000A0003EC100003CC100003AC1000038C1000060
:1000B00036C1000034C1000032C1000030C1000070
:1000C0002EC100002CC100002AC100000C94BB0806
:1000D0000C941A0924C100000C9463090C94C20901
:1000E0001EC100000302BE02BE02BE02BE02BE026C
:1000F000BE02BE020302BE02BE02BE02BE02BE02BB
:10010000BE02BE020502BE02BE02BE02BE02BE02A8
:10011000BE02BE022202BE02BE02BE02BE02BE027B
:10012000BE02BE020502BE02BE02BE02BE02BE0288
:10013000BE02BE022202BE02BE02BE02BE02BE025B
:10014000BE02BE02BA02BE02BE02BE02BE02BE02B3
:10015000BE02BE023602BE02BE02BE02BE02BE0227
:10016000BE02BE025902BE02BE02BE02BE02BE02F4
:10017000BE02BE022A02BE02BE02BE02BE02BE0213
:10018000BE02BE024802BE02BE02BE02BE02BE02E5
:10019000BE02BE029002BE02BE02BE02BE02BE028D
:1001A000BE02BE029002BE02BE02BE02BE02BE027D
:1001B000BE02BE028B02BE02BE02BE02BE02BE0272
:1001C000BE02BE028B02BE02BE02BE02BE02BE0262
:1001D000BE02BE029B02BE02BE02BE02BE02BE0242
:1001E000BE02BE02B002BE02BE02BE02BE02BE021D
:1001F000BE02BE029B02BE02BE02BE02BE02BE0222
:10020000BE02BE02B002BE02BE02BE02BE02BE02FC
:10021000BE02BE02B402BE02BE02BE02BE02BE02E8
:10022000BE02BE026102BE02BE02BE02BE02BE022B
:10023000BE02BE026102BE02BE02BE02BE02BE021B
:10024000BE02BE026302BE02BE02BE02BE02BE0209
:10025000BE02BE027302BE02BE02BE02BE02BE02E9
:10026000BE02BE02870208E812E00F2EF0EBEF2E6E
:10027000F2E0FF2EF02D26C00E94B80BD801CC91E1
:100280000E94820CCC23F1F00FB6F8940F92D801A3
:100290001596ED91FC911697C681D781CE010296F5
:1002A000E7D180917D02815080937D028091870209
:1002B0008150809387020F900FBE8F89988D5ED0FA
:1002C000CE015CD0809187028111D6CFF701808169
:1002D000823008F0ABD20E94D10FF4CF11241FBEA0
:1002E000CFEFD1E2DEBFCDBF00E00CBF12E0A0E057
:1002F000B2E0E2ECF2E200E00BBF02C007900D9228
:10030000A435B107D9F723E0A4E5B2E001C01D92FE
:10031000A437B207E1F70E941E0F0C945F1170CE54
:100320008F938FB78F93F8948091DE028F5F8093C5
:10033000DE028091DF028F4F8093DF028091E00226
:100340008F4F8093E0028091E1028F4F8093E10212
:100350008F918FBF8F910895CF93DF93EC010E940F
:10036000B80BCE010E94FD0FEC010E94820C209779
:1003700009F413D0CE01DF91CF910895CF93DF938D
:10038000009741F0EC010E94B80BCE010E9495103D
:100390000E94820CDF91CF910895279A2F9A83EDC6
:1003A00090E30197F1F700C000001F9AF8CF279A59
:1003B0002F9A2FE78AE196E0215080409040E1F7A4
:1003C00000C000001F9AF5CF1F920F920FB60F9238
:1003D00011240BB60F922F933F938F939F93AF935C
:1003E000BF93EF93FF93E091B9008E2F90E0FC0153
:1003F0003897E13CF10508F0C1C08827EE58FF4F5F
:100400008F4F0C94F50F10925402E091540280919A
:100410005702E81770F481E08E0F80935402F0E0E9
:10042000E85AFD4F80818093BB0085E88093BC0033
:10043000ACC08091550281608093550284E980931D
:10044000BC00A3C08091B9008093060285EE809322
:10045000BC009BC0E091540281E08E0F8093540257
:100460008091BB00F0E0E85AFD4F80832091540258
:1004700030E08091570290E001972817390724F463
:1004800085EC8093BC0081C085E88093BC007DC072
:100490008091BB00E0915402F0E0E85AFD4F808368
:1004A0008091550281608093550284ED8093BC0059
:1004B0006CC08091B9008093060285ED8093BC00EA
:1004C00064C010925402E091540281E08E0F809338
:1004D0005402F0E0E85AFD4F80818093BB0085EC28
:1004E0008093BC0052C0909154028091570298139F
:1004F00006C08091550281608093550204C08091AE
:10050000B9008093060284E08093BC003EC085EC75
:100510008093BC003AC0809155028460809355025C
:10052000809155028260809355021092540285ECAE
:100530008093BC002AC0E091540281E08E0F80932A
:1005400054028091BB00F0E0E85AFD4F8083809117
:10055000550281608093550285EC8093BC0015C0E4
:1005600085E88093BC0011C084E08093560280939C
:10057000BC000BC085EE8093BC0007C08091B90021
:100580008093060285ED8093BC00FF91EF91BF91AF
:10059000AF919F918F913F912F910F900BBE0F9034
:1005A0000FBE0F901F901895FC01039692838183D4
:1005B0002FEF3FEF34832383968385839087878350
:1005C00010820895FC01118610860895CF93DF9361
:1005D0009C01FB01DC011196CD91DC911297D38334
:1005E000C2838C819D81958384838C819D81DC0174
:1005F00013967C936E9312977D836C83318720874B
:10060000F90180818F5F8083DF91CF910895CF932F
:10061000DF93EB01488159814F3F2FEF520721F4BF
:10062000FC01A781B0850DC0DC01139601C0DF017C
:100630001296ED91FC911397208131814217530757
:10064000B0F71296ED91FC911397FB83EA83D58363
:10065000C483BD83AC831396DC93CE9312979987A2
:100660008887FC0120812F5F2083DF91CF9108953F
:10067000CF93DF93FC01A085B185C281D3818481B2
:1006800095819D838C83C481D581828193819B8355
:100690008A8311968D919C911297E817F90731F48E
:1006A0008481958112969C938E9311971186108662
:1006B0008C9181508C93DF91CF91089531E1FC01B1
:1006C0003083319722E220833197A3E3A0833197CF
:1006D0006083319770833197108231971082319700
:1006E00060E86083319710823197108231971082D1
:1006F000319762E06083319763E06083319764E013
:100700006083319765E06083319766E0608331975D
:1007100067E06083319768E06083319769E06083C8
:10072000319760E1608331973083319732E13083D4
:10073000319733E13083319734E13083319735E1BC
:100740003083319736E13083319737E13083319709
:1007500038E13083319739E13083319730E23083AB
:10076000319731E2308331972083319723E2208320
:100770003197408331975083319726E22083319718
:1007800027E22083319728E22083319729E22083D2
:10079000319720E32083319721E3208389970895BF
:1007A00088EC90E09093E3028093E2029093E5025C
:1007B0008093E4028DE487BD82E084BD85E085BD41
:1007C000EEE6F0E0808182608083A091D402B09157
:1007D000D502CD91CDBFDD91DEBFFF91EF91DF91CD
:1007E000CF91BF91AF919F918F917F916F915F91C9
:1007F0004F913F912F911F910F91FF90EF90DF90BC
:10080000CF90BF90AF909F908F907F906F905F90B0
:100810004F903F902F901F900F900CBE0F900BBEEB
:100820000F900FBE0F90089581E008950F920FB6BC
:10083000F8940F920BB60F920CB60F921F921124E0
:100840002F923F924F925F926F927F928F929F92E0
:10085000AF92BF92CF92DF92EF92FF920F931F93CE
:100860002F933F934F935F936F937F938F939F93B8
:10087000AF93BF93CF93DF93EF93FF93A091D402F5
:10088000B091D5020DB60D920EB60D920E943A0DA2
:10089000A091D402B091D502CD91CDBFDD91DEBF44
:1008A000FF91EF91DF91CF91BF91AF919F918F9188
:1008B0007F916F915F914F913F912F911F910F9178
:1008C000FF90EF90DF90CF90BF90AF909F908F9070
:1008D0007F906F905F904F903F902F901F900F9060
:1008E0000CBE0F900BBE0F900FBE0F9008950F928D
:1008F0000FB6F8940F920BB60F920CB60F921F9290
:1009000011242F923F924F925F926F927F928F921B
:100910009F92AF92BF92CF92DF92EF92FF920F938E
:100920001F932F933F934F935F936F937F938F9377
:100930009F93AF93BF93CF93DF93EF93FF93A091D8
:10094000D402B091D5020DB60D920EB60D9213BE23
:100950008091E4029091E50201979093E5028093E3
:10096000E402892B49F4DCDC8091E2029091E302FD
:100970009093E5028093E4020BD781110E943A0D17
:10098000A091D402B091D502CD91CDBFDD91DEBF53
:10099000FF91EF91DF91CF91BF91AF919F918F9197
:1009A0007F916F915F914F913F912F911F910F9187
:1009B000FF90EF90DF90CF90BF90AF909F908F907F
:1009C0007F906F905F904F903F902F901F900F906F
:1009D0000CBE0F900BBE0F900FBE0F90089587DFD7
:1009E00018950FB6F8940F92FC01928D0F900FBEE0
:1009F00081E0911180E008950F931F93CF93DF93CF
:100A0000EC01042F1A8D4C8D41110CC08881998105
:100A1000892B09F042C08A819B810E94BD0E1B82F6
:100A20001A8242C0011117C050E08C819D810E9442
:100A30001E112C8D8C819D81820F911D9D838C8335
:100A40002A813B818217930750F1888199819D8388
:100A50008C8380E029C050E08E819F810E941E110E
:100A60008C8D90E09195819591092E813F81280F81
:100A7000391F3F832E83488159812417350730F46D
:100A80002A813B81820F931F9F838E83023049F41A
:100A9000112349F0115080E007C080E005C080E0DC
:100AA00003C080E001C080E01F5F1A8FDF91CF910B
:100AB0001F910F910895FC01448D4423A9F050E04B
:100AC00026813781240F351F3783268382819381C6
:100AD0002817390720F08081918197838683CB0185
:100AE000668177810C941E110895EF92FF920F9307
:100AF0001F93CF938C010FB6F8940F92FC01C68D13
:100B00001C16ACF48189811106C011C0F8018189DD
:100B1000811105C00CC07801F1E1EF0EF11CC70195
:100B20000E94CC0D81110E94570EC15079F78FEFB2
:100B3000F801868F0F900FBE0FB6F8940F92C58DF7
:100B40001C16ACF48085811106C011C0F8018085A7
:100B5000811105C00CC07801F8E0EF0EF11CC7014F
:100B60000E94CC0D81110E94570EC15079F78FEF72
:100B7000F801858F0F900FBECF911F910F91FF90BD
:100B8000EF900895CF93DF93EC010FB6F8940F9296
:100B9000488159812C8D30E07B8D729FC001739FFD
:100BA000900D1124FA01E80FF91FFB83EA831A8ED6
:100BB0005D834C83821B930B840F951F9F838E83D1
:100BC0008FEF8D8F8E8F61110AC08885882369F021
:100BD000CE010896E1D7882341F028DE06C0CE0179
:100BE0000896E2DCCE014196DFDC0F900FBE81E07B
:100BF000DF91CF9108950F931F93CF93DF93082F29
:100C0000162F6623B1F0869FC00111244F96A4DBF6
:100C1000EC01009739F413C00B8F1C8F61E0CE01FB
:100C2000B1DF0DC04F9699838883F6CFD983C883EF
:100C3000F3CF8FE190E090DBEC01892BB9F7CE0187
:100C4000DF91CF911F910F9108959F92AF92BF9224
:100C5000CF92DF92EF92FF920F931F93CF93DF9388
:100C600000D01F921F92CDB7DEB78C016B015D8360
:100C70004C83A22EB12C992493947C0188E0E80E39
:100C8000F11C0FB6F8940F92F801928D838D98178E
:100C900018F0F2E0AF1215C04A2DB601C801ACDE63
:100CA000F8019189992339F0C801419675D78823B5
:100CB00021F0BCDD02C08111B9DD0F900FBE81E0D3
:100CC00045C08C819D81892B21F40F900FBE80E05F
:100CD0003DC0B11004C0CE010196A6D7B92C0F902B
:100CE0000FBE46D50FB6F8940F92F801858D8F3F51
:100CF00009F4158EF801868D8F3F09F4168E0F903A
:100D00000FBEBE016C5F7F4FCE01019698D7811157
:100D100019C00FB6F8940F92F801928D838D0F9041
:100D20000FBE98130BC06C817D81C70124D7C80109
:100D3000DCDEE8D58111A5CF79DDA3CFC801D5DEF2
:100D4000E1D59FCFC801D1DEDDD580E00F900F90B7
:100D50000F900F900F90DF91CF911F910F91FF9007
:100D6000EF90DF90CF90BF90AF909F9008958F92BB
:100D70009F92AF92BF92CF92DF92EF92FF920F932A
:100D80001F93CF93DF9300D01F921F92CDB7DEB792
:100D90008C015B015D834C83822EE12C992493941A
:100DA0006C0181E1C80ED11C0FB6F8940F92F801C6
:100DB000F28CFF2069F1C680D780B501C8017BDEC7
:100DC000811017C0FA94F801F28E80819181892BED
:100DD00029F40E94FD0EF80193838283F801808537
:100DE000882391F0C8010896D7D6882369F01EDDC4
:100DF0000BC0F801D782C6828189882329F0C801F7
:100E00004196CAD6811112DD0F900FBE81E051C00C
:100E10008C819D81892B21F40F900FBE80E049C009
:100E2000E11004C0CE010196FFD6E92C0F900FBE51
:100E30009FD40FB6F8940F92F801858D8F3F09F477
:100E4000158EF801868D8F3F09F4168E0F900FBE18
:100E5000BE016C5F7F4FCE010196F1D6811120C09B
:100E6000C801BFDD8823C1F0F80180819181892B01
:100E700041F40FB6F8940F92828193811CD70F90A2
:100E80000FBE6C817D81C60176D6C8012EDE3AD5B3
:100E900081118ACFCBDC88CFC80127DE33D584CF40
:100EA000C80123DE2FD5C8019CDD882309F47CCF3F
:100EB00080E00F900F900F900F900F90DF91CF91E7
:100EC0001F910F91FF90EF90DF90CF90BF90AF9068
:100ED0009F908F9008951F920F920FB60F9211243A
:100EE0000BB60F922F933F934F938F939F93AF9394
:100EF000BF93EF93FF938091C0008C7171F080914C
:100F0000C00088230CF036C0A6ECB0E0E0ECF0E0C6
:100F10008C9180818823E4F32DC04091C6000FB6E8
:100F2000F8940F92E6EEF2E0218132810F900FBE2D
:100F30008385948528173907E9F0E7EEF2E0A2816E
:100F4000B3814C9382819381019693838283208520
:100F500031858217930721F4868197819383828359
:100F60000FB6F8940F9280819181019691838083CE
:100F70000F900FBEFF91EF91BF91AF919F918F9115
:100F80004F913F912F910F900BBE0F900FBE0F907E
:100F90001F9018951F920F920FB60F9211240BB647
:100FA0000F922F938F939F93AF93BF93EF93FF93E2
:100FB0000FB6F8940F928091F3029091F4020F9083
:100FC0000FBE892B31F4E1ECF0E080818F7D8083CE
:100FD0001CC0E3EFF2E0A481B5812D91B583A48319
:100FE00080859185A817B90721F48681978195831B
:100FF00084830FB6F8940F92808191810197918339
:1010000080830F900FBE2093C600FF91EF91BF9198
:10101000AF919F918F912F910F900BBE0F900FBEAC
:101020000F901F9018951F920F920FB60F921124D8
:101030000BB60F922F933F934F938F939F93AF9342
:10104000BF93EF93FF938091C8008C7171F08091F2
:10105000C80088230CF036C0AEECB0E0E8ECF0E05D
:101060008C9180818823E4F32DC04091CE000FB68F
:10107000F8940F92ECE4F3E0218132810F900FBEDF
:101080008385948528173907E9F0EDE4F3E0A28120
:10109000B3814C93828193810196938382832085CF
:1010A00031858217930721F4868197819383828308
:1010B0000FB6F8940F92808191810196918380837D
:1010C0000F900FBEFF91EF91BF91AF919F918F91C4
:1010D0004F913F912F910F900BBE0F900FBE0F902D
:1010E0001F9018951F920F920FB60F9211240BB6F6
:1010F0000F922F938F939F93AF93BF93EF93FF9391
:101100000FB6F8940F928091590390915A030F9063
:101110000FBE892B31F4E9ECF0E080818F7D808374
:101120001CC0E9E5F3E0A481B5812D91B583A483CA
:1011300080859185A817B90721F4868197819583C9
:1011400084830FB6F8940F928081918101979183E7
:1011500080830F900FBE2093CE00FF91EF91BF913F
:10116000AF919F918F912F910F900BBE0F900FBE5B
:101170000F901F9018951F920F920FB60F92112487
:101180000BB60F922F933F934F938F939F93AF93F1
:10119000BF93EF93FF938091D0008C7171F0809199
:1011A000D00088230CF036C0A6EDB0E0E0EDF0E012
:1011B0008C9180818823E4F32DC04091D6000FB636
:1011C000F8940F92E8E0F3E0218132810F900FBE96
:1011D0008385948528173907E9F0E9E0F3E0A281D7
:1011E000B3814C938281938101969383828320857E
:1011F00031858217930721F48681978193838283B7
:101200000FB6F8940F92808191810196918380832B
:101210000F900FBEFF91EF91BF91AF919F918F9172
:101220004F913F912F910F900BBE0F900FBE0F90DB
:101230001F9018951F920F920FB60F9211240BB6A4
:101240000F922F938F939F93AF93BF93EF93FF933F
:101250000FB6F8940F9280911503909116030F909A
:101260000FBE892B31F4E1EDF0E080818F7D80832A
:101270001CC0E5E1F3E0A481B5812D91B583A48381
:1012800080859185A817B90721F486819781958378
:1012900084830FB6F8940F92808191810197918396
:1012A00080830F900FBE2093D600FF91EF91BF91E6
:1012B000AF919F918F912F910F900BBE0F900FBE0A
:1012C0000F901F9018951F920F920FB60F92112436
:1012D0000BB60F922F933F934F938F939F93AF93A0
:1012E000BF93EF93FF93809130018C7171F08091E7
:1012F000300188230CF036C0A6E3B1E0E0E3F1E072
:101300008C9180818823E4F32DC0409136010FB683
:10131000F8940F92EAE2F3E0218132810F900FBE40
:101320008385948528173907E9F0EBE2F3E0A28181
:10133000B3814C938281938101969383828320852C
:1013400031858217930721F4868197819383828365
:101350000FB6F8940F9280819181019691838083DA
:101360000F900FBEFF91EF91BF91AF919F918F9121
:101370004F913F912F910F900BBE0F900FBE0F908A
:101380001F9018951F920F920FB60F9211240BB653
:101390000F922F938F939F93AF93BF93EF93FF93EE
:1013A0000FB6F8940F9280913703909138030F9005
:1013B0000FBE892B31F4E1E3F1E080818F7D8083E2
:1013C0001CC0E7E3F3E0A481B5812D91B583A4832C
:1013D00080859185A817B90721F486819781958327
:1013E00084830FB6F8940F92808191810197918345
:1013F00080830F900FBE20933601FF91EF91BF9134
:10140000AF919F918F912F910F900BBE0F900FBEB8
:101410000F901F901895E0919C02F0919D028081A1
:10142000811107C08FEF9FEF909374028093730236
:101430000895E0919C02F0919D020580F681E02DD7
:101440000680F781E02D82819381909374028093CE
:1014500073020895FF920F931F93CF93DF93EC01D4
:10146000F62E00917B0210917C028091D402909123
:10147000D5020296FDD8CF3F8FEFD80761F4FF2049
:1014800051F06091D4027091D5026E5F7F4F8EE76C
:1014900092E09CD82DC0C00FD11FE091D402F091F2
:1014A000D502D383C283C017D10760F46091D40200
:1014B0007091D50280919A0290919B026E5F7F4F4E
:1014C000A6D816C06091D4027091D50280919C027A
:1014D00090919D026E5F7F4F9AD880917302909198
:1014E0007402C817D90720F4D0937402C093730212
:1014F000DF91CF911F910F91FF9008954F925F92CE
:101500006F927F928F929F92AF92BF92CF92DF9213
:10151000EF92FF920F93CF93DF934C016B015A012F
:101520002901CA010E94AC013C01892B09F4E7C0E2
:1015300088E290E00E94AC01EC01892BA9F0788E42
:101540006F8AA50165EA70E0C30181D681E0A81A1F
:10155000B1088F89988DA80EB91ED6018C91898FFC
:101560008C91811105C018C0C3010E94BE01C7C083
:10157000AE01465E5F4FF6013196B8E0CB0ED11C4E
:10158000CF012191DA012D93AD01DC018C918823EB
:1015900019F0EC15FD05A1F718A2043008F003E0DE
:1015A0000E8B09A31AA26E01B2E0CB0ED11CC601AC
:1015B00009D8CE010C9606D8D987C88784E090E078
:1015C000801B91099D878C87DB8BCA8B1BA21CA279
:1015D0001DA21EA21FA2A201B401C5016FD899834A
:1015E0008883E114F10419F0F701D183C0830FB6A9
:1015F000F8940F9280917D028F5F80937D0280919D
:10160000D4029091D502892BD1F5D093D502C09305
:10161000D40280917D02813009F041C080EB92E0DC
:101620000E94D40289EB92E00E94D40282EC92E004
:101630000E94D4028BEC92E00E94D40287EA92E0EE
:101640000E94D4028EE992E00E94D40281E992E0E5
:101650000E94D40288E892E00E94D4028EE792E0D1
:101660000E94D40287EA92E090939D0280939C02AC
:101670008EE992E090939B0280939A0210C0809131
:10168000790281110CC0E091D402F091D5029689C3
:101690008E89891720F0D093D502C093D40280910F
:1016A00075028F5F809375028E8990917A029817E8
:1016B00010F480937A0290E09C01220F331F220FD6
:1016C000331F220F331F820F931FB60180559D4F8A
:1016D0000E94E6020F900FBE80917902882359F094
:1016E000E091D402F091D50296898E89981728F45A
:1016F0009DD881E005C081E003C081E001C08FEF8B
:10170000DF91CF910F91FF90EF90DF90CF90BF903E
:10171000AF909F908F907F906F905F904F900895C3
:10172000EF92FF920F930F2EF1E7EF2EF2E0FF2ED4
:10173000F02D00E020E030E045E550E067E072E0A9
:1017400083E391E0DBDE813079F4F8948FEF9FEF53
:10175000909374028093730281E0809379021092D7
:101760007C0210927B021CD80F91FF90EF9008959D
:10177000809170028F5F8093700208950FB6F89485
:101780000F9280917B0290917C020F900FBE089582
:10179000CF92DF92EF92FF920F931F93CF93DF933D
:1017A00080917002811198C0E0907B02F0907C02E1
:1017B0008FEFE81AF80AF0927C02E0927B02E114C3
:1017C000F104B1F480919C0290919D0220919A02C3
:1017D00030919B0230939D0220939C0290939B0238
:1017E00080939A02809176028F5F8093760213DE57
:1017F0008091730290917402E816F90610F4D12CCE
:1018000053C0D12CCC24C394E0919C02F0919D0252
:101810008081811107C08FEF9FEF909374028093B6
:10182000730242C0E0919C02F0919D020580F68116
:10183000E02DC681D7818A819B81E816F90628F4BC
:1018400090937402809373022FC08E010E5F1F4F1E
:10185000C8010E9438038C899D89892B21F0CE0113
:101860000C960E9438038E8990917A02981710F492
:1018700080937A0290E09C01220F331F220F331FC6
:10188000220F331F820F931FB80180559D4F0E9476
:10189000E602E091D402F091D5029E8986899817DC
:1018A00008F4B2CFDC2CB0CFE091D402F091D50295
:1018B000868990E0FC01EE0FFF1FEE0FFF1FEE0F79
:1018C000FF1F8E0F9F1FFC01E055FD4F808182306E
:1018D00048F0DD24D39406C0809178028F5F809316
:1018E0007802D12C80917702882311F0DD24D394E3
:1018F0008D2DDF91CF911F910F91FF90EF90DF9091
:10190000CF900895DF92EF92FF920F931F93CF93A2
:10191000DF930FB6F8940F928091700281508093FC
:1019200070028091700281115DC080917D028111F1
:1019300033C05BC0D7011596ED91FC911697C68117
:10194000D781CE010C960E9438038E010E5F1F4F87
:10195000C8010E9438038E8990917A02981710F47A
:1019600080937A0290E09C01220F331F220F331FD5
:10197000220F331F820F931FB80180559D4F0E9485
:10198000E602E091D402F091D5029E8986899817EB
:1019900068F0D09277020AC0C0E0D0E00F2EF1E9E3
:1019A000EF2EF2E0FF2EF02DDD24D394F70180819D
:1019B0008111C0CFCD2B09F02EDDC0917802CC2350
:1019C00049F0D1E0E5DE8111D0937702C150D1F723
:1019D0001092780280917702882331F00E941604D9
:1019E00081E003C080E001C080E00F900FBEDF9176
:1019F000CF911F910F91FF90EF90DF9008950F937B
:101A00001F93CF93DF938C01EB01B2DE40917B02F9
:101A100050917C02F80120813181C9018C0F9D1FFA
:101A20004217530748F482179307D8F491838083B1
:101A30004817590760F407C08217930770F04817DA
:101A4000590758F00EC060E0841B950B03DD5ADF88
:101A500081110BC00E94160408C0F8019183808395
:101A6000F2CFF80191838083F2CFDF91CF911F9164
:101A70000F91089580917002882321F081E0809376
:101A80007702089510927702A091D402B091D50206
:101A9000E091D402F091D5022D913C918789908DEF
:101AA0008217930760F06091D4027091D502809103
:101AB000D4029091D502675E7F4F0E94D70120919A
:101AC0007A02822F90E0FC01EE0FFF1FEE0FFF1F46
:101AD000EE0FFF1FE80FF91FE055FD4F3081311168
:101AE00011C02150822F90E0FC01EE0FFF1FEE0F7E
:101AF000FF1FEE0FFF1FE80FF91FE055FD4F30816C
:101B0000332379F3AC01440F551F440F551F440F85
:101B1000551F480F591FDA01A055BD4F1196ED9181
:101B2000FC9112970280F381E02D1296FC93EE93C4
:101B300011974D545D4FE417F50729F44281538105
:101B4000FD0152834183FC01EE0FFF1FEE0FFF1FCB
:101B5000EE0FFF1F8E0F9F1FFC01E055FD4F018010
:101B6000F281E02D868197819093D5028093D402F3
:101B700020937A020895CF93DF93EB016091D40212
:101B80007091D502645F7F4F0E94070361E0CE0130
:101B900061DCDF91CF9108950F931F93CF93DF9373
:101BA000DC011596ED91FC911697C681D7818E01C7
:101BB000045F1F4FC8010E94380380917002811199
:101BC0001CC00A501109C8010E9438038E899091E7
:101BD0007A02981710F480937A0290E09C01220F09
:101BE000331F220F331F220F331F820F931FB801A1
:101BF00080559D4F0E94E60205C0B80181E992E040
:101C00000E94E602E091D402F091D5029E89868975
:101C1000891720F481E08093770201C080E0DF9192
:101C2000CF911F910F91089520917602FC0120839E
:101C300020917B0230917C023283218308950FB67C
:101C4000F8940F9240917B0250917C02DB012D9120
:101C50003C912F3FBFEF3B0711F1E0917602DC0191
:101C6000FC91FE1739F01196ED91FC9112974E17E9
:101C70005F07B8F4DC011196ED91FC911297DA013F
:101C8000AE1BBF0BA217B30770F4DB01E41BF50B0F
:101C90002E0F3F1F2D933C93C7DF80E005C080E0EF
:101CA00003C081E001C081E00F900FBE089581E084
:101CB0008093770208950F931F93CF93DF93FC01D6
:101CC000892B09F455C02689A091D402B091D50280
:101CD00056968C91281708F04BC0848595859923DA
:101CE00064F0A091D402B091D50256963C9184E064
:101CF00090E0831B91099587848730E0C901880FA4
:101D0000991F880F991F880F991F280F391F205579
:101D10003D4F828593858217930719F58F01EF0157
:101D20002296CE010E943803E091D402F091D502B0
:101D30008689F801868B90917A02981710F4809327
:101D40007A0290E09C01220F331F220F331F220FD3
:101D5000331F820F931FBE0180559D4F0E94E602E4
:101D600007C0A091D402B091D50256968C91868B73
:101D7000DF91CF911F910F9108950F931F93CF93F0
:101D8000DF93FC01892B79F182A1815082A32689FE
:101D900091A1291751F181112AC0EF018F010E5F26
:101DA0001F4FC8010E94380389A18E8B24E030E0C8
:101DB000281B31093D872C8790917A02981710F4DF
:101DC00080937A0290E09C01220F331F220F331F71
:101DD000220F331F820F931FB80180559D4F0E9421
:101DE000E60281E005C080E003C080E001C080E041
:101DF000DF91CF911F910F9108958091D40290911E
:101E0000D502892B39F0E091D402F091D50282A15C
:101E10008F5F82A38091D4029091D5020895109291
:101E2000C00088E18093C10086E08093C20087E60D
:101E300090E09093C5008093C4000895EF92FF92C4
:101E40000F9343E060E081E00E94FB0590936F03F5
:101E500080936E0320E040E050E060E070E00E947C
:101E60002506DDDF0F2EFCEDEF2EF2E0FF2EF02D2C
:101E700003E020E030E040E051E06CE072E08DE90A
:101E80009FE03CDB0F2EFAEDEF2EF2E0FF2EF02D5F
:101E900020E030E040E051E063E172E084E89FE060
:101EA0002DDB3EDC80E090E00F91FF90EF900895F5
:101EB000E0ECF0E0908195FFFDCF8093C60008959F
:101EC000CF93DF93EC0120E04FEF5FEF60E070E035
:101ED00080916E0390916F030E94B70688818823DA
:101EE00029F02196E5DF89918111FCCF20E040E0C7
:101EF00050E060E070E080916E0390916F030E946B
:101F00002506DF91CF910895CF93DF931F921F9203
:101F1000CDB7DEB733DC9A83898300E010E08AE135
:101F200092E0CEDF0F5F1F4F0A301105C1F768EE58
:101F300073E0CE01019663DDF0CFCF93DF931F9264
:101F40001F92CDB7DEB71ADC9A83898300E010E0D8
:101F500085E392E0B5DF0F5F1F4F0A301105C1F72F
:101F600068EE73E0CE0101964ADDF0CFCF93DF93A8
:101F7000CDB7DEB768970FB6F894DEBF0FBECDBF02
:101F80002AE0AE014F5F5F4F69D1CE01019698DF25
:101F900068960FB6F894DEBF0FBECDBFDF91CF912C
:101FA000089584E080930A01CBE0D1E014E06091D1
:101FB000D6027091D7028091D8029091D902D6DFD3
:101FC00080E592E07DDF24E130E08881812788830D
:101FD0004FEF83ED90E3415080409040E1F700C027
:101FE00000002150310989F7E2CFEE0FFF1F881F53
:101FF0008BBF0790F691E02D19940F931F93CF9309
:10200000DF938230910510F482E090E0E09172035A
:10201000F091730320E030E0A0E0B0E0309719F1D8
:10202000408151810281138148175907C8F08417F4
:10203000950769F4109731F012960C931297139646
:102040001C9327C0009372031093730322C02115C1
:10205000310519F04217530718F49A01BD01EF0139
:10206000DF01F801DBCF21153105F9F0281B390B11
:102070002430310580F48A819B816115710521F03E
:10208000FB019383828304C0909373038093720354
:10209000FE01329644C0FE01E20FF31F819391933B
:1020A00022503109398328833AC02091700330913E
:1020B0007103232B41F420910202309103023093EB
:1020C00071032093700320910002309101022115C9
:1020D000310541F42DB73EB74091040250910502FD
:1020E000241B350BE0917003F0917103E217F307A5
:1020F000A0F42E1B3F0B2817390778F0AC014E5F78
:102100005F4F2417350748F04E0F5F1F5093710340
:10211000409370038193919302C0E0E0F0E0CF011F
:10212000DF91CF911F910F910895CF93DF93009787
:1021300009F481C0FC01329713821282A0917203CC
:10214000B0917303109781F420813181820F931F26
:1021500020917003309171032817390751F5F093DE
:102160007103E093700367C0ED0120E030E0CE170B
:10217000DF0740F44A815B819E0141155105F1F072
:10218000EA01F5CFD383C28340815181840F951F2B
:10219000C817D90759F488819981840F951F029631
:1021A000918380838A819B8193838283211531056A
:1021B00029F4F0937303E09372033DC0E901FB83BC
:1021C000EA8349915991C40FD51FEC17FD0761F4BB
:1021D00080819181840F951F0296E90199838883FC
:1021E000828193819B838A83E0E0F0E012968D9157
:1021F0009C911397009719F0FD01DC01F7CF8D91A9
:102200009C9111979D012E5F3F4F820F931F20914C
:102210007003309171032817390769F4309729F456
:10222000109273031092720302C013821282B09351
:102230007103A0937003DF91CF910895FB01DC013E
:1022400002C001900D9241505040D8F70895DC0132
:1022500001C06D9341505040E0F70895BB27FA014B
:10226000A62F6217710581059105330B30FB66F0CF
:10227000AA27660F771F881F991FAA1FA21710F0A1
:10228000A21B63953850A9F7A05DAA3308F0A95D99
:10229000A19336F7B111B1931082CA0100C0DC01DD
:1022A000FC01672F71917723E1F7329704C07C918D
:1022B0006D9370836291AE17BF07C8F30895F894C9
:0222C000FFCF4E
:1022C200000074032000F849444C4500486F6F66D3
:1022D200644C004B6C65696E4C00616263646566B8
:1022E2006768696A6B6C6D6E6F7071727374757604
:1022F2007778797A004142434445464748494A4BF8
:102302004C4D4E4F505152535455565758595A00EE
:042312000A0D0000B0
:00000001FF
